:1000000013EF2FF00000000000EF00F000000000F0
:0A0010000000000000000000F3D71C
:10001C000201DE51000A18E0938C060E0D6E0D2EB7
:10002C00FED70000938E060E0D6E0D2EFED700002F
:10003C00939E060E0D6E0D2EFED70000939C060EA1
:0A004C000D6E0D2EFED7000012000D
:100056000201DE51000A32E0016A015007081CE382
:1000660003015CBF02D0939E01D0938E060E0D6EE7
:100076000D2EFED70000938C060E0D6E0D2EFED7AC
:100086000000939C060E0D6E03010D2EFDD7000099
:100096005C375C91012AE1D7938E060E0D6E0D2E0C
:1000A600FED70000938C060E0D6E0D2EFED70000B7
:0E00B600939C060E0D6E0D2EFED7000012005C
:0800C4000AAE029E000E1200BC
:1000CC000201DE51000A12E0939E060E0D6E0D2EFB
:1000DC00FED70000938C060E0D6E0D2EFED7000081
:0E00EC00938E060E0D6E0D2EFED70000120034
:1000FA000201E251030158255B6F8BDFD7C25CF323
:10010A00A5DF03015C6BA2DF03015751B00F5C6FDF
:10011A009DDF03015B510F0804E35BC359F35A6B7C
:10012A0019D05BC302F00232029E0232029E0232F0
:10013A00029E0232029E02C05AF302C000F000364A
:10014A000090003600900036009000360090005073
:10015A005B5D596F59C35CF379DF03015A51100F84
:10016A005C6F74DF56DFD7C25CF370DF400E0301A9
:06017A005C6F6CDF120057
:10018000086A096A100E0C6E0134083609360450EC
:10019000085E0550D8A0053C095ED8B007D00450D1
:1001A00008260550D8B0053C0926D89000360136FF
:0601B0000C2EEAD712003C
:1001B6000B840BAEE6EF00F0010E036E026A016AD5
:0A01C600006A0A360232FF0E120032
:0E01D000026A016A006A086A036A000E1200E1
:1001DE000C6A0E6A0250D8A408EF01F001C002F0BA
:1001EE0000C001F0006A0E860250D8A408EF01F09C
:1001FE0001C002F0016A0E960E880250D8B41AEFB2
:10020E0001F00E50035ED8A4D8A01FEF01F0D890D5
:10021E0002BE24EF01F0003601360236032E0FEF38
:10022E0001F01FEF01F0010E0C6ECBDF27EF01F096
:10023E00020E0C6EB9DF27EF01F0040E0C6E3BDFE1
:02024E0012009C
:0A0250001D0E0D6E0D2EFED71200DC
:10025A000B820BAE37EF01F0036802680168006891
:08026A000A360232FF0E1200F9
:100272000301516B050E515D0AE251514F25E16EAA
:10028200000E5021E26E200EE66E512BF3D7515133
:100292004F25E16E000E5021E26EE66A5107515180
:1002A2004F25526F000E5021536F0A0E046E000E3E
:1002B200056E4DC300F04EC301F061DF08C000F0CF
:1002C20009C001F0300E002652C3E1FF53C3E2FF22
:1002D20000C0E6FF0A0E046E000E056E4DC300F06C
:1002E2004EC301F04CDF00C04DF301C04EF3000ECF
:1002F200011802E1000E001801E102D05107CFD728
:020302001200E7
:100304000B800BAE8EEF01F0026A0AAEFF0E026E96
:0C031400016E006E0A360232FF0E12006D
:1003200003014E6B0201D86B010EDD6F4DC34EF31E
:1003300003014E374E914E374E914E374E914E3708
:100340004E910201E15303E0080E03014E27020122
:10035000DD5303E0040E03014E270201D85303E0EE
:10036000020E03014E270201E05302E003014E2B6F
:1003700055DED7C25CF36FDE4EC35CF36CDEA6DEE7
:10038000060E0C6E300E0D6E0D2EFED70C2EFCD709
:100390000000040E03014E5F41DED7C25CF35BDE5A
:1003A0004EC35CF358DE92DE060E0C6E300E0D6E00
:0C03B0000D2EFED70C2EFCD70000120012
:1003BC002FDED7C25CF349DE400E03015C6F45DED5
:1003CC004EC357F34DC358F392DE0301526B515198
:1003DC00525DD8B0B3D052514F25E96E000E50216A
:1003EC00EA6EEE50000A02E1546B09D052514F25CF
:1003FC00E96E000E5021EA6E200EEE5C546F536BCA
:10040C0053510408D8A092D0050E5403F3CF00F03A
:10041C00F4CF01F053510026000E0122190E0024D6
:10042C00F66E640E0120F76E000EF86E000E01BE23
:10043C00FF0EF8220900F5CF55F34E51020A000EBB
:10044C00D8A4010E016E4E51040A000ED8A4010E60
:10045C00006E005001164E51060A000ED8A4010E73
:10046C00006E0150001629E055B702D0569F01D0FE
:10047C00568F55B702D0569D01D0568D55B502D02A
:10048C00569B01D0568B55B502D0569901D0568942
:10049C0055B302D0569701D0568755B302D0569516
:1004AC0001D0568555B102D0569301D0568355B123
:1004BC0002D0569101D0568120D055B502D0569F0E
:1004CC0001D0568F55B502D0569D01D0568D55B3DF
:1004DC0002D0569B01D0568B55B302D0569901D001
:1004EC00568955B102D0569701D0568755B102D0D6
:1004FC00569501D056855693569156C35CF3A5DD9F
:10050C000201DE51040A010ED8A4000E016EDE5168
:10051C00050A010ED8A4000E006E0150001203E073
:10052C0056C35CF392DD0301532B6AD75C6B8DDDF4
:10053C0003015C6B8ADD0301522B49D74E51010F2D
:10054C00576F4DC358F3D3DD0301526B5151525DBC
:10055C00D8B0BBD052514F25E96E000E5021EA6E37
:10056C00EE50000A02E1546B09D052514F25E96E4E
:10057C00000E5021EA6E200EEE5C546F536B5351FB
:10058C000408D8A09AD0050E5403F3CF00F0F4CF92
:10059C0001F053510026000E0122190E0024F66EB4
:1005AC00640E0120F76E000EF86E000E01BEFF0EF9
:1005BC00F8220900F5CF55F34E51020A000ED8A4CB
:1005CC00010E016E4E51040A000ED8A4010E006EED
:1005DC00005001164E51060A000ED8A4010E006EF2
:1005EC000150001629E055BF02D0569F01D0568FFE
:1005FC0055BF02D0569D01D0568D55BD02D0569B8D
:10060C0001D0568B55BD02D0569901D0568955BB99
:10061C0002D0569701D0568755BB02D0569501D0C3
:10062C00568555B902D0569301D0568355B902D090
:10063C00569101D0568128D055BD02D0569F01D07D
:10064C00568F55BD02D0569D01D0568D55BB02D04C
:10065C00569B01D0568B55BB02D0569901D056896A
:10066C0055B902D0569701D0568755B902D0569538
:10067C0001D0568555B702D0569301D0568355B745
:10068C0002D0569101D0568156C35CF3DEDC0201D8
:10069C00DE51040A010ED8A4000E016EDE51050ACB
:1006AC00010ED8A4000E006E0150001203E056C3D8
:1006BC005CF3CBDC0301532B62D75C6BC6DC030110
:0E06CC005C6BC3DC0301522B41D7FADC120039
:1006DA00086A096A000E07620364F2EF03F0025027
:1006EA0006180A6E075003267E0ED8A083EF03F081
:1006FA00035ED8B0F6EF03F087EF03F0035ED8A0ED
:10070A00FAEF03F0028E068E02C00EF001C00BF063
:10071A0000C00DF000500402F4CF0CF001500502A5
:10072A00F4CF00F0F3CF08F00402F3500C26F45093
:10073A000822000E00220D500502F3500C26F45038
:10074A000822000E002202500402F3500826F45038
:10075A00002202500502016A000E0122F35000260F
:10076A00F45001220D500602F3500826F4500022DC
:10077A00026A000E012202220B500602F3500026E2
:10078A00F4500122000E02220E500602F3500126F6
:10079A00F450022202BEDAEF03F0083600360136C0
:1007AA0002360306D8B4FAEF03F0EDEF03F0D8806F
:1007BA00800E08640030000E002201220222D8A016
:1007CA00EDEF03F0023201320032034AF6EF03F092
:1007DA000AAE029E000EFCEF03F0010EF4DCFCEF01
:1007EA0003F0020E35DDFCEF03F0040EDFDC12002D
:1007FA000B1E0A1E091E081E082AD8B4092AD8B4D4
:08080A000A2AD8B40B2A1200DF
:080812000B6A0B86FF0E1200B9
:10081A0000C008F00150006E016A026A036A0B6A9E
:10082A000C6A016A026A036A960E036E0A6A00AECD
:10083A0025EF04F0081E001E082AD8B4002A0A8EE2
:10084A0000C001F008C000F0086A026AC3DC1200A6
:10085A000CB06FEF04F00CA217EF05F00E6A000E51
:10086A00026486EF04F0F00E0214D8A451EF04F0EB
:10087A00023A01380F0B02260138F00B016E0038DC
:10088A000F0B01260038F00B006E08380F0B0026FC
:10089A000838F00B086E0E84D89002BE6AEF04F096
:1008AA0008360036013602360E2A02BE6AEF04F016
:1008BA0008360036013602360E2A02BE6AEF04F006
:1008CA0008360036013602360E2A0E5003640BEF44
:1008DA0005F0035E0BBC08AE11EF05F0D880800E60
:1008EA0008640030000E002201220222D8A011EF73
:1008FA0005F0023201320032034A17EF05F011EF18
:10090A0005F001C002F000C001F008C000F0086A5A
:10091A00000E0E860264BDEF04F0F00E0214D8A495
:10092A00A5EF04F0023A01380F0B02260138F00B4A
:10093A00016E00380F0B01260038F00B006E0E8492
:10094A00D89002BE6AEF04F00036013602360E2A4B
:10095A0002BE6AEF04F00036013602360E2A02BEE3
:10096A006AEF04F00036013602360E2A6AEF04F006
:10097A0001C002F000C001F0006A000E0E960E8857
:10098A000264EAEF04F0F00E0214D8A4D5EF04F0E2
:10099A00023A01380F0B02260138F00B016E0E8461
:1009AA00D89002BE6AEF04F0013602360E2A02BE61
:1009BA006AEF04F0013602360E2A02BE6AEF04F02C
:1009CA00013602360E2A6AEF04F001C002F0016A0B
:1009DA00000E0E8602641CEF05F0F00E0214D8A475
:1009EA00F9EF04F0023A0E84D89002BE6AEF04F0DE
:1009FA0002360E2A02BE6AEF04F002360E2A02BE40
:100A0A006AEF04F002360E2A6AEF04F0010E0C6E49
:100A1A00DBEC00F020EF05F0020E0C6E62EC00F049
:100A2A0020EF05F0040E0C6E13DC20EF05F0080E23
:080A3A000C6EE8EC00F0120064
:100A42000050086E0150006E016A026A036A0B6A66
:100A52000C6A960E036E0A6A00C001F008C000F02C
:0A0A6200086A026AEFEC00F01200CF
:100A6C000450085E0550D8A0053C095E0650D8A07D
:100A7C00063C0A5E0750D8A0073C0B5E0336070EF7
:100A8C000C6E0334083609360A360B36045003A0B4
:100A9C000ED0085E0550D8A0053C095E0650D8A0C3
:100AAC00063C0A5E0750D8A0073C0B5E0DD008260A
:100ABC000550D8B0053C09260650D8B0063C0A268D
:100ACC000750D8B0073C0B2603360C2EDAD702346D
:100ADC00083609360A360B36045003A00ED0085ED1
:100AEC000550D8A0053C095E0650D8A0063C0A5E0D
:100AFC000750D8A0073C0B5E0DD008260550D8B087
:100B0C00053C09260650D8B0063C0A260750D8B03A
:100B1C00073C0B260236070E0C6E023408360936DB
:100B2C000A360B36045002A00ED0085E0550D8A031
:100B3C00053C095E0650D8A0063C0A5E0750D8A0BA
:100B4C00073C0B5E0DD008260550D8B0053C092695
:100B5C000650D8B0063C0A260750D8B0073C0B26E6
:100B6C0002360C2EDAD70134083609360A360B3623
:100B7C00045002A00ED0085E0550D8A0053C095EBA
:100B8C000650D8A0063C0A5E0750D8A0073C0B5E66
:100B9C000DD008260550D8B0053C09260650D8B013
:100BAC00063C0A260750D8B0073C0B260136070E28
:100BBC000C6E0134083609360A360B36045001A087
:100BCC000ED0085E0550D8A0053C095E0650D8A092
:100BDC00063C0A5E0750D8A0073C0B5E0DD00826D9
:100BEC000550D8B0053C09260650D8B0063C0A265C
:100BFC000750D8B0073C0B2601360C2EDAD7003440
:100C0C00083609360A360B36045001A00ED0085EA1
:100C1C000550D8A0053C095E0650D8A0063C0A5EDB
:100C2C000750D8A0073C0B5E0DD008260550D8B055
:100C3C00053C09260650D8B0063C0A260750D8B009
:100C4C00073C0B260036070E0C6E003408360936AE
:100C5C000A360B36045000A00ED0085E0550D8A002
:100C6C00053C095E0650D8A0063C0A5E0750D8A089
:100C7C00073C0B5E0DD008260550D8B0053C092664
:100C8C000650D8B0063C0A260750D8B0073C0B26B5
:100C9C0000360C2EDAD700B00ED0045008260550C2
:100CAC00D8B0053C09260650D8B0063C0A26075099
:080CBC00D8B0073C0B26120022
:100CC4000B6A0350D8B4A8EF06F002500A6E028EE5
:100CD4008E0E035E03AEACEF06F0036C080E035CED
:100CE400D8A087EF06F0036E013602C001F0026A55
:100CF400080E035CD8A087EF06F0036E0136016A84
:100D04000350D8A4D89091EF06F00350D8B491EFD3
:100D140006F0D89002320132032E8BEF06F00BBCA2
:100D240001A09EEF06F0D8A09EEF06F0012AD8B4E9
:100D3400022A02BEBBEF06F00AAEC1EF06F0021EA5
:100D4400011E012AD8B4022AC1EF06F0026A016A20
:100D5400C1EF06F00B800BAEC5EF06F0026A0AAED7
:100D6400C5EF06F0FF0E026E016E0A360232C5EFC1
:100D740006F0010E0C6E82EC01F0C7EF06F0000ED7
:100D84000C6EC7EF06F0FF0E0C6E0150006E0250A1
:040D9400016E1200DA
:100D98000301496B4A6B43C34BF344C34CF3800EC6
:100DA8004419006E800E005C02E1000E435D0BE208
:100DB800010E496F000E4A6F435100084B6F44C340
:100DC8004CF3000E4C574BC34DF34CC34EF345C385
:100DD8004FF346C350F339EC01F0060E476F000E8F
:100DE800486F000E006E4851005C02E14751000850
:100DF80019E247514525E16E48514621E26E010E40
:100E0800475D006E000E4859016E00504525E96E99
:100E180001504621EA6EEECFE6FF010E475F000E55
:100E2800485BDFD745C3E1FF46C3E2FF200EE66E0D
:100E380049514A111AE0476B486B47514525E96EFD
:100E480048514621EA6EEE50200A03E1474B482BF1
:100E5800F4D7010E475F000E485B47514525E16E08
:0C0E680048514621E26E2D0EE66E12008D
:100E7400220E0C6E086A096A0A6A0B6A0C06D8B458
:100E84001FD0D8900B320A320932083203320232B0
:100E940001320032D8A0F2D70C06D8B409D00450DD
:100EA40008260550092206500A2207500B22EAD7C9
:100EB400045008260550092206500A2207500B2226
:020EC40012001A
:100EC600030E0C6E950E0D6E0D2EFED70C2EFCD756
:020ED600120008
:100ED800830EC21643C300F000360090003600901F
:100EE8000050C21228EC01F0C282C2A201D0FDD784
:100EF800C4CF01F0006AC3500012000E01121200A4
:100F08000201DE51040A010ED8A4000E016EDE5162
:100F1800050A010ED8A4000E006E015000120DE063
:100F280044C34DF343C34EF345C34FF346C350F395
:100F380047C351F3DEEC01F05DD0DE51020A010E29
:100F4800D8A4000E016EDE51030A010ED8A4000ECB
:100F5800006E0150001214E0070E03014403F3CFA2
:100F68004DF3040E4D2743C34EF34E374E9145C300
:100F78004FF346C350F347C351F3DEEC01F03AD0C8
:100F8800E06B43C300F0003600900036009000503C
:100F9800080F03014D6F90EC01F044C34DF390EC42
:100FA80001F0010EE06F0301486B4751485D22E2F2
:100FB80048514525E96E000E4621EA6EEECF01F054
:100FC80001C04DF34D334D9F4D334D9F4D334D9FD4
:100FD8004D334D9F90EC01F0030148514525E96ED2
:100FE800000E4621EA6EEECF4DF390EC01F00301BE
:060FF800482BDBD71200BC
:100FFE000A6A0350D8A40A800750D8A40A820A505D
:10100E00D8B462EF08F0030AD8B41BEF08F00AB0A8
:10101E0016EF08F006AE60EF08F05EEF08F002AED5
:10102E005EEF08F060EF08F00250800B0A6E029E31
:10103E000650800B069E0A18D8B42CEF08F00A5002
:10104E00D8B45EEF08F060EF08F00750035CD8B438
:10105E0036EF08F0D8A052EF08F058EF08F006501F
:10106E00025CD8B440EF08F0D8A052EF08F058EF69
:10107E0008F00550015CD8B44AEF08F0D8A052EF42
:10108E0008F058EF08F00450005CD8B462EF08F096
:10109E00D8B058EF08F00A52D8B460EF08F05EEFFF
:1010AE0008F00A52D8B45EEF08F060EF08F0D8806E
:0E10BE001200D8901200D880D88412001200C0
:1010CC00010E0301436F02DFB6DC890E046E410E84
:1010DC00056E1C0E066E810E076E6DEC03F0ECDDDA
:0210EC001200F0
:1010EE000301436BF2DE00C03CF301C03DF3800E02
:1010FE00030A026E800E0118025C02E10050E8083D
:10110E0004E2010E0201106F02D00201106B3CC30B
:10111E0000F03DC301F00DEC04F0890E046E410E9B
:10112E00056E1C0E066E810E076E6DEC03F0C3DDB0
:02113E0012009D
:101140000301426B3EC301F0010E006E015004E04A
:1011500000360090FF0FFBD700C041F33CC3E9FF0E
:101160003DC3EAFF0050EE14016E0152010ED8A4F7
:10117000000E006E4051001A18E03F51000804E2D2
:10118000A2DEA1DE3F07F9D73CC3E9FF3DC3EAFF7A
:101190004151EE14016E0152010ED8A4000E006EF2
:1011A0004051001A02E0FF0E426F42C300F01200ED
:1011B000A00E03013E6F0F0E3F6F000E406F416F98
:1011C000A00E006E0F0E016E000E026E000E036E7A
:1011D0003CC304F03DC305F0000E066E076E4ADE08
:1011E00000C03EF301C03FF302C040F303C041F32F
:1011F000000E035C08E1000E025C05E1020E015CDA
:1012000002E1940E005C01E231D0940E3E5F020ECA
:101210003F5B000E405B415B050E006E005007E037
:10122000413340333F333E33419FFF0FF8D73EC336
:1012300000F03FC301F040C302F041C303F0010ED0
:101240003E5F000E3F5B405B415B005001100210AF
:1012500003100CE00000000000000000000000008F
:0E12600000000000000000000000E1D71200B6
:10126E0004000201BF6BC06B12A104D0BD51BF2799
:10127E00BE51C02312A304D0BB51BF27BC51C02303
:10128E0012A504D0C151BF27C251C02312A704D04A
:10129E00C751BF27C851C02312A904D0C551BF27BB
:1012AE00C651C02312AB04D0C351BF27C451C023B3
:1012BE0012AD04D0B951BF27BA51C023800E270AF0
:1012CE00006E800EC019005C02E1BF510F081EE2D5
:1012DE00320EBF25006E000EC021016E00C0BFF29F
:1012EE0001C0C0F200C043F301C044F3F30E03018A
:1012FE00456F020E466F49DDF4C2ECF2F5C2EDF217
:10130E002E0E0201EE6FF6C2EFF225D0BFC243F3EE
:10131E00C0C244F3F30E0301456F020E466F35DD76
:10132E000201F551200A03E0F5C2ECF202D0300EB4
:10133E00EC6F2E0EED6FF651200A03E0F6C2EEF2C0
:10134E0002D0300EEE6FF751200A03E0F7C2EFF233
:10135E0002D0300EEF6FE951040A010ED8A4000E30
:10136E00016EE951050A010ED8A4000E006E01505F
:10137E0000122EE04251010A04E1040E03013C6FFB
:10138E0003D00301060E3C6F3CC343F3100E446FB3
:10139E009F0E456F000E466F020E476FAEDD3CC3CB
:1013AE0043F3580E0301446F9C0E456F000E466FBB
:1013BE00020E476FA2DD3CC343F3280E0301446FB8
:1013CE00EC0E456F020E466F040E476F96DD6DD024
:1013DE000201E951020A010ED8A4000E016EE95174
:1013EE00030A010ED8A4000E006E015000122DE06B
:1013FE004251010A03E103013C6B03D00301010ECC
:10140E003C6F3CC343F3090E446FA20E456F000EB2
:10141E00466F020E476F71DD3CC343F30F0E03019F
:10142E00446FAA0E456F000E466F020E476F65DDC4
:10143E003CC343F30B0E0301446FEC0E456F020EDB
:10144E00466F040E476F59DD30D00201E951010A93
:10145E002CE14251010A03E103013C6B03D003016D
:10146E00010E3C6F3CC343F3090E446FA70E456F4C
:10147E00000E466F020E476F40DD3CC343F30F0E66
:10148E000301446FA50E456F000E466F010E476FA8
:10149E0034DD3CC343F30B0E0301446FEC0E456F7A
:1014AE00020E466F040E476F28DD04000201BF6B6B
:1014BE00C06B14A104D0C951BF27CA51C02314A3B5
:1014CE0004D0CF51BF27D051C02314A504D0CD5185
:1014DE00BF27CE51C02314A704D0CB51BF27CC5168
:1014EE00C02314A904D0D151BF27D251C02314ABAD
:1014FE0004D0D551BF27D651C02314AD04D0D3513B
:10150E00BF27D451C023BFC243F3C0C244F3F30E6E
:10151E000301456F020E466F38DCF5C2ECF2F6C2DF
:10152E00EDF2F7C2EEF2F8C2EFF20201E951040A4F
:10153E00010ED8A4000E016EE951050A010ED8A4C1
:10154E00000E006E015000122EE04251010A04E11D
:10155E00060E03013C6F03D00301040E3C6F3CC327
:10156E0043F3100E446FBD0E456F000E466F020E14
:10157E00476FC3DC3CC343F3580E0301446FB30EF5
:10158E00456F000E466F020E476FB7DC3CC343F348
:10159E00280E0301446FEC0E456F020E466F040ECB
:1015AE00476FABDC6DD00201E951020A010ED8A4DF
:1015BE00000E016EE951030A010ED8A4000E006E52
:1015CE00015000122DE04251010A04E1010E030107
:1015DE003C6F02D003013C6B3CC343F3090E446FD6
:1015EE00B00E456F000E466F020E476F86DC3CC391
:1015FE0043F30F0E0301446FAD0E456F000E466FA1
:10160E00020E476F7ADC3CC343F30B0E0301446FAB
:10161E00EC0E456F020E466F040E476F6EDC30D037
:10162E000201E951010A2CE14251010A04E1010EC5
:10163E0003013C6F02D003013C6B3CC343F3090E24
:10164E00446FB60E456F000E466F020E476F55DCA7
:10165E003CC343F30F0E0301446FBB0E456F000EE8
:10166E00466F010E476F49DC3CC343F30B0E03017B
:10167E00446FEC0E456F020E466F040E476F3DDC55
:04168E000400120042
:1016920000C008F00B6A0C6A9E0E036E0A6A026AA8
:0E16A200016A006A020E0C6E2DEC04F01200BC
:1016B0000450000A12E10550000A0FE10650000A2A
:1016C0000CE10750000A09E1FF0E006EFF0E016EEB
:1016D0007F0E026EFF0E036EA8D0086A096A0750DB
:1016E000D8B403EF0CF00350D8B408EF0CF002505C
:1016F00006180A6E028E068E0E6A02C008F001C03D
:101700000CF000C00DF004500D5E0550D8A0053C53
:101710000C5E0650D8A0063C085E086A0C6A0D6A8A
:10172000D8A09AEF0BF0D890023201320032083282
:10173000010E0E6E0750035ED8A0A7EF0BF07E0ED1
:101740000E240326D8B00DEF0CF0ADEF0BF07E0E9B
:101750000E240326D8A012EF0CF0180E0B6E0D36D7
:101760000C3608360036013602360E360450005E5E
:101770000550D8A0053C015E0650D8A0063C025E8C
:1017800006340E120EA0C8EF0BF00D80D3EF0BF055
:10179000045000260550D8B0053C01260650D8B0AC
:1017A000062802260D900B2EAFEF0BF0F9EF0BF091
:1017B000D8900036013602360E360450005E0550D1
:1017C000D8A0053C015E0650D8A0063C025E063457
:1017D0000E10010B0D26D8B00C2AD8B4082AD8A4B4
:1017E000F9EF0BF008320C320D32032AD8B40DEFAA
:1017F0000CF00AAE089E0850026E0C50016E0D509F
:10180000006E15EF0CF0010E09EC04F015EF0CF072
:10181000020EE8EC00F015EF0CF0040E2DEC01F0D8
:0C18200015EF0CF0080EDBEC00F01200DD
:10182C000EEC00F0D7C25CF32BEC00F0800E030141
:10183C005C6F2BEC00F03CC35CF32BEC00F066EC23
:04184C0000F0120096
:10185000025006180E6E086A096A0B6A0350076484
:101860001BEF0DF006500A6E068E028E03500B6EB3
:101870000750036E000E0B646BEF0CF00B50075E0D
:10188000D8B40CEF0DF0070E0764DAEF0CF0075E2A
:1018900000C008F001C000F002C001F0026A074E6B
:1018A0000CEF0DF00764AFEF0CF0075E00C008F01E
:1018B00001C000F0016A074E0CEF0DF007648DEFD8
:1018C0000CF0075E00C008F0006A074E0CEF0DF048
:1018D000076474EF0CF00AC002F005C001F004C008
:1018E00000F0086A38EF0EF0030E07647FEF0CF08B
:1018F000075E08380F0B086E074E0CEF0DF0D890FE
:101900000832074E0CEF0DF0D8900832074E0CEF5E
:101910000DF0D89008320CEF0DF0030E07649EEF27
:101920000CF0075E08380F0B086E0038F00B082625
:1019300000380F0B006E074E0CEF0DF0D890003200
:101940000832074E0CEF0DF0D89000320832074EE7
:101950000CEF0DF0D890003208320CEF0DF0030EB2
:101960000764C6EF0CF0075E08380F0B086E0038EE
:10197000F00B082600380F0B006E0138F00B002624
:1019800001380F0B016E074E0CEF0DF0D8900132AD
:1019900000320832074E0CEF0DF0D89001320032C1
:1019A0000832074E0CEF0DF0D890013200320832A9
:1019B0000CEF0DF0030E0764F7EF0CF0075E08382C
:1019C0000F0B086E0038F00B082600380F0B006E66
:1019D0000138F00B002601380F0B016E0238F00BB6
:1019E000012602380F0B026E074E0CEF0DF0D89057
:1019F0000232013200320832074E0CEF0DF0D8905F
:101A00000232013200320832074E0CEF0DF0D8904E
:101A10000232013200320832096A000E0EAE00EFC7
:101A20000EF0081E001E011E021E082A00220122BE
:101A3000022200EF0EF00750D8A421EF0DF038EF8E
:101A40000EF0096A02C00AF0028E068E0750035C8F
:101A5000076ED8B4F3EF0DF0070E0764C1EF0DF079
:101A6000075E0450096E0550046E0650056E066A46
:101A7000074EF3EF0DF0070E076496EF0DF0075ECB
:101A80000450096E0550046E056A074EF3EF0DF021
:101A9000070E076474EF0DF0075E0450096E046AC8
:101AA000074EF3EF0DF0070E07645BEF0DF00AC071
:101AB00002F038EF0EF0030E076466EF0DF0075EDC
:101AC00009380F0B096E074EF3EF0DF0D89009326D
:101AD000074EF3EF0DF0D8900932074EF3EF0DF0FB
:101AE000D8900932F3EF0DF0030E076485EF0DF087
:101AF000075E09380F0B096E0438F00B092604380D
:101B00000F0B046E074EF3EF0DF0D890043209323C
:101B1000074EF3EF0DF0D89004320932074EF3EF81
:101B20000DF0D89004320932F3EF0DF0030E076484
:101B3000ADEF0DF0075E09380F0B096E0438F00B9E
:101B4000092604380F0B046E0538F00B04260538FF
:101B50000F0B056E074EF3EF0DF0D89005320432EF
:101B60000932074EF3EF0DF0D890053204320932F6
:101B7000074EF3EF0DF0D890053204320932F3EF3F
:101B80000DF0030E0764DEEF0DF0075E09380F0B52
:101B9000096E0438F00B092604380F0B046E053863
:101BA000F00B042605380F0B056E0638F00B0526E2
:101BB00006380F0B066E074EF3EF0DF0D890063285
:101BC000053204320932074EF3EF0DF0D890063299
:101BD000053204320932074EF3EF0DF0D890063289
:101BE000053204320932086A000E0EAE00EF0EF024
:101BF000091E041E051E061E092A042205220622AD
:101C000009500826045000220550012206500222E5
:101C10000EBE17EF0EF0D8A026EF0EF00232013202
:101C200000320832033E26EF0EF032EF0EF0D8B04D
:101C30002CEF0EF0000E081E001E011E021E082AC8
:101C40000022012202220A7E2CEF0EF0010E0C6E01
:101C50002DEC04F03AEF0EF0020E0C6E2DEC04F0B9
:101C60003AEF0EF0040E0C6E2DEC01F03AEF0EF090
:061C7000000E0C6E1200D4
:101C76000050086E0150006E0250016E0350026E55
:101C8600036A0B6A0C6A9E0E036E0A6A02AE58EF6E
:101C96000EF0081E001E011E021E082AD8B4002AD5
:101CA600D8B4012AD8B4022A0A8E020E0C6E2DEC84
:041CB60004F0120024
:101CBA000450000A12E10550000A0FE10650000A1A
:101CCA000CE10750000A09E1FF0E006EFF0E016EDB
:101CDA00FF0E026E7F0E036E99D00C6A07BE0C2AA5
:101CEA000D6A0B6A0A6A096A086A0350021001102F
:101CFA000010D8B485D0035007180E6E0EBE0D1E04
:101D0A0007AE0BD0041E051E061E071E042AD8B4F1
:101D1A00052AD8B4062AD8B4072A03AE0BD0001E67
:101D2A00011E021E031E002AD8B4012AD8B4022AB0
:101D3A00D8B4032A035007100E6E0EBE1DD036EC1F
:101D4A0005F00CBE36D00DAE5BD0001E011E021E81
:101D5A00031E002AD8B4012AD8B4022AD8B4032A06
:101D6A00081E091E0A1E0B1E082AD8B4092AD8B44E
:101D7A000A2AD8B40B2A44D007AE15D003BE0DD018
:101D8A0003500B6E02500A6E0150096E0050086E25
:101D9A00036A026A016A006AD6D7036A026A016A9A
:101DAA00006A002A000C031E021E011E001E0C8E71
:101DBA00C6D7082AD8B4092AD8B40A2AD8B40B2A0A
:101DCA000450085CD8A4BFD70550095CD8A4BBD777
:101DDA0006500A5CD8A4B7D707500B5CD8A4B3D76F
:101DEA000B6A0A6A096A086A002AD8B4012AD8B4AE
:101DFA00022AD8B4032A03AEA6D70E6A0E88FF0CAD
:0E1E0A000E6A0CA002D0FDEC03F0000F1200D7
:101E1800800E006E800E03013D19005C02E13C510A
:101E2800500803E3006A016ABBD0800E006E800E82
:101E38003D19005C02E13C51AB0805E3F40E3C2778
:101E4800000E3D23A9D0800E010A006E800E3D19B8
:101E5800005C02E13C51480805E3FE0E3C27000EF9
:101E68003D239AD0800E020A006E800E3D19005C58
:101E780002E13C51460805E3180E3C27010E3D23BC
:101E88008BD0800E030A006E800E3D19005C02E1C3
:101E98003C51340805E3290E3C27010E3D237CD034
:101EA800800E040A006E800E3D19005C02E13C5170
:101EB8004C0805E3360E3C27010E3D236DD0800EFD
:101EC800080A006E800E3D19005C02E13C5185084D
:101ED80005E3AE0E3C27010E3D235ED0800E0C0AB2
:101EE800006E800E3D19005C02E13C51FA0805E3E2
:101EF800E40E3C27010E3D234FD0800E120A006EDF
:101F0800800E3D19005C02E13C510F0805E3120EFA
:101F18003C27020E3D2340D0800E160A006E800E2C
:101F28003D19005C02E13C51E60805E3880E3C27B8
:101F3800020E3D2331D0800E1B0A006E800E3D1923
:101F4800005C02E13C51EA0805E3E70E3C27020E7B
:101F58003D2322D0800E210A006E800E3D19005CC0
:101F680002E13C51360805E3200E3C27030E3D23D1
:101F780013D0800E290A006E800E3D19005C02E124
:101F88003C51040805E3480E3C27030E3D2304D0CA
:101F98005C0E3C27030E3D233CC300F03DC301F01B
:021FA800120025
:101FAA000B6A0A6A096A00500402F4CF09F0F3CFF7
:101FBA0008F001500502F4CF0BF0F3CF0AF00050FD
:101FCA000502F3500926F4500A22E86A0B2201504E
:101FDA000402F3500926F4500A22E86A0B2208C0C8
:101FEA0000F009C001F00AC002F00BC003F01200B1
:101FFA0002011151000A25E103011EB102D08A969D
:10200A0001D08A861EB302D0899401D089841EB574
:10201A0002D08A9801D08A881EB702D0899601D048
:10202A0089861EB902D08A9A01D08A8A1EBB02D03A
:10203A00899A01D0898A1EBD02D0899801D08988DF
:10204A0024D003011EB102D08A8601D08A961EB31B
:10205A0002D0898401D089941EB502D08A8801D021
:10206A008A981EB702D0898601D089961EB902D0F5
:10207A008A8A01D08A9A1EBB02D0898A01D0899A9B
:10208A001EBD02D0898801D08998EAC23CF3EBC20E
:08209A003DF3D8EC08F0120040
:1020A200040003011F510201951903E19451030138
:1020B2001E19D8B4ABD003011EC394F21FC395F20C
:1020C200000E1F1902E1010E1E193AE10201E95147
:1020D200040A010ED8A4000E016EE951050A010E90
:1020E200D8A4000E006E015000120EE0020E030191
:1020F200436F400E446F470E456F020E466F040E4B
:10210200476F84EC07F018D00201E951000A0EE093
:10211200010E0301436F040E446F4D0E456F020E14
:10212200466F040E476F84EC07F006D00201E951B6
:10213200000A02E18A8C8A8E0201946B956B66D04A
:102142001EC394F21FC395F21EC343F31FC344F38D
:10215200F30E0301456F020E466FCCEC06F0F6C299
:10216200ECF22E0E0201ED6FF7C2EEF2F8C2EFF2C0
:10217200E951040A010ED8A4000E016EE951050AC4
:10218200010ED8A4000E006E015000120EE0020EE5
:102192000301436F400E446FEC0E456F020E466F13
:1021A200040E476F84EC07F031D00201E951000AB6
:1021B2000EE0010E0301436F040E446FEC0E456FF7
:1021C200020E466F040E476F84EC07F01FD0020127
:1021D200E951000A1BE1800E006E800E03011F19F7
:1021E200005C02E11E51960803E38A9C8A8E0ED09F
:1021F200800E006E800E1F19005C02E11E51FA086B
:1022020003E3819C819E02D0818C819E0400120096
:10221200810E03013C6F0F0E3D6F3E6B190E3F6F37
:10222200406BA0EC08F000C01EF3810E3C6F0F0E55
:102232003D6F010E3E6F190E3F6F406BA0EC08F030
:1022420000501E13810E3C6F0F0E3D6F020E3E6F4B
:10225200190E3F6F406BA0EC08F01E51001203E014
:08226200010E0101DE6F120004
:10226A000201DE51010806E2AF0E03013C6F16ECD3
:10227A000CF00ED0DE51010A0BE1010EE16FE06BAA
:10228A0003014D6B90EC01F003014D6B90EC01F0F2
:02229A00120030
:10229C0004000001BA51000A010ED8A4000E016E10
:1022AC00B951010A010ED8A4000E006E005001169F
:1022BC00800E03012119006E800E005C02E1640E99
:1022CC00205D000ED8B0010E006E01500016D8B47F
:1022DC00AED002014551000AD8A4A5D0E951040A98
:1022EC00010ED8A4000E016EE951050A010ED8A406
:1022FC00000E006E015000122DE000019B51010AEE
:10230C000EE1040E0301436F100E446F3A0E456F3D
:10231C00000E466F080E476F84EC07F00DD0040ECC
:10232C000301436F100E446F310E456F000E466F64
:10233C00080E476F84EC07F0060E0301436F100E76
:10234C00446F280E456F000E466F080E476F84ECE5
:10235C0007F069D00201E951020A010ED8A4000E5F
:10236C00016EE951030A010ED8A4000E006E015053
:10237C0000122BE000019B51010A0DE10301436B9C
:10238C00090E446F430E456F000E466F080E476FE3
:10239C0084EC07F00CD00301436B090E446F5D0E07
:1023AC00456F000E466F080E476F84EC07F0010E68
:1023BC000301436F090E446F540E456F000E466FB8
:1023CC00080E476F84EC07F02ED00201E951010A88
:1023DC002AE100019B51010A0DE10301436B090E37
:1023EC00446F4C0E456F000E466F070E476F84EC22
:1023FC0007F00CD00301436B090E446F1D0E456FA3
:10240C00000E466F070E476F84EC07F0010E0301B8
:10241C00436F090E446F150E456F000E466F070E85
:10242C00476F84EC07F0010E0201456F08D00201E2
:10243C004551010A02E137EC09F00201456B040039
:10244C0003011F510201541903E1535103011E19D9
:10245C00D8B49AD31EC353F21FC354F200019B513C
:10246C00000A49E1800E03011F19006E800E005C0A
:10247C0002E1640E1E5D1EE3050E1E25006E000EAD
:10248C001F21016E00C01EF301C01FF300C043F3F7
:10249C0001C044F3F30E456F020E466FCCEC06F010
:1024AC00F5C2ECF2F6C2EDF2F7C2EEF2570E0201F3
:1024BC00EF6F20D01EC343F31FC344F3F30E03018D
:1024CC00456F020E466FCCEC06F00201F751200A64
:1024DC0003E0F7C2ECF202D0300EEC6F2E0EED6F73
:1024EC00F851200A03E0F8C2EEF202D0300EEE6F83
:1024FC00570EEF6F32D0800E03011F19006E800E45
:10250C00030A005C02E1E70E1E5D14E21EC343F3F6
:10251C001FC344F3F30E456F020E466FCCEC06F06E
:10252C00F6C2ECF2F7C2EDF2F8C2EEF2570E02016F
:10253C00EF6F13D01EC343F31FC344F3F30E030119
:10254C00456F020E466FCCEC06F0F5C2ECF2F6C20B
:10255C00EDF2F7C2EEF2F8C2EFF20201E951040A11
:10256C00010ED8A4000E016EE951050A010ED8A483
:10257C00000E006E015000120DE00301436B400E83
:10258C00446FEC0E456F020E466F040E476F84ECE1
:10259C0007F010D00201E951000A0CE00301436B73
:1025AC00040E446FEC0E456F020E466F040E476F1F
:1025BC0084EC07F0040002014551010AD8A4E4D2CE
:1025CC001251000A010ED8A4000E016E1451000A1B
:1025DC00010ED8A4000E006E0150001604E020C3BA
:1025EC00B4F221C3B5F2B4C200F0B5C201F00DECE7
:1025FC0004F000C034F301C035F302C036F303C05D
:10260C0037F3000E046E000E056E480E066E850E36
:10261C00076E34C300F035C301F036C302F037C384
:10262C0003F058EC0BF000C030F301C031F302C0E2
:10263C0032F303C033F334C304F035C305F036C3AF
:10264C0006F037C307F0000E006E000E016E480E48
:10265C00026E850E036E58EC0BF030C304F031C3E0
:10266C0005F032C306F033C307F028EC0CF000C0C1
:10267C0030F301C031F302C032F303C033F3B6C2FE
:10268C0000F049EC0BF030C304F031C305F032C359
:10269C0006F033C307F06DEC03F0000E046E000E71
:1026AC00056E200E066E820E076E58EC0BF01F0E98
:1026BC00046E850E056E6B0E066E7B0E076E6DEC52
:1026CC0003F0000E046E000E056E000E066E7F0EFB
:1026DC00076E28EC0CF000C004F001C005F002C03D
:1026EC0006F003C007F0000E006E000E016E000E27
:1026FC00026E7F0E036E58EC0BF000C038F301C075
:10270C0039F302C03AF303C03BF338C322F339C3A5
:10271C0023F33AC324F33BC325F320C300F021C3B6
:10272C0001F00DEC04F000C034F301C035F302C02D
:10273C0036F303C037F3000E046E000E056E480E20
:10274C00066E850E076E34C300F035C301F036C338
:10275C0002F037C303F058EC0BF0000E046E000EC1
:10276C00056E000E066E800E076E28EC0CF000C095
:10277C0030F301C031F302C032F303C033F334C37E
:10278C0004F035C305F036C306F037C307F0000E6E
:10279C00006E000E016E480E026E850E036E58EC34
:1027AC000BF030C304F031C305F032C306F033C371
:1027BC0007F028EC0CF000C004F001C005F002C0DA
:1027CC0006F003C007F0000E006E000E016E000E46
:1027DC00026E810E036E58EC0BF000C026F301C0A4
:1027EC0027F302C028F303C029F3000E046E000E79
:1027FC00056E000E066E7F0E076E38C300F039C3EF
:10280C0001F03AC302F03BC303F0FFEC07F0000EFB
:10281C00D8B0010E006E005209E0000E0301226FC9
:10282C00000E236F000E246F7F0E256F000E046EBA
:10283C00000E056E000E066E7F0E076E26C300F0AE
:10284C0027C301F028C302F029C303F0FFEC07F003
:10285C00000ED8B0010E006E005209E00301000E0C
:10286C00266F000E276F000E286F7F0E296F1EC378
:10287C0000F01FC301F00DEC04F022C304F023C3DD
:10288C0005F024C306F025C307F06DEC03F026C356
:10289C0004F027C305F028C306F029C307F06DEC3C
:1028AC0003F062EC06F000C02AF301C02BF322C344
:1028BC0000F023C301F024C302F025C303F026C3A8
:1028CC0004F027C305F028C306F029C307F06DEC0C
:1028DC0003F0000E046E000E056E480E066E850E9B
:1028EC00076E6DEC03F000C02CF301C02DF302C099
:1028FC002EF303C02FF3000E046E000E056E480E6F
:10290C00066E850E076EFFEC07F0000ED8B0010EB8
:10291C00006E005209E00301000E2C6F000E2D6FAB
:10292C00460E2E6F850E2F6F00019B51000A49E158
:10293C00800E03012B19006E800E005C02E1640E08
:10294C002A5D1EE3050E2A25006E000E2B21016E5A
:10295C0000C02AF301C02BF300C043F301C044F3C1
:10296C00F30E456F020E466FCCEC06F0F5C2ECF29E
:10297C00F6C2EDF2F7C2EEF2570E0201EF6F20D065
:10298C002AC343F32BC344F3F30E0301456F020E2A
:10299C00466FCCEC06F00201F751200A03E0F7C2B7
:1029AC00ECF202D0300EEC6F2E0EED6FF851200AC7
:1029BC0003E0F8C2EEF202D0300EEE6F570EEF6F5E
:1029CC0032D0800E03012B19006E800E030A005CBE
:1029DC0002E1E70E2A5D14E22AC343F32BC344F34E
:1029EC00F30E456F020E466FCCEC06F0F6C2ECF21D
:1029FC00F7C2EDF2F8C2EEF2570E0201EF6F13D0F0
:102A0C002AC343F32BC344F3F30E0301456F020EA9
:102A1C00466FCCEC06F0F5C2ECF2F6C2EDF2F7C262
:102A2C00EEF2F8C2EFF20201E951040A010ED8A449
:102A3C00000E016EE951050A010ED8A4000E006EBD
:102A4C00015000120EE0040E0301436F400E446F60
:102A5C00EC0E456F020E466F040E476F84EC07F0C8
:102A6C002DD00201E951020A010ED8A4000E016E0C
:102A7C00E951030A010ED8A4000E006E0150001299
:102A8C000DE00301436B0D0E446FEC0E456F020E0F
:102A9C00466F040E476F84EC07F010D00201E95129
:102AAC00010A0CE10301436B0C0E446FEC0E456FF5
:102ABC00020E466F040E476F84EC07F02CC300F037
:102ACC002DC301F02EC302F02FC303F062EC06F00D
:102ADC0000C043F301C044F3F30E0301456F020E33
:102AEC00466FCCEC06F0F7C2ECF2F8C2EDF2020144
:102AFC00E951040A010ED8A4000E016EE951050A31
:102B0C00010ED8A4000E006E015000120EE0060E4D
:102B1C000301436F4C0E446FEC0E456F020E466F73
:102B2C00020E476F84EC07F02FD00201E951020A24
:102B3C00010ED8A4000E016EE951030A010ED8A4AF
:102B4C00000E006E015000120EE0010E0301436FE7
:102B5C000E0E446FEC0E456F020E466F020E476F61
:102B6C0084EC07F011D00201E951010A0DE1010ECC
:102B7C000301436F0D0E446FEC0E456F020E466F52
:0C2B8C00020E476F84EC07F004001200FA
:102B980003011EB102D08B9E01D08B8E1EB302D0D2
:102BA8008B9601D08B861EB502D08B9C01D08B8C66
:102BB8001EB702D08B9401D08B841EB902D08B9A99
:102BC80001D08B8A1EBB02D08B9201D08B821EBD96
:102BD80002D08B9801D08B88000E0201141902E1F3
:102BE8000E0E131902E1898E01D0899EEAC23CF3C8
:0A2BF800EBC23DF3D8EC08F0120028
:102C0200040077EC08F000C01EF301C01FF3000EB1
:102C120001BEFF0E0301206F216F66EC08F000C0B9
:102C220022F301C023F3000E01BEFF0E0301246F45
:102C3200256F2750010A1BE11EC300F01FC301F0DC
:102C4200030E046E000E056ED5EC0FF000C03CF3CF
:102C520001C03DF30CEC0FF00DEC04F000C026F3C4
:102C620001C027F302C028F303C029F31AD01EC300
:102C720000F01FC301F020C302F021C303F0030ED2
:102C8200046E000E056E066E076E3AEC07F03BEC22
:102C92000EF000C026F301C027F302C028F303C0E0
:102CA20029F3800E2519006E800E2119005C08E1BF
:102CB2002051245D05E11F51235D02E11E51225D79
:102CC20008E3E70E1E6F030E1F6F000E206F216FC9
:102CD20045D022511E25006E23511F21016E245121
:102CE2002021026E25512121036E640E046E000E16
:102CF200056E066E076E3AEC07F01EC304F01FC3A2
:102D020005F020C306F021C307F02251045E2351CF
:102D1200055A2451065A2551075A5DEC0EF000C09F
:102D22001EF301C01FF302C020F303C021F3800E83
:102D3200046E800E0318045C08E10250000805E1ED
:102D42000150030802E10050E70808E2E70E030120
:102D52001E6F030E1F6F000E206F216F26C000F042
:102D620049EC0BF026C304F027C305F028C306F094
:102D720029C307F06DEC03F0000E046E000E056E21
:102D82007A0E066E880E076E58EC0BF000C026F322
:102D920001C027F302C028F303C029F3F40E046E26
:102DA200FD0E056E340E066E7F0E076E58EC0BF0AC
:102DB20000C026F301C027F302C028F303C029F3A1
:102DC20000019B51010A25E126C300F027C301F04F
:102DD20028C302F029C303F026C304F027C305F079
:102DE20028C306F029C307F06DEC03F0000E046E51
:102DF200000E056E480E066E840E076E58EC0BF040
:102E020000C026F301C027F302C028F303C029F350
:102E120024D026C300F027C301F028C302F029C33F
:102E220003F026C304F027C305F028C306F029C324
:102E320007F06DEC03F0000E046E000E056E200E1E
:102E4200066E810E076E58EC0BF000C026F301C02F
:102E520027F302C028F303C029F326C300F027C3D7
:102E620001F028C302F029C303F0000E046E000E25
:102E7200056E000E066E7E0E076E28EC0CF000C08A
:102E820026F301C027F302C028F303C029F362EC42
:102E920006F000C0E7F201C0E8F2800E0118026EEF
:102EA200800E025C02E10A0E005C06E2010E0201E3
:102EB200E36F000EE46F1AD0800E03012119006E39
:102EC200800E005C08E1000E205D05E1000E1F5D32
:102ED20002E1640E1E5D06E2E70E0201E36F030EDD
:0E2EE200E46F04D01EC3E3F21FC3E4F212003B
:102EF00003011A6B1B6B010E1C6F000E1D6F640E1D
:102F00000201E55D0301176F000E0201E65903019E
:102F1000186F0201E76BE86B0400780E0301196F6C
:102F2000166B1951165D47E281B202D0068001D0BE
:102F3000069081B402D0D88001D0D89006B003D0DA
:102F400002E2069001D0068081B002D0D88001D084
:102F5000D89006B003D002E2069001D0068006A009
:102F600008D009EC11F00101DE51010A02E1DE6B2B
:102F7000CED247DE800E03011B19006E800E0201C7
:102F8000E819005C03E1E75103011A5D08E2E7C2BA
:102F90001AF3E8C21BF3E3C21CF3E4C21DF3100EE4
:102FA0000C6E940E0D6E03010D2EFDD70C2EFBD76B
:102FB0000000162BB6D704001AC3D7F11BC3D8F1F3
:102FC0001CC31EF31DC31FF351EC10F0800E030150
:102FD0001D19006E800E005C02E1640E1C5D16E39C
:102FE00035EC11F0DDC100F049EC0BF0D9C104F073
:102FF000DAC105F0DBC106F0DCC107F06DEC03F0CF
:1030000062EC06F000C0D5F101C0D6F1800E0301DC
:103010001D19006E800E0201E619005C03E1E55106
:1030200003011C5D000ED8B0010E006E00500101BE
:10303000DF15056E800E02010F19036E800E03016D
:103040001D19035C03E11C5102010E5D0201010E1A
:10305000D8B0000E036E0E5103011C5D016E02011B
:103060000F5103011D59026E800E1819006E800E5B
:103070000218005C02E10150175D010ED8B0000E8D
:10308000006E00500314046E800E1D19036E800E36
:1030900002010F19035C03E10E5103011C5D0301E2
:1030A000010ED8B0000E036E1C5102010E5D016EC0
:1030B00003011D5102010F59026E800E0301181900
:1030C000006E800E0218005C02E10150175D010ED7
:1030D000D8B0000E006E0350001600500410016EB0
:1030E00002010F51030A02E1E70E0E19010ED8A4E6
:1030F000000E006E015000120550001602E0010E95
:103100000D6F81B202D0068001D0069081B402D04A
:10311000D88001D0D89006B003D002E2069001D04A
:10312000068081B002D0D88001D0D89006B003D0FC
:1031300002E2069001D0068006A008D009EC11F04A
:103140000101DE51010A02E1DE6BE1D1D7C11EF3BC
:10315000D8C11FF31CC320F31DC321F34EEC11F0A3
:1031600081B202D0068001D0069081B402D0D8800E
:1031700001D0D89006B003D002E2069001D00680BC
:1031800081B002D0D88001D0D89006B003D002E23E
:10319000069001D0068006A008D009EC11F00101CC
:1031A000DE51010A02E1DE6BB2D1040002011051CE
:1031B000010AD8A4ACD1E951040A010ED8A4000E2A
:1031C000016EE951050A010ED8A4000E006E0150EF
:1031D0000012D8B4CAD0020E0301436F100E446F20
:1031E000040E456F020E466F080E476F84EC07F021
:1031F000030E0B6E080E0C6E770E0D6E0D2EFED7A5
:103200000C2EFCD70B2EFAD7020E0301436F100EC3
:10321000446FE90E456F010E466F080E476F84EC50
:1032200007F00B0E0B6E260E0C6E5D0E0D6E0D2E46
:10323000FED70C2EFCD70B2EFAD70000000004009E
:10324000020E0301436F100E446FE00E456F010E36
:10325000466F080E476F84EC07F0070E0B6E170ED3
:103260000C6E6A0E0D6E0D2EFED70C2EFCD70B2E9B
:10327000FAD700000400020E0301436F100E446FE2
:10328000FB0E456F010E466F080E476F84EC07F08A
:103290000B0E0B6E260E0C6E5D0E0D6E0D2EFED7F8
:1032A0000C2EFCD70B2EFAD7000000000400020EF3
:1032B0000301436F100E446FF20E456F010E466F0F
:1032C000080E476F84EC07F0070E0B6E170E0C6E9E
:1032D0006A0E0D6E0D2EFED70C2EFCD70B2EFAD7D4
:1032E00000000400020E0301436F100E446F150E20
:1032F000456F020E466F080E476F84EC07F00B0E09
:103300000B6E260E0C6E5D0E0D6E0D2EFED70C2E66
:10331000FCD70B2EFAD7000000000400020E0301B8
:10332000436F100E446F790E456F020E466F080E04
:10333000476F84EC07F0030E0B6E080E0C6E770ED1
:103340000D6E0D2EFED70C2EFCD70B2EFAD7020ECB
:103350000301436F100E446F550E456F020E466F0A
:10336000080E476F84EC07F0C6D00201E951000A4D
:10337000D8B4C1D0010E0301436F446B670E456F93
:10338000020E466F080E476F84EC07F0030E0B6EBB
:10339000080E0C6E770E0D6E0D2EFED70C2EFCD780
:1033A0000B2EFAD7010E0301436F446BA10E456F3C
:1033B000020E466F080E476F84EC07F00B0E0B6E83
:1033C000260E0C6E5D0E0D6E0D2EFED70C2EFCD74C
:1033D0000B2EFAD7000000000400010E0301436F1A
:1033E000446B960E456F020E466F080E476F84ECD5
:1033F00007F0070E0B6E170E0C6E6A0E0D6E0D2E7B
:10340000FED70C2EFCD70B2EFAD700000400010EBD
:103410000301436F446BAB0E456F020E466F080EFF
:10342000476F84EC07F00B0E0B6E260E0C6E5D0ED4
:103430000D6E0D2EFED70C2EFCD70B2EFAD70000EA
:1034400000000400010E0301436F446B700E456FD2
:10345000020E466F080E476F84EC07F0070E0B6EE6
:10346000170E0C6E6A0E0D6E0D2EFED70C2EFCD7AD
:103470000B2EFAD700000400010E0301436F446BCA
:103480005E0E456F020E466F080E476F84EC07F024
:103490000B0E0B6E260E0C6E5D0E0D6E0D2EFED7F6
:1034A0000C2EFCD70B2EFAD7000000000400010EF2
:1034B0000301436F446B8B0E456F020E466F080E7F
:1034C000476F84EC07F0030E0B6E080E0C6E770E40
:1034D0000D6E0D2EFED70C2EFCD70B2EFAD7010E3B
:1034E0000301436F446B820E456F020E466F080E58
:1034F000476F84EC07F00400100E0201946F270E52
:10350000956F1CC31EF31DC31FF351EC10F0120086
:10351000A6A202D00000FCD7A69C16C3A9FF17C321
:10352000A8FFA69EA684F2CF00F0F29E550EA76ECD
:10353000AA0EA76EA68200BE02D0F29E01D0F28E25
:0E354000A694A1B802D00000FCD7A1981200FA
:10354E000201126B146B03011E6BFDEC0FF014C223
:10355E001EF3CCEC15F0EAC23CF3EBC23DF3D8EC13
:04356E0008F012004F
:10357200030116B102D08B9001D08B80EAC23CF3DA
:0A358200EBC23DF3D8EC08F0120094
:10358C00E0DF010E0201426F010E0301166FEBDF4B
:10359C00050E02011303F3CF00F00050FF080301E6
:1035AC00166F176BAFDF050E02011303F3CF00F09C
:1035BC000050FE080301166F176BA4DF050E020105
:1035CC001303F3CF00F00050FD080301166F010E3A
:1035DC00176F98DF050E02011303F3CF00F00050B4
:1035EC00FC080301166F176B8DDF050E0201130328
:1035FC00F3CF00F00050FB080301166F176B82DF4E
:10360C0037EC09F00201456B898CE36BE46BE76BDB
:10361C00E86B0E6B0F6BE951040A010ED8A4000E77
:10362C00016EE951050A010ED8A4000E006E01507E
:10363C0000122BE0020E0301436F100E446F1E0E9E
:10364C00456F020E466F080E476F84EC07F00400BE
:10365C000D0E0B6E2D0E0C6ED70E0D6E0D2EFED7A5
:10366C000C2EFCD70B2EFAD700000000020E030123
:10367C00436F100E446F270E456F020E466F080EF7
:10368C00476F84EC07F004002FD00201E951000AC7
:10369C0029E0010E0301436F446B390E456F020E96
:1036AC00466F080E476F84EC07F004000D0E0B6E8E
:1036BC002D0E0C6ED70E0D6E0D2EFED70C2EFCD7CC
:1036CC000B2EFAD700000000010E0301436F446B70
:1036DC00300E456F020E466F080E476F84EC07F0F4
:1036EC00040002D08A8C8A8E100E0201946F270E71
:1036FC00956F100E536F270E546F78EC17F0120065
:10370C000134083609360450085E0550D8A0053C33
:10371C00095E003601360F0E0C6E01340836093680
:10372C00045000A006D0085E0550D8A0053C095EE8
:10373C0005D008260550D8B0053C092600360136C0
:10374C000C2EEBD700B006D0045008260550D8B08C
:08375C00053C092600001200E3
:103764000450000A08E10550000A05E1FF0E006E4E
:103774007F0E016E57D00D6A096A086A0150001065
:10378400D8B4000C015005180A6E0ABE0D1E0B6A4F
:1037940005AE05D0041E051E042AD8B4052A01AEC0
:1037A40005D0001E011E002AD8B4012A01500510BC
:1037B4000A6E0ABE10D0A8DF0BB020D00DAE000CEC
:1037C400001E011E002AD8B4012A081E091E082A58
:1037D400D8B4092A000C05AE0DD001BE07D00150A3
:1037E400096E0050086E016A006AE8D7016A006A2F
:1037F400002A000C011E001E0B2ADDD7082AD8B4AB
:10380400092A0450085CD8A4D9D70550095CD8A467
:10381400D5D7096A086A002AD8B4012A01AECED7DE
:063824000000FF0C120081
:10382A0001EC16F002015251640A10E0522B800E8C
:10383A00FB19006E800EE819005C02E1E751FA5D9F
:10384A0004E2E7C2FAF2E8C2FBF20ED0526BFAC205
:10385A001EF3FBC21FF3E3C220F3E4C221F34EECD2
:10386A0011F00201FA6BFB6B0201800EE819026E7D
:10387A00800EFF19025C02E1FE51E75D010ED8B02D
:10388A00000E026E800EFD19016E800EE819015CB1
:10389A0002E1E751FC5D010ED8B0000E016E800E08
:1038AA00006E800EFD19005C02E1FC510008010E59
:1038BA00D8B0000E006E015000160250001251E0FE
:1038CA00040001EC16F002015251640A10E0522B76
:1038DA00800EFB19006E800EE819005C02E1E751C8
:1038EA00FA5D04E2E7C2FAF2E8C2FBF20ED0526BCA
:1038FA00FAC21EF3FBC21FF3E3C220F3E4C221F3B0
:10390A004EEC11F00201FA6BFB6B810E03013C6F66
:10391A000F0E3D6F3E6B050E3F6F010E406FA0EC20
:10392A0008F0005203E0010E02014C6F02014C51F3
:10393A00010A010ED8A4000E0301156F810E3C6F17
:10394A000F0E3D6F3E6B050E3F6F406BA0EC08F00B
:10395A001551001605E015DE0201E36BE46B01D098
:04396A0083D71200ED
:10396E00030E0301146F0201146B03011E6BCCECEA
:10397E0015F014C3A0F252DF000E0201E41902E1A9
:10398E00000EE31901E190D0140E046E000E056EC8
:10399E00E3C200F0E4C201F0DEDE00500201E325D6
:1039AE000301126F01500201E4210301136F14C3CE
:1039BE0011F3030111511F08D8A072D01151020149
:1039CE004403F3CF1EF3CCEC15F028DF000E0201FA
:1039DE00E41902E1000EE31901E166D0800EE4194C
:1039EE00006E800E03011319005C03E112510201F7
:1039FE00E35D54E2140E046E000E056EE3C200F099
:103A0E00E4C201F0A8DE00500201E3250301126FAB
:103A1E0001500201E4210301136F1151020144030D
:103A2E00F3CF14F214C3A0F2800EE419006E800ED0
:103A3E00005C02E1780EE35D01E232D00301145125
:103A4E001125026E02C011F302014651000A010E49
:103A5E00D8A4000E016E0250090A010ED8A4000E61
:103A6E00006E0150001604E0080E0301116F15D010
:103A7E0002014651000A010ED8A4000E016E030188
:103A8E001151110A010ED8A4000E006E015000163D
:103A9E0004E0100E116F040E146F01D001D089D7FF
:0A3AAE0014C21EF3CCEC15F0120058
:103AB800030E0301106F0C6B10C3AAF2030E0D6FF7
:103AC800140E046E000E056EE3C200F0E4C201F0AD
:103AD80045DE00500201E32503010E6F015002018B
:103AE800E42103010F6F0B6B03010B511F08D8A0D2
:103AF80077D00B5102019F03F3CF1EF3FDEC0FF0BB
:103B080032DF8FDE000E0201E41902E1000EE31934
:103B180001E17CD0800EE419006E800E03010F19BC
:103B2800005C03E10E510201E35D58E2140E046EDD
:103B3800000E056EE3C200F0E4C201F00FDE005093
:103B48000201E32503010E6F01500201E421030184
:103B58000F6F0B5102019F03F3CF12F214C20CF343
:103B680010C3AAF2A0C20DF3800EE419006E800EF5
:103B7800005C02E1780EE35D01E232D003011051EE
:103B88000B25026E02C00BF302014351000A010E1D
:103B9800D8A4000E016E0250090A010ED8A4000E26
:103BA800006E0150001604E0080E03010B6F15D0DB
:103BB80002014351000A010ED8A4000E016E030150
:103BC8000B51110A010ED8A4000E006E0150001608
:103BD80004E0100E0B6F040E106F01D001D084D7D3
:103BE8000CC314F212C21EF3FDEC0FF014C21EF344
:103BF800CCEC15F00DC3A0F2340E0C6EF10E0D6E68
:0E3C08000D2EFED70C2EFCD70000000012007F
:103C16000201A0514403F3CF00F000C00BF30050A3
:103C26001425046E04C00DF3050E026E44C200F0A6
:103C3600000E016E025005E0003600900136FF0FBF
:103C4600FAD7010E005C026E000E0158036E800E5C
:103C56000318006E800E005C02E10450025C0DE267
:103C6600050E006E44C20DF3005005E003010D374A
:103C76000D91FF0FFAD703010D070201145103013D
:103C86000B5D06E20B510201145D03010E6F01D0BC
:103C96000E6B0EC314F20EC31EF3CCEC15F0C2DD90
:103CA600000E0201E41902E1000EE31901E170D0F1
:103CB600E3C20FF3E4C210F3445103010E250C6F67
:103CC6000C510D5D61E30CC31EF3CCEC15F0AADDBF
:103CD600000E0201E41902E1000EE31901E158D0D9
:103CE600800EE419006E800E03011019005C03E1DA
:103CF6000F510201E35D0BE3340E0C6EF10E0D6EF7
:103D06000D2EFED70C2EFCD7000000008BDD800E9A
:103D16000201E419006E800E03011019005C03E134
:103D26000F510201E35D0BE3340E0C6EF10E0D6EC6
:103D36000D2EFED70C2EFCD70000000073DD800E82
:103D46000201E419006E800E03011019005C03E104
:103D56000F510201E35D12E20201E3C20FF3E4C276
:103D660010F30CC314F2800EE419006E800E005C92
:103D760002E1780EE35D01E207D001D005D0020131
:103D8600445103010C279CD714C21EF3CCEC15F04A
:023D9600120019
:103D98000201AA519F03F3CF00F000C00BF30050BB
:103DA8001225046E04C00DF3050E026E9FC200F0CA
:103DB800000E016E025005E0003600900136FF0F3C
:103DC800FAD7010E005C026E000E0158036E800ED9
:103DD8000318006E800E005C02E10450025C0DE2E4
:103DE800050E006E9FC20DF3005005E003010D376C
:103DF8000D91FF0FFAD703010D07020112510301BC
:103E08000B5D06E20B510201125D03010E6F01D03A
:103E18000E6B0EC312F20EC31EF3FDEC0FF001DDA4
:103E2800000E0201E41902E1000EE31901E170D06D
:103E3800E3C20FF3E4C210F39F5103010E250C6F88
:103E48000C510D5D61E30CC31EF3FDEC0FF0E9DCD2
:103E5800000E0201E41902E1000EE31901E158D055
:103E6800800EE419006E800E03011019005C03E156
:103E78000F510201E35D0BE3340E0C6EF10E0D6E73
:103E88000D2EFED70C2EFCD700000000CADC800ED9
:103E98000201E419006E800E03011019005C03E1B1
:103EA8000F510201E35D0BE3340E0C6EF10E0D6E43
:103EB8000D2EFED70C2EFCD700000000B2DC800EC1
:103EC8000201E419006E800E03011019005C03E181
:103ED8000F510201E35D12E20201E3C20FF3E4C2F3
:103EE80010F30CC312F2800EE419006E800E005C11
:103EF80002E1780EE35D01E207D001D005D00201AE
:103F08009F5103010C279CD712C21EF3FDEC0FF042
:023F1800120095
:103F1A00E3C205F3E4C206F3CADD000E0201E419A6
:103F2A0002E1000EE31903E1A7EC1AF018D178DCDC
:103F3A00800E0201E419006E800E005C02E1780E28
:103F4A00E35D01E20CD123DF000E0201E41902E174
:103F5A00000EE31903E1A7EC1AF001D161DC800E2F
:103F6A000201E419006E800E005C02E1780EE35D46
:103F7A0001E2F5D04BDE000E0201E41902E1000E67
:103F8A00E31903E1A7EC1AF0EAD04ADC800E020139
:103F9A00E419006E800E005C02E1780EE35D01E236
:103FAA00DED0800EE419016E800E015C02E1C80EBB
:103FBA00E35D010ED8B0000E016E800EE419006EAA
:103FCA00800E03010619005C03E105510201E35D5D
:103FDA000201010ED8B0000E006E00500114036EEB
:103FEA00E3510301055D016E0201E4510301065923
:103FFA00026E800E006E800E0218005C02E1015013
:10400A006408010ED8B0000E006E0350001601E0DD
:10401A00A6D0E3C205F3E4C206F312C207F3000E08
:10402A00086F14C209F3000E0A6F02014251010A15
:10403A0002E1426B02D0010E426FA7EC1AF042C2B3
:10404A0016F3B9EC1AF0020E0B6E040E0C6EBA0ED1
:10405A000D6E0D2EFED70C2EFCD70B2EFAD70000B4
:10406A0015EC1CF0800E0201E419006E800E005C53
:10407A0002E1780EE35D01E272D019DD000E020161
:10408A00E41902E1000EE31903E1A7EC1AF067D084
:10409A0015EC1CF0800E0201E419006E800E005C23
:1040AA0002E1780EE35D01E25AD071DE000E0201F0
:1040BA00E41902E1000EE31903E1A7EC1AF04FD06C
:1040CA0015EC1CF0800E0201E419006E800E005CF3
:1040DA0002E1780EE35D01E242D098DD000E0201B2
:1040EA00E41902E1000EE31903E1A7EC1AF037D054
:1040FA0015EC1CF0800E0201E419006E800E005CC3
:10410A0002E1780EE35D01E22AD0800E030106196E
:10411A00006E800E0201E419005C03E1E351030121
:10412A00055D1CE202014251010A02E1426B02D022
:10413A00010E426F42C216F3B9EC1AF007C312F22B
:10414A0009C314F207C31EF3FDEC0FF014C21EF3E9
:10415A00CCEC15F005C3E3F206C3E4F20400120046
:10416A0004000201526BFA6BFB6B4C6B15EC1CF0F2
:10417A00800E0201E419006E800E005C02E16E0EF0
:10418A00E35D01E2B7D0A7EC1AF00001B951000AC9
:10419A0002E137EC09F0020E0B6E040E0C6EBA0E39
:1041AA000D6E0D2EFED70C2EFCD70B2EFAD7000063
:1041BA0015EC1CF0E3C2B4F2E4C2B5F2800E0201BF
:1041CA00E419006E800E005C02E16E0EE35D01E20E
:1041DA0091D0800E016E800EB819015C02E1B751D0
:1041EA006E08010ED8B0000E016E800EB819006E6E
:1041FA00800EE419005C02E1E351B75D010ED8B00C
:10420A00000E006E0150001601E074D081DE000E2F
:10421A000201E41902E1000EE31903E1A7EC1AF026
:10422A0069D0800E0201E419006E800E005C02E182
:10423A00780EE35D01E25ED000019851050A010E95
:10424A00D8A4000E016E9951050A010ED8A4000ED9
:10425A00006E0150001601E04DD09951050806E2A2
:10426A009FC2AAF2010E02019F6F91DD800E020128
:10427A00E419006E800E005C02E1780EE35D01E253
:10428A0039D000019851050806E244C2A0F2010E95
:10429A000201446FBBDC00019951050A04E1010ED9
:1042AA0002019F6F0FD000019951060A04E1020E24
:1042BA0002019F6F07D000019951070A03E1040E1A
:1042CA0002019F6F00019851050A04E1010E0201E3
:1042DA00446F0FD000019851060A04E1020E020150
:1042EA00446F07D000019851070A03E1040E020146
:0642FA00446F04001200F5
:104300000301036B0201DE51000A31E0938E016A62
:10431000015007081AE3030103370391FE0E031748
:10432000060E0D6E0D2EFED70000938C060E0D6E40
:104330000D2EFED7000081BE032B939C060E0D6E42
:104340000D2EFED70000012AE3D7938E060E0D6EC8
:104350000D2EFED70000938C060E0D6E0D2EFED78F
:104360000000939C060E0D6E0D2EFED7000003C3B9
:0443700000F0120047
:10437400A69C03C3A9FFA69EA680A8CF00F01200A6
:1043840003C300F00032009E0032009E0032009E03
:104394000032009E0A0E0002F3CF01F00F0E03015B
:0A43A4000315006E01500026120000
:1043AE000EEC00F0D7C25CF32BEC00F003015C6B5B
:1043BE002BEC00F0AE0E03015C6F2BEC00F0020153
:1043CE00DE51020A010ED8A4000E016EDE51030A60
:1043DE00010ED8A4000E006E01500012D8B497D072
:1043EE00D50E03015C6F2BEC00F0800E03015C6FA9
:1043FE002BEC00F0A80E03015C6F2BEC00F03F0ECF
:10440E0003015C6F2BEC00F0D30E03015C6F2BEC01
:10441E0000F00201DE51020A05E1DFC25CF32BEC73
:10442E0000F007D00201DF511F0F03015C6F2BEC70
:10443E0000F0400E03015C6F2BEC00F08D0E0301BB
:10444E005C6F2BEC00F0140E03015C6F2BEC00F094
:10445E00810E03015C6F2BEC00F0B40E03015C6F58
:10446E002BEC00F0D90E03015C6F2BEC00F0220E4A
:10447E0003015C6F2BEC00F0200E03015C6F2BEC44
:10448E0000F0020E03015C6F2BEC00F0210E030115
:10449E005C6F2BEC00F003015C6B2BEC00F07F0EDD
:1044AE0003015C6F2BEC00F02E0E03015C6F2BEC06
:1044BE0000F00201DE51020A0BE1A00E03015C6F57
:1044CE002BEC00F0C00E03015C6F2BEC00F00AD059
:1044DE00A10E03015C6F2BEC00F0C80E03015C6FA4
:1044EE002BEC00F0DA0E03015C6F2BEC00F0020EE9
:1044FE0003015C6F2BEC00F0DB0E03015C6F2BEC09
:10450E0000F0400E03015C6F2BEC00F08AD0D50E4C
:10451E0003015C6F2BEC00F0800E03015C6F2BEC43
:10452E0000F0A80E03015C6F2BEC00F03F0E0301B0
:10453E005C6F2BEC00F0D30E03015C6F2BEC00F0E4
:10454E00DFC25CF32BEC00F0400E03015C6F2BEC32
:10455E0000F08D0E03015C6F2BEC00F0140E0301C6
:10456E005C6F2BEC00F0810E03015C6F2BEC00F006
:10457E00FF0E03015C6F2BEC00F0D90E03015C6F94
:10458E002BEC00F0F10E03015C6F2BEC00F0200E13
:10459E0003015C6F2BEC00F0020E03015C6F2BEC41
:1045AE0000F0210E03015C6F2BEC00F003015C6B3D
:1045BE002BEC00F07F0E03015C6F2BEC00F02E0E47
:1045CE0003015C6F2BEC00F00201DE51040A0BE1DB
:1045DE00A00E03015C6F2BEC00F0C00E03015C6FAC
:1045EE002BEC00F00AD0A10E03015C6F2BEC00F057
:1045FE00C80E03015C6F2BEC00F0DA0E03015C6F4A
:10460E002BEC00F0120E03015C6F2BEC00F0DB0EB6
:10461E0003015C6F2BEC00F0400E03015C6F2BEC82
:10462E0000F0A40E03015C6F2BEC00F0A60E03014C
:10463E005C6F2BEC00F066EC00F0030E0B6E080EB8
:10464E000C6E770E0D6E0D2EFED70C2EFCD70B2E8C
:10465E00FAD70EEC00F0D7C25CF32BEC00F0400E54
:10466E0003015C6F2BEC00F00201DE51020A010E19
:10467E00D8A4000E016EDE51030A010ED8A4000E5E
:10468E00006E0150001219E00301046B045103087F
:10469E0013E304C357F3586B7DEC00F00301036B77
:1046AE000301800E035D05E2032B5C6B2BEC00F027
:1046BE00F7D70301042BEAD718D00301046B04517A
:1046CE00070813E304C357F3586B7DEC00F00301A6
:1046DE00036B0301800E035D05E2032B5C6B2BEC79
:1046EE0000F0F7D70301042BEAD766EC00F0AF0E0B
:0A46FE0003013C6F16EC0CF01200F3
:10470800086A080E0C6E003408360450085ED8B0EB
:0E47180002D00826D89000360C2EF5D71200DD
:10472600D80E0201D96F0E0EDA6F430EDB6F030E41
:10473600DC6FC26A01010C1D006E0050C116070E27
:08474600C012C08EC2801200F7
:10474E0004000201E951040A010ED8A4000E016E04
:10475E00E951050A010ED8A4000E006E0150001298
:10476E000EE0020E0301436F400E446FD70E456FED
:10477E00000E466F040E476F84EC07F014D0020152
:10478E00E951000A0EE0010E0301436F040E446F5F
:10479E00D20E456F000E466F040E476F84EC07F085
:1047AE0002D08A8C8A8EDADC0201E951000A1BE102
:1047BE00800E006E800EE419005C02E1E351960853
:1047CE0003E38A9C8A8E0ED0800E006E800EE41952
:1047DE00005C02E1E351FA0803E3819C819E02D062
:1047EE00818C819E12D04551000A010ED8A4000E74
:1047FE00016E0001B951000A010ED8A4000E006E20
:10480E000150001202E037EC09F0050E020113030D
:10481E00F3CF00F00050FF080301166F14C217F318
:10482E0088EC1AF0050E02011303F3CF00F00050CE
:10483E00FE080301166F12C217F388EC1AF0050E6C
:10484E0002011303F3CF00F00050FD080301166FB1
:10485E0042C217F388EC1AF0050E02011303F3CFD0
:10486E0000F00050FC080301166F000E046E010EDE
:10487E00056EB4C200F0B5C201F0B2EC1BF000C080
:10488E0017F388EC1AF0050E02011303F3CF00F0B4
:10489E000050FB080301166F000E046E010E056E2C
:1048AE00B4C200F0B5C201F0B2EC1BF008C000F0CB
:1048BE0009C001F000C017F388EC1AF0100E0201C7
:1048CE00946F270E956F100E536F270E546F78EC62
:1048DE0017F0E3C20EF2E4C20FF2898C040012004C
:1048EE0004000201E951040A010ED8A4000E016E63
:1048FE00E951050A010ED8A4000E006E01500012F7
:10490E00D8B4D2D000018D51000AD8A485D00301AD
:10491E00436B160E446FC00E456F000E466F070EAA
:10492E00476F84EC07F0020E0301436F060E446FCF
:10493E005B0E456F010E466F090E476F84EC07F054
:10494E00040E0301436F100E446F520E456F010E9D
:10495E00466F080E476F84EC07F0060E0301436F97
:10496E00040E446F470E456F010E466F0A0E476FD9
:10497E0084EC07F004000D0E0B6E2D0E0C6ED70E90
:10498E000D6E0D2EFED70C2EFCD70B2EFAD7000077
:10499E00000004000B0E0B6E260E0C6E5D0E0D6EDF
:1049AE000D2EFED70C2EFCD70B2EFAD700000000D2
:1049BE0004000301436B100E446F650E456F010E2C
:1049CE00466F080E476F84EC07F0020E0301436F2B
:1049DE00040E446F820E456F010E466F0A0E476F2E
:1049EE0084EC07F0040E0301436F100E446F790E32
:1049FE00456F010E466F080E476F84EC07F0060EEA
:104A0E000301436F040E446F6E0E456F010E466F29
:104A1E000A0E476F84EC07F0040E0B6E0C0E0C6E34
:104A2E00330E0D6E0D2EFED70C2EFCD70B2EFAD795
:104A3E000000000000019B51010A0DE10301436BD0
:104A4E00100E446F210E456F010E466F080E476F14
:104A5E0084EC07F00CD00301436B100E446F180E5C
:104A6E00456F010E466F080E476F84EC07F0020E7D
:104A7E000301436F100E446F0F0E456F010E466F0C
:104A8E00080E476F84EC07F00101DF530CE00301C1
:104A9E00436B700E446F2A0E456F010E466F010E6A
:104AAE00476F84EC07F0D5D00201E951000AD8B463
:104ABE00D0D000018D51000AD8A487D00301436BDA
:104ACE00040E446F3F0E456F010E466F070E476F83
:104ADE0084EC07F0010E0301436F030E446F350E95
:104AEE00456F010E466F090E476F84EC07F0040008
:104AFE000F0E0B6E350E0C6E510E0D6E0D2EFED76B
:104B0E000C2EFCD70B2EFAD704000B0E0B6E260EB6
:104B1E000C6E5D0E0D6E0D2EFED70C2EFCD70B2ED1
:104B2E00FAD70000000004000301436B040E446F2B
:104B3E002C0E456F010E466F080E476F84EC07F082
:104B4E00010E0301436F030E446F8D0E456F010E70
:104B5E00466F0A0E476F84EC07F004000D0E0B6EC5
:104B6E002D0E0C6ED70E0D6E0D2EFED70C2EFCD705
:104B7E000B2EFAD70000000004000B0E0B6E260E53
:104B8E000C6E5D0E0D6E0D2EFED70C2EFCD70B2E61
:104B9E00FAD70000000004000301436B040E446FBB
:104BAE00B70E456F010E466F080E476F84EC07F087
:104BBE00010E0301436F030E446FAC0E456F010EE1
:104BCE00466F0A0E476F84EC07F0040E0B6E0C0E48
:104BDE000C6E330E0D6E0D2EFED70C2EFCD70B2E3B
:104BEE00FAD70000000000019B51010A0CE10301FD
:104BFE00436B446BA30E456F010E466F080E476F55
:104C0E0084EC07F00BD00301436B446BC00E456F71
:104C1E00010E466F080E476F84EC07F0010E03017C
:104C2E00436F446BCC0E456F010E466F080E476FF7
:104C3E0084EC07F00101DF530CE00301436B080E17
:104C4E00446FCA0E456F010E466F010E476F84EC1E
:0A4C5E0007F0040037EC09F0120023
:104C6800070E0301036FBAEC21F000C0DFF2080E53
:104C7800036FBAEC21F000C0E2F20201DE51010834
:104C880003E2D7EC21F063D0DE51010A60E1010EA6
:104C9800E16FE06B030E03014D6F90EC01F01A0E0B
:104CA8000C6EF80E0D6E0D2EFED70C2EFCD70000E4
:104CB800030E03014D6F90EC01F0060E0C6E300EE2
:104CC8000D6E0D2EFED70C2EFCD70000030E03012F
:104CD8004D6F90EC01F0020E03014D6F90EC01F066
:104CE800020E03014D6F90EC01F0080E03014D6FA9
:104CF80090EC01F003014D6B90EC01F0080E0301FC
:104D08004D6F90EC01F003014D6B90EC01F0010E3A
:104D180003014D6F90EC01F01A0E0C6EF80E0D6E3B
:104D28000D2EFED70C2EFCD7000003014D6B90EC26
:104D380001F0060E03014D6F90EC01F003014D6B7D
:104D480090EC01F00C0E03014D6F90EC01F0120095
:104D58000900F5CFE6FF0006FBE10106F9E11200C4
:104D68000301036BBAEC21F000C0D7F2010E036F08
:104D7800BAEC21F000C0DEF20050000A05E1939C75
:104D8800939E8A8C8A8E04D0938C938E8A9C8A9E5A
:024D9800120007
:104D9A000400010E0301036FBAEC21F000C0E9F22E
:104DAA00020E036FBAEC21F00050010A03E1010E72
:104DBA000101DF6F030E0301036FBAEC21F000C09B
:104DCA0003F3C2EC21F000C0EAF2000E0201EB6F1D
:104DDA00040E0301036FBAEC21F000C003F3C2EC26
:104DEA0021F00A0E0002F3CFE5F2F4CFE6F2050E47
:104DFA00036FBAEC21F000C003F3C2EC21F00A0EF3
:104E0A000002F3CFFEF2F4CFFFF2060E036FBAEC04
:104E1A0021F000C003F3C2EC21F00A0E0002F3CF26
:104E2A00FCF2F4CFFDF2090E036FBAEC21F000C0D8
:104E3A0003F3C2EC21F00A0E0002F3CFB7F2F4CF6B
:104E4A00B8F20A0E036FBAEC21F000C099F00B0E0B
:104E5A00036FBAEC21F000C043F20C0E036FBAECF8
:104E6A0021F000C098F00D0E036FBAEC21F000C0DB
:104E7A0046F20E0E036FBAEC21F000C027F00F0EB7
:104E8A00036FBAEC21F000C011F20400100E036F98
:104E9A00BAEC21F000C003F3C2EC21F0640E000268
:104EAA00F3CF01F3F4CF02F3110E036FBAEC21F042
:104EBA0000C003F3C2EC21F0005001250201BD6FCE
:104ECA00000E030102210201BE6F120E0301036FDD
:104EDA00BAEC21F000C003F3C2EC21F0640E000228
:104EEA00F3CF01F3F4CF02F3130E036FBAEC21F000
:104EFA0000C003F3C2EC21F0005001250201BB6F90
:104F0A00000E030102210201BC6F140E0301036F9C
:104F1A00BAEC21F000C003F3C2EC21F0640E0002E7
:104F2A00F3CF01F3F4CF02F3150E036FBAEC21F0BD
:104F3A0000C003F3C2EC21F0005001250201C16F49
:104F4A00000E030102210201C26F160E0301036F54
:104F5A00BAEC21F000C003F3C2EC21F0640E0002A7
:104F6A00F3CF01F3F4CF02F3170E036FBAEC21F07B
:104F7A0000C003F3C2EC21F0005001250201C76F03
:104F8A00000E030102210201C86F180E0301036F0C
:104F9A00BAEC21F000C003F3C2EC21F0640E000267
:104FAA00F3CF01F3F4CF02F3190E036FBAEC21F039
:104FBA0000C003F3C2EC21F0005001250201C56FC5
:104FCA00000E030102210201C66F1A0E0301036FCC
:104FDA00BAEC21F000C003F3C2EC21F0640E000227
:104FEA00F3CF01F3F4CF02F31B0E036FBAEC21F0F7
:104FFA0000C003F3C2EC21F0005001250201C36F87
:10500A00000E030102210201C46F1C0E0301036F8B
:10501A00BAEC21F000C003F3C2EC21F0640E0002E6
:10502A00F3CF01F3F4CF02F31D0E036FBAEC21F0B4
:10503A0000C003F3C2EC21F0005001250201B96F50
:10504A00000E030102210201BA6F200E0301036F51
:10505A00BAEC21F000C003F3C2EC21F0640E0002A6
:10506A00F3CF01F3F4CF02F3210E036FBAEC21F070
:10507A0000C003F3C2EC21F0005001250201C96F00
:10508A00000E030102210201CA6F220E0301036FFF
:10509A00BAEC21F000C003F3C2EC21F0640E000266
:1050AA00F3CF01F3F4CF02F3230E036FBAEC21F02E
:1050BA0000C003F3C2EC21F0005001250201CF6FBA
:1050CA00000E030102210201D06F240E0301036FB7
:1050DA00BAEC21F000C003F3C2EC21F0640E000226
:1050EA00F3CF01F3F4CF02F3250E036FBAEC21F0EC
:1050FA0000C003F3C2EC21F0005001250201CD6F7C
:10510A00000E030102210201CE6F260E0301036F76
:10511A00BAEC21F000C003F3C2EC21F0640E0002E5
:10512A00F3CF01F3F4CF02F3270E036FBAEC21F0A9
:10513A0000C003F3C2EC21F0005001250201CB6F3D
:10514A00000E030102210201CC6F280E0301036F36
:10515A00BAEC21F000C003F3C2EC21F0640E0002A5
:10516A00F3CF01F3F4CF02F3290E036FBAEC21F067
:10517A0000C003F3C2EC21F0005001250201D16FF7
:10518A00000E030102210201D26F2A0E0301036FEE
:10519A00BAEC21F000C003F3C2EC21F0640E000265
:1051AA00F3CF01F3F4CF02F32B0E036FBAEC21F025
:1051BA0000C003F3C2EC21F0005001250201D56FB3
:1051CA00000E030102210201D66F2C0E0301036FA8
:1051DA00BAEC21F000C003F3C2EC21F0640E000225
:1051EA00F3CF01F3F4CF02F32D0E036FBAEC21F0E3
:1051FA0000C003F3C2EC21F0005001250201D36F75
:10520A00000E030102210201D46F300E0301036F65
:10521A00BAEC21F000C09BF0310E036FBAEC21F01A
:10522A0000C003F3C2EC21F000C026F0320E036F77
:10523A00BAEC21F000C003F3C2EC21F000C0DDF1AA
:10524A00330E036FBAEC21F000C0B9F0340E036FCD
:10525A00BAEC21F000C003F3C2EC21F000C0B6F2B0
:04526A00040012002A
:10526E00070EB46E600ED36E9B8C806A816A826A62
:10527E00400E896E8A6A8B6A030E926E070E936ECB
:10528E00946A93EC23F00D0EC16EF19EF29E120005
:10529E00810E03013C6F0F0E3D6F3E6B320E3F6F62
:1052AE00406BA0EC08F002010D51001261E035ECEC
:1052BE0011F0DDC100F049EC0BF0D9C104F0DAC1F8
:1052CE0005F0DBC106F0DCC107F06DEC03F062EC1B
:1052DE0006F000C0D5F101C0D6F1060E0B6E130E0E
:1052EE000C6EAD0E0D6E0D2EFED70C2EFCD70B2EAA
:1052FE00FAD70000000004000D51000A010ED8A4D8
:10530E00000E016E81B002D0D89001D0D880006A14
:10531E00D8B0002A0150001605E0C6EC1AF00001C4
:10532E00976B26D0899C060E0B6E130E0C6EAD0E6F
:10533E000D6E0D2EFED70C2EFCD70B2EFAD70000BD
:10534E000000A7EC23F00001976B810E03013C6F68
:10535E000F0E3D6F3E6B320E3F6F406BA0EC08F0B0
:10536E00005204E078EC17F00400EFD702010D6B49
:10537E00810E03013C6F0F0E3D6F020E3E6F320E1B
:10538E003F6F406BA0EC08F00052D8B4F7D035EC6C
:10539E0011F0DDC100F049EC0BF0D9C104F0DAC117
:1053AE0005F0DBC106F0DCC107F06DEC03F062EC3A
:1053BE0006F000C0D5F101C0D6F1040000019751EE
:1053CE00000A24E1010E976F14C2C9F112C29AF1BC
:1053DE0042C299F10201146B126B010E426F03016E
:1053EE001E6BFDEC0FF014C21EF3CCEC15F042C296
:1053FE0016F3B9EC1AF002014551000A02E137EC3E
:10540E0009F0DFC198F10101DF6B1CD00001976B31
:10541E00C9C114F29AC112F299C142F2C9C11EF366
:10542E00CCEC15F012C21EF3FDEC0FF042C216F3D7
:10543E00B9EC1AF002014551000A02E137EC09F00D
:10544E0098C1DFF10201E951040A010ED8A4000E41
:10545E00016EE951050A010ED8A4000E006E01502E
:10546E0000123BE000019753010ED8A4000E006E0F
:10547E000101DF5100160DE00301436B700E446F06
:10548E009B0E456F010E466F010E476F84EC07F0C1
:10549E0023D00101DF53010ED8A4000E006E0001CF
:1054AE00975100160DE00301436B700E446FA10E71
:1054BE00456F010E466F010E476F84EC07F00CD05E
:1054CE000301436B700E446F9F0E456F010E466FC6
:1054DE00010E476F84EC07F03ED00201E951000A3D
:1054EE003AE000019753010ED8A4000E006E0101A0
:1054FE00DF5100160DE00301436B080E446F9D0E45
:10550E00456F010E466F010E476F84EC07F023D0F6
:10551E000101DF53010ED8A4000E006E0001975159
:10552E0000160DE00301436B080E446F0D0E456F20
:10553E00010E466F010E476F84EC07F00CD003018D
:10554E00436B080E446F000E456F010E466F010E41
:10555E00476F84EC07F00400810E03013C6F0F0EC1
:10556E003D6F020E3E6F320E3F6F406BA0EC08F0A7
:10557E00005204E078EC17F00400EED7810E030120
:10558E003C6F0F0E3D6F010E3E6F320E3F6F406B44
:10559E00A0EC08F000019751000A010ED8A4000EED
:1055AE00016E01500016D8B4C2D035EC11F0DDC139
:1055BE0000F049EC0BF0D9C104F0DAC105F0DBC103
:1055CE0006F0DCC107F06DEC03F062EC06F000C0F3
:1055DE00D5F101C0D6F104000101DF51000A03E14B
:1055EE00010EDF6F01D0DF6B020E0301166FDFC1FC
:1055FE0017F388EC1AF00201E951040A010ED8A43F
:10560E00000E016EE951050A010ED8A4000E006EBF
:10561E00015000123BE000019753010ED8A4000E7A
:10562E00006E0101DF5100160DE00301436B700E99
:10563E00446FFE0E456F000E466F010E476F84ECF1
:10564E0007F023D00101DF53010ED8A4000E006E27
:10565E000001975100160DE00301436B700E446F6D
:10566E00FC0E456F000E466F010E476F84EC07F07F
:10567E000CD00301436B700E446F020E456F010E8A
:10568E00466F010E476F84EC07F03ED00201E951E0
:10569E00000A3AE000019753010ED8A4000E006EE6
:1056AE000101DF5100160DE00301436B080E446F3C
:1056BE00080E456F010E466F010E476F84EC07F022
:1056CE0023D00101DF53010ED8A4000E006E00019D
:1056DE00975100160DE00301436B080E446F060E42
:1056EE00456F010E466F010E476F84EC07F00CD02C
:1056FE000301436B080E446F040E456F010E466F97
:10570E00010E476F84EC07F00400810E03013C6F1D
:10571E000F0E3D6F010E3E6F320E3F6F406BA0ECD1
:10572E0008F0005204E078EC17F00400EED71200F7
:10573E000201E951040A010ED8A4000E016EE951CE
:10574E00050A010ED8A4000E006E015000120DE0E5
:10575E000301436B0A0E446FC80E456F000E466F71
:10576E00090E476F84EC07F010D00201E951000AD0
:10577E000CE00301436B030E446FDC0E456F000E0D
:10578E00466F090E476F84EC07F004000B0E0B6E8C
:10579E00260E0C6E5D0E0D6E0D2EFED70C2EFCD74A
:1057AE000B2EFAD70000000004000B0E0B6E260E17
:1057BE000C6E5D0E0D6E0D2EFED70C2EFCD70B2E25
:1057CE00FAD70000000004000B0E0B6E260E0C6EB6
:1057DE005D0E0D6E0D2EFED70C2EFCD70B2EFAD7AE
:1057EE000000000004000B0E0B6E260E0C6E5D0EFC
:1057FE000D6E0D2EFED70C2EFCD70B2EFAD70000F9
:10580E00000004000201E951040A010ED8A4000EA2
:10581E00016EE951050A010ED8A4000E006E01506A
:10582E0000120DE00301436B0A0E446FF20E456F3A
:10583E00000E466F090E476F84EC07F010D0020180
:10584E00E951000A0CE00301436B030E446FE80EAE
:10585E00456F000E466F090E476F84EC07F0A7ECFC
:10586E001AF0010E0201426F010E0301166FB9EC20
:10587E001AF0050E02011303F3CF00F00050FF08DB
:10588E000301166F14C217F388EC1AF0050E02010D
:10589E001303F3CF00F00050FE080301166F12C27F
:1058AE0017F388EC1AF0050E02011303F3CF00F084
:1058BE000050FD080301166F42C217F388EC1AF070
:1058CE000201E951040A010ED8A4000E016EE9513D
:1058DE00050A010ED8A4000E006E015000120DE054
:1058EE000301436B700E446FE60E456F000E466F5C
:1058FE00010E476F84EC07F010D00201E951000A47
:10590E000CE00301436B080E446F0A0E456F010E47
:10591E00466F010E476F84EC07F0010E00018D6F8C
:06592E0077EC24F01200EA
:105934000201DE51010806E2AE0E03013C6F16ECD3
:105944000CF00DD0DE51010A0AE1E16BE06B0301BA
:105954004D6B90EC01F003014D6B90EC01F01200E3
:10596400810E03013C6F0F0E3D6F3E6B320E3F6F95
:10597400406BA0EC08F00052D8B496D0060E0B6E23
:10598400130E0C6EAD0E0D6E0D2EFED70C2EFCD725
:105994000B2EFAD700000000040081A00FD00201F2
:1059A4004251000A03E1010E426F01D0426B42C230
:1059B40016F3B9EC1AF037EC09F065D02550010A5A
:1059C40002E1256A02D0010E256E2550010A2EE15E
:1059D4000201E951040A010ED8A4000E016EE95136
:1059E400050A010ED8A4000E006E015000120DE04D
:1059F4000301436B700E446F660E456F000E466FD5
:105A0400010E476F84EC07F010D00201E951000A3F
:105A14000CE00301436B080E446F950E456F000EB6
:105A2400466F010E476F84EC07F02DD00201E95157
:105A3400040A010ED8A4000E016EE951050A010EF4
:105A4400D8A4000E006E015000120DE00301436B58
