:1000000044EF2FF00000000000EF00F000000000BF
:0A0010000000000000000000F3D71C
:10001C000201E051000A18E0938C060E0D6E0D2EB5
:10002C00FED70000938E060E0D6E0D2EFED700002F
:10003C00939E060E0D6E0D2EFED70000939C060EA1
:0A004C000D6E0D2EFED7000012000D
:100056000201E051000A32E0016A015007081CE380
:10006600030160BF02D0939E01D0938E060E0D6EE3
:100076000D2EFED70000938C060E0D6E0D2EFED7AC
:100086000000939C060E0D6E03010D2EFDD7000099
:1000960060376091012AE1D7938E060E0D6E0D2E04
:1000A600FED70000938C060E0D6E0D2EFED70000B7
:0E00B600939C060E0D6E0D2EFED7000012005C
:0800C4000AAE029E000E1200BC
:1000CC000201E051000A12E0939E060E0D6E0D2EF9
:1000DC00FED70000938C060E0D6E0D2EFED7000081
:0E00EC00938E060E0D6E0D2EFED70000120034
:1000FA000201E45103015C255F6F8BDFD9C260F313
:10010A00A5DF0301606BA2DF03015B51B00F606FD3
:10011A009DDF03015F510F0804E35FC35DF35E6B6C
:10012A0019D05FC302F00232029E0232029E0232EC
:10013A00029E0232029E02C05EF302C000F0003646
:10014A000090003600900036009000360090005073
:10015A005F5D5D6F5DC360F379DF03015E51100F70
:10016A00606F74DF56DFD9C260F370DF400E03019F
:06017A00606F6CDF120053
:10018000086A096A100E0C6E0134083609360450EC
:10019000085E0550D8A0053C095ED8B007D00450D1
:1001A00008260550D8B0053C0926D89000360136FF
:0601B0000C2EEAD712003C
:1001B6000B840BAEE6EF00F0010E036E026A016AD5
:0A01C600006A0A360232FF0E120032
:0E01D000026A016A006A086A036A000E1200E1
:1001DE000C6A0E6A0250D8A408EF01F001C002F0BA
:1001EE0000C001F0006A0E860250D8A408EF01F09C
:1001FE0001C002F0016A0E960E880250D8B41AEFB2
:10020E0001F00E50035ED8A4D8A01FEF01F0D890D5
:10021E0002BE24EF01F0003601360236032E0FEF38
:10022E0001F01FEF01F0010E0C6ECBDF27EF01F096
:10023E00020E0C6EB9DF27EF01F0040E0C6E3BDFE1
:02024E0012009C
:0A0250001D0E0D6E0D2EFED71200DC
:10025A000B820BAE37EF01F0036802680168006891
:08026A000A360232FF0E1200F9
:100272000301556B050E555D0AE255515325E16E9A
:10028200000E5421E26E200EE66E552BF3D7555127
:100292005325E16E000E5421E26EE66A5507555170
:1002A2005325566F000E5421576F0A0E046E000E2E
:1002B200056E51C300F052C301F061DF08C000F0C7
:1002C20009C001F0300E002656C3E1FF57C3E2FF1A
:1002D20000C0E6FF0A0E046E000E056E51C300F068
:1002E20052C301F04CDF00C051F301C052F3000EC3
:1002F200011802E1000E001801E102D05507CFD724
:020302001200E7
:100304000B800BAE8EEF01F0026A0AAEFF0E026E96
:0C031400016E006E0A360232FF0E12006D
:100320000301526B0201DA6B010EDF6F51C352F30E
:1003300003015237529152375291523752915237EC
:1003400052910201E35303E0080E03015227020118
:10035000DF5303E0040E030152270201DA5303E0E6
:10036000020E030152270201E25302E00301522B65
:1003700055DED9C260F36FDE52C360F36CDEA6DED9
:10038000060E0C6E300E0D6E0D2EFED70C2EFCD709
:100390000000040E0301525F41DED9C260F35BDE50
:1003A00052C360F358DE92DE060E0C6E300E0D6EF8
:0C03B0000D2EFED70C2EFCD70000120012
:1003BC002FDED9C260F349DE400E0301606F45DECB
:1003CC0052C35BF351C35CF392DE0301566B555180
:1003DC00565DD8B0B3D056515325E96E000E54215A
:1003EC00EA6EEE50000A02E1586B09D056515325C3
:1003FC00E96E000E5421EA6E200EEE5C586F576BBE
:10040C0057510408D8A092D0050E5803F3CF00F032
:10041C00F4CF01F057510026000E01228D0E00245E
:10042C00F66E640E0120F76E000EF86E000E01BE23
:10043C00FF0EF8220900F5CF59F35251020A000EB3
:10044C00D8A4010E016E5251040A000ED8A4010E5C
:10045C00006E005001165251060A000ED8A4010E6F
:10046C00006E0150001629E059B702D05A9F01D0F6
:10047C005A8F59B702D05A9D01D05A8D59B502D016
:10048C005A9B01D05A8B59B502D05A9901D05A892E
:10049C0059B302D05A9701D05A8759B302D05A9502
:1004AC0001D05A8559B102D05A9301D05A8359B10F
:1004BC0002D05A9101D05A8120D059B502D05A9FFE
:1004CC0001D05A8F59B502D05A9D01D05A8D59B3CB
:1004DC0002D05A9B01D05A8B59B302D05A9901D0F1
:1004EC005A8959B102D05A9701D05A8759B102D0C2
:1004FC005A9501D05A855A935A915AC360F3A5DD87
:10050C000201E051040A010ED8A4000E016EE05164
:10051C00050A010ED8A4000E006E0150001203E073
:10052C005AC360F392DD0301572B6AD7606B8DDDE4
:10053C000301606B8ADD0301562B49D75251010F21
:10054C005B6F51C35CF3D3DD0301566B5551565DA4
:10055C00D8B0BBD056515325E96E000E5421EA6E2B
:10056C00EE50000A02E1586B09D056515325E96E42
:10057C00000E5421EA6E200EEE5C586F576B5751EB
:10058C000408D8A09AD0050E5803F3CF00F0F4CF8E
:10059C0001F057510026000E01228D0E0024F66E3C
:1005AC00640E0120F76E000EF86E000E01BEFF0EF9
:1005BC00F8220900F5CF59F35251020A000ED8A4C3
:1005CC00010E016E5251040A000ED8A4010E006EE9
:1005DC00005001165251060A000ED8A4010E006EEE
:1005EC000150001629E059BF02D05A9F01D05A8FF2
:1005FC0059BF02D05A9D01D05A8D59BD02D05A9B79
:10060C0001D05A8B59BD02D05A9901D05A8959BB85
:10061C0002D05A9701D05A8759BB02D05A9501D0B3
:10062C005A8559B902D05A9301D05A8359B902D07C
:10063C005A9101D05A8128D059BD02D05A9F01D06D
:10064C005A8F59BD02D05A9D01D05A8D59BB02D038
:10065C005A9B01D05A8B59BB02D05A9901D05A8956
:10066C0059B902D05A9701D05A8759B902D05A9524
:10067C0001D05A8559B702D05A9301D05A8359B731
:10068C0002D05A9101D05A815AC360F3DEDC0201C8
:10069C00E051040A010ED8A4000E016EE051050AC7
:1006AC00010ED8A4000E006E0150001203E05AC3D4
:1006BC0060F3CBDC0301572B62D7606BC6DC030104
:0E06CC00606BC3DC0301562B41D7FADC120031
:1006DA00086A096A000E07620364F2EF03F0025027
:1006EA0006180A6E075003267E0ED8A083EF03F081
:1006FA00035ED8B0F6EF03F087EF03F0035ED8A0ED
:10070A00FAEF03F0028E068E02C00EF001C00BF063
:10071A0000C00DF000500402F4CF0CF001500502A5
:10072A00F4CF00F0F3CF08F00402F3500C26F45093
:10073A000822000E00220D500502F3500C26F45038
:10074A000822000E002202500402F3500826F45038
:10075A00002202500502016A000E0122F35000260F
:10076A00F45001220D500602F3500826F4500022DC
:10077A00026A000E012202220B500602F3500026E2
:10078A00F4500122000E02220E500602F3500126F6
:10079A00F450022202BEDAEF03F0083600360136C0
:1007AA0002360306D8B4FAEF03F0EDEF03F0D8806F
:1007BA00800E08640030000E002201220222D8A016
:1007CA00EDEF03F0023201320032034AF6EF03F092
:1007DA000AAE029E000EFCEF03F0010EF4DCFCEF01
:1007EA0003F0020E35DDFCEF03F0040EDFDC12002D
:1007FA000B1E0A1E091E081E082AD8B4092AD8B4D4
:08080A000A2AD8B40B2A1200DF
:080812000B6A0B86FF0E1200B9
:10081A0000C008F00150006E016A026A036A0B6A9E
:10082A000C6A016A026A036A960E036E0A6A00AECD
:10083A0025EF04F0081E001E082AD8B4002A0A8EE2
:10084A0000C001F008C000F0086A026AC3DC1200A6
:10085A000CB06FEF04F00CA217EF05F00E6A000E51
:10086A00026486EF04F0F00E0214D8A451EF04F0EB
:10087A00023A01380F0B02260138F00B016E0038DC
:10088A000F0B01260038F00B006E08380F0B0026FC
:10089A000838F00B086E0E84D89002BE6AEF04F096
:1008AA0008360036013602360E2A02BE6AEF04F016
:1008BA0008360036013602360E2A02BE6AEF04F006
:1008CA0008360036013602360E2A0E5003640BEF44
:1008DA0005F0035E0BBC08AE11EF05F0D880800E60
:1008EA0008640030000E002201220222D8A011EF73
:1008FA0005F0023201320032034A17EF05F011EF18
:10090A0005F001C002F000C001F008C000F0086A5A
:10091A00000E0E860264BDEF04F0F00E0214D8A495
:10092A00A5EF04F0023A01380F0B02260138F00B4A
:10093A00016E00380F0B01260038F00B006E0E8492
:10094A00D89002BE6AEF04F00036013602360E2A4B
:10095A0002BE6AEF04F00036013602360E2A02BEE3
:10096A006AEF04F00036013602360E2A6AEF04F006
:10097A0001C002F000C001F0006A000E0E960E8857
:10098A000264EAEF04F0F00E0214D8A4D5EF04F0E2
:10099A00023A01380F0B02260138F00B016E0E8461
:1009AA00D89002BE6AEF04F0013602360E2A02BE61
:1009BA006AEF04F0013602360E2A02BE6AEF04F02C
:1009CA00013602360E2A6AEF04F001C002F0016A0B
:1009DA00000E0E8602641CEF05F0F00E0214D8A475
:1009EA00F9EF04F0023A0E84D89002BE6AEF04F0DE
:1009FA0002360E2A02BE6AEF04F002360E2A02BE40
:100A0A006AEF04F002360E2A6AEF04F0010E0C6E49
:100A1A00DBEC00F020EF05F0020E0C6E62EC00F049
:100A2A0020EF05F0040E0C6E13DC20EF05F0080E23
:080A3A000C6EE8EC00F0120064
:100A42000050086E0150006E016A026A036A0B6A66
:100A52000C6A960E036E0A6A00C001F008C000F02C
:0A0A6200086A026AEFEC00F01200CF
:100A6C000450085E0550D8A0053C095E0650D8A07D
:100A7C00063C0A5E0750D8A0073C0B5E0336070EF7
:100A8C000C6E0334083609360A360B36045003A0B4
:100A9C000ED0085E0550D8A0053C095E0650D8A0C3
:100AAC00063C0A5E0750D8A0073C0B5E0DD008260A
:100ABC000550D8B0053C09260650D8B0063C0A268D
:100ACC000750D8B0073C0B2603360C2EDAD702346D
:100ADC00083609360A360B36045003A00ED0085ED1
:100AEC000550D8A0053C095E0650D8A0063C0A5E0D
:100AFC000750D8A0073C0B5E0DD008260550D8B087
:100B0C00053C09260650D8B0063C0A260750D8B03A
:100B1C00073C0B260236070E0C6E023408360936DB
:100B2C000A360B36045002A00ED0085E0550D8A031
:100B3C00053C095E0650D8A0063C0A5E0750D8A0BA
:100B4C00073C0B5E0DD008260550D8B0053C092695
:100B5C000650D8B0063C0A260750D8B0073C0B26E6
:100B6C0002360C2EDAD70134083609360A360B3623
:100B7C00045002A00ED0085E0550D8A0053C095EBA
:100B8C000650D8A0063C0A5E0750D8A0073C0B5E66
:100B9C000DD008260550D8B0053C09260650D8B013
:100BAC00063C0A260750D8B0073C0B260136070E28
:100BBC000C6E0134083609360A360B36045001A087
:100BCC000ED0085E0550D8A0053C095E0650D8A092
:100BDC00063C0A5E0750D8A0073C0B5E0DD00826D9
:100BEC000550D8B0053C09260650D8B0063C0A265C
:100BFC000750D8B0073C0B2601360C2EDAD7003440
:100C0C00083609360A360B36045001A00ED0085EA1
:100C1C000550D8A0053C095E0650D8A0063C0A5EDB
:100C2C000750D8A0073C0B5E0DD008260550D8B055
:100C3C00053C09260650D8B0063C0A260750D8B009
:100C4C00073C0B260036070E0C6E003408360936AE
:100C5C000A360B36045000A00ED0085E0550D8A002
:100C6C00053C095E0650D8A0063C0A5E0750D8A089
:100C7C00073C0B5E0DD008260550D8B0053C092664
:100C8C000650D8B0063C0A260750D8B0073C0B26B5
:100C9C0000360C2EDAD700B00ED0045008260550C2
:100CAC00D8B0053C09260650D8B0063C0A26075099
:080CBC00D8B0073C0B26120022
:100CC4000B6A0350D8B4A8EF06F002500A6E028EE5
:100CD4008E0E035E03AEACEF06F0036C080E035CED
:100CE400D8A087EF06F0036E013602C001F0026A55
:100CF400080E035CD8A087EF06F0036E0136016A84
:100D04000350D8A4D89091EF06F00350D8B491EFD3
:100D140006F0D89002320132032E8BEF06F00BBCA2
:100D240001A09EEF06F0D8A09EEF06F0012AD8B4E9
:100D3400022A02BEBBEF06F00AAEC1EF06F0021EA5
:100D4400011E012AD8B4022AC1EF06F0026A016A20
:100D5400C1EF06F00B800BAEC5EF06F0026A0AAED7
:100D6400C5EF06F0FF0E026E016E0A360232C5EFC1
:100D740006F0010E0C6E82EC01F0C7EF06F0000ED7
:100D84000C6EC7EF06F0FF0E0C6E0150006E0250A1
:040D9400016E1200DA
:100D980003014D6B4E6B47C34FF348C350F3800EAE
:100DA8004819006E800E005C02E1000E475D0BE200
:100DB800010E4D6F000E4E6F475100084F6F48C32C
:100DC80050F3000E50574FC351F350C352F349C369
:100DD80053F34AC354F339EC01F0060E4B6F000E7F
:100DE8004C6F000E006E4C51005C02E14B51000844
:100DF80019E24B514925E16E4C514A21E26E010E30
:100E08004B5D006E000E4C59016E00504925E96E8D
:100E180001504A21EA6EEECFE6FF010E4B5F000E4D
:100E28004C5BDFD749C3E1FF4AC3E2FF200EE66E01
:100E38004D514E111AE04B6B4C6B4B514925E96EE5
:100E48004C514A21EA6EEE50200A03E14B4B4C2BE1
:100E5800F4D7010E4B5F000E4C5B4B514925E16EF8
:0C0E68004C514A21E26E2D0EE66E120085
:100E7400220E0C6E086A096A0A6A0B6A0C06D8B458
:100E84001FD0D8900B320A320932083203320232B0
:100E940001320032D8A0F2D70C06D8B409D00450DD
:100EA40008260550092206500A2207500B22EAD7C9
:100EB400045008260550092206500A2207500B2226
:020EC40012001A
:100EC600030E0C6E950E0D6E0D2EFED70C2EFCD756
:020ED600120008
:100ED800830EC21647C300F000360090003600901B
:100EE8000050C21228EC01F0C282C2A201D0FDD784
:100EF800C4CF01F0006AC3500012000E01121200A4
:100F08000201E051040A010ED8A4000E016EE0515E
:100F1800050A010ED8A4000E006E015000120DE063
:100F280048C351F347C352F349C353F34AC354F375
:100F38004BC355F3DEEC01F05DD0E051020A010E1F
:100F4800D8A4000E016EE051030A010ED8A4000EC9
:100F5800006E0150001214E0070E03014803F3CF9E
:100F680051F3040E512747C352F35237529149C3E4
:100F780053F34AC354F34BC355F3DEEC01F03AD0B4
:100F8800E26B47C300F00036009000360090005036
:100F9800080F0301516F90EC01F048C351F390EC36
:100FA80001F0010EE26F03014C6B4B514C5D22E2E4
:100FB8004C514925E96E000E4A21EA6EEECF01F048
:100FC80001C051F35133519F5133519F5133519FB8
:100FD8005133519F90EC01F003014C514925E96EC2
:100FE800000E4A21EA6EEECF51F390EC01F00301B6
:060FF8004C2BDBD71200B8
:100FFE000A6A0350D8A40A800750D8A40A820A505D
:10100E00D8B462EF08F0030AD8B41BEF08F00AB0A8
:10101E0016EF08F006AE60EF08F05EEF08F002AED5
:10102E005EEF08F060EF08F00250800B0A6E029E31
:10103E000650800B069E0A18D8B42CEF08F00A5002
:10104E00D8B45EEF08F060EF08F00750035CD8B438
:10105E0036EF08F0D8A052EF08F058EF08F006501F
:10106E00025CD8B440EF08F0D8A052EF08F058EF69
:10107E0008F00550015CD8B44AEF08F0D8A052EF42
:10108E0008F058EF08F00450005CD8B462EF08F096
:10109E00D8B058EF08F00A52D8B460EF08F05EEFFF
:1010AE0008F00A52D8B45EEF08F060EF08F0D8806E
:0E10BE001200D8901200D880D88412001200C0
:1010CC00010E0301476F02DFB6DC890E046E410E80
:1010DC00056E1C0E066E810E076E6DEC03F0ECDDDA
:0210EC001200F0
:1010EE000301476BF2DE00C040F301C041F3800EF6
:1010FE00030A026E800E0118025C02E10050E8083D
:10110E0004E2010E0201116F02D00201116B40C305
:10111E0000F041C301F00DEC04F0890E046E410E97
:10112E00056E1C0E066E810E076E6DEC03F0C3DDB0
:02113E0012009D
:101140000301466B42C301F0010E006E015004E042
:1011500000360090FF0FFBD700C045F340C3E9FF06
:1011600041C3EAFF0050EE14016E0152010ED8A4F3
:10117000000E006E4451001A18E04351000804E2CA
:10118000A2DEA1DE4307F9D740C3E9FF41C3EAFF6E
:101190004551EE14016E0152010ED8A4000E006EEE
:1011A0004451001A02E0FF0E466F46C300F01200E1
:1011B000A00E0301426F0F0E436F000E446F456F88
:1011C000A00E006E0F0E016E000E026E000E036E7A
:1011D00040C304F041C305F0000E066E076E4ADE00
:1011E00000C042F301C043F302C044F303C045F31F
:1011F000000E035C08E1000E025C05E1020E015CDA
:1012000002E1940E005C01E231D0940E425F020EC6
:10121000435B000E445B455B050E006E005007E02B
:101220004533443343334233459FFF0FF8D742C31E
:1012300000F043C301F044C302F045C303F0010EC4
:10124000425F000E435B445B455B0050011002109F
:1012500003100CE00000000000000000000000008F
:0E12600000000000000000000000E1D71200B6
:10126E0004000201E56BE66B1DA104D0C151E52718
:10127E00C251E6231DA304D0BF51E527C051E6237A
:10128E001DA504D0BD51E527BE51E6231DA704D0F0
:10129E00C351E527C451E6231DA904D0C951E52742
:1012AE00CA51E6231DAB04D0C751E527C851E6232A
:1012BE001DAD04D0C551E527C651E623800E270A81
:1012CE00006E800EE619005C02E1E5510F081EE289
:1012DE00320EE525006E000EE621016E00C0E5F22D
:1012EE0001C0E6F200C047F301C048F3F70E030158
:1012FE00496F020E4A6F49DDF8C2F0F2F9C2F1F2FF
:10130E002E0E0201F26FFAC2F3F225D0E5C247F3B8
:10131E00E6C248F3F70E0301496F020E4A6F35DD40
:10132E000201F951200A03E0F9C2F0F202D0300EA8
:10133E00F06F2E0EF16FFA51200A03E0FAC2F2F2AC
:10134E0002D0300EF26FFB51200A03E0FBC2F3F223
:10135E0002D0300EF36FED51040A010ED8A4000E28
:10136E00016EED51050A010ED8A4000E006E01505B
:10137E0000122EE04D51010A04E1040E0301406FEC
:10138E0003D00301060E406F40C347F3100E486FA3
:10139E00A20E496F000E4A6F020E4B6FAEDD40C3B8
:1013AE0047F3580E0301486F9F0E496F000E4A6FA8
:1013BE00020E4B6FA2DD40C347F3280E0301486FA8
:1013CE00F00E496F020E4A6F040E4B6F96DD6DD014
:1013DE000201ED51020A010ED8A4000E016EED516C
:1013EE00030A010ED8A4000E006E015000122DE06B
:1013FE004D51010A03E10301406B03D00301010EBD
:10140E00406F40C347F3090E486F9C0E496F000EA4
:10141E004A6F020E4B6F71DD40C347F30F0E03018F
:10142E00486FA50E496F000E4A6F020E4B6F65DDB9
:10143E0040C347F30B0E0301486FF00E496F020EC7
:10144E004A6F040E4B6F59DD30D00201ED51010A87
:10145E002CE14D51010A03E10301406B03D003015E
:10146E00010E406F40C347F3090E486FAA0E496F35
:10147E00000E4A6F020E4B6F40DD40C347F30F0E56
:10148E000301486FA80E496F000E4A6F010E4B6F95
:10149E0034DD40C347F30B0E0301486FF00E496F66
:1014AE00020E4A6F040E4B6F28DD04000201E56B3D
:1014BE00E66B1EA104D0BB51E527BC51E6231EA34B
:1014CE0004D0CB51E527CC51E6231EA504D0D15133
:1014DE00E527D251E6231EA704D0CF51E527D051E0
:1014EE00E6231EA904D0CD51E527CE51E6231EAB2F
:1014FE0004D0D351E527D451E6231EAD04D0D751E5
:10150E00E527D851E6231EAF04D0D551E527D65195
:10151E00E623E5C247F3E6C248F3F70E0301496F2F
:10152E00020E4A6F32DCF9C2F0F2FAC2F1F2FBC2DD
:10153E00F2F2FCC2F3F20201ED51040A010ED8A43C
:10154E00000E016EED51050A010ED8A4000E006EBC
:10155E00015000122EE04D51010A04E1060E030166
:10156E00406F03D00301040E406F40C347F3100ECB
:10157E00486FBD0E496F000E4A6F020E4B6FBDDCF9
:10158E0040C347F3580E0301486FB30E496F000E68
:10159E004A6F020E4B6FB1DC40C347F3280E0301B6
:1015AE00486FF00E496F020E4A6F040E4B6FA5DCAA
:1015BE006DD00201ED51020A010ED8A4000E016E8B
:1015CE00ED51030A010ED8A4000E006E0150001258
:1015DE002DE04D51010A04E1010E0301406F02D0CE
:1015EE000301406B40C347F3090E486FB00E496FBD
:1015FE00000E4A6F020E4B6F80DC40C347F30F0E96
:10160E000301486FAD0E496F000E4A6F020E4B6F0D
:10161E0074DC40C347F30B0E0301486FF00E496FA5
:10162E00020E4A6F040E4B6F68DC30D00201ED5192
:10163E00010A2CE14D51010A04E1010E0301406F34
:10164E0002D00301406B40C347F3090E486FB60E3C
:10165E00496F000E4A6F020E4B6F4FDC40C347F3CB
:10166E000F0E0301486FBB0E496F000E4A6F010E3D
:10167E004B6F43DC40C347F30B0E0301486FF00E74
:10168E00496F020E4A6F040E4B6F37DC04001200D6
:10169E0000C008F00B6A0C6A9E0E036E0A6A026A9C
:0E16AE00016A006A020E0C6E2DEC04F01200B0
:1016BC000450000A12E10550000A0FE10650000A1E
:1016CC000CE10750000A09E1FF0E006EFF0E016EDF
:1016DC007F0E026EFF0E036EA8D0086A096A0750CF
:1016EC00D8B409EF0CF00350D8B40EEF0CF0025044
:1016FC0006180A6E028E068E0E6A02C008F001C031
:10170C000CF000C00DF004500D5E0550D8A0053C47
:10171C000C5E0650D8A0063C085E086A0C6A0D6A7E
:10172C00D8A0A0EF0BF0D890023201320032083270
:10173C00010E0E6E0750035ED8A0ADEF0BF07E0EBF
:10174C000E240326D8B013EF0CF0B3EF0BF07E0E83
:10175C000E240326D8A018EF0CF0180E0B6E0D36C5
:10176C000C3608360036013602360E360450005E52
:10177C000550D8A0053C015E0650D8A0063C025E80
:10178C0006340E120EA0CEEF0BF00D80D9EF0BF03D
:10179C00045000260550D8B0053C01260650D8B0A0
:1017AC00062802260D900B2EB5EF0BF0FFEF0BF079
:1017BC00D8900036013602360E360450005E0550C5
:1017CC00D8A0053C015E0650D8A0063C025E06344B
:1017DC000E10010B0D26D8B00C2AD8B4082AD8A4A8
:1017EC00FFEF0BF008320C320D32032AD8B413EF92
:1017FC000CF00AAE089E0850026E0C50016E0D5093
:10180C00006E1BEF0CF0010E09EC04F01BEF0CF05A
:10181C00020EE8EC00F01BEF0CF0040E2DEC01F0C6
:0C182C001BEF0CF0080EDBEC00F01200CB
:101838000EEC00F0D9C260F32BEC00F0800E03012F
:10184800606F2BEC00F040C360F32BEC00F066EC0B
:0418580000F012008A
:10185C00025006180E6E086A096A0B6A0350076478
:10186C0021EF0DF006500A6E068E028E03500B6EA1
:10187C000750036E000E0B6471EF0CF00B50075EFB
:10188C00D8B412EF0DF0070E0764E0EF0CF0075E12
:10189C0000C008F001C000F002C001F0026A074E5F
:1018AC0012EF0DF00764B5EF0CF0075E00C008F006
:1018BC0001C000F0016A074E12EF0DF0076493EFC0
:1018CC000CF0075E00C008F0006A074E12EF0DF036
:1018DC0007647AEF0CF00AC002F005C001F004C0F6
:1018EC0000F0086A3EEF0EF0030E076485EF0CF073
:1018FC00075E08380F0B086E074E12EF0DF0D890EC
:10190C000832074E12EF0DF0D8900832074E12EF46
:10191C000DF0D890083212EF0DF0030E0764A4EF0F
:10192C000CF0075E08380F0B086E0038F00B082619
:10193C0000380F0B006E074E12EF0DF0D8900032EE
:10194C000832074E12EF0DF0D89000320832074ED5
:10195C0012EF0DF0D8900032083212EF0DF0030E9A
:10196C000764CCEF0CF0075E08380F0B086E0038DC
:10197C00F00B082600380F0B006E0138F00B002618
:10198C0001380F0B016E074E12EF0DF0D89001329B
:10199C0000320832074E12EF0DF0D89001320032AF
:1019AC000832074E12EF0DF0D89001320032083297
:1019BC0012EF0DF0030E0764FDEF0CF0075E083814
:1019CC000F0B086E0038F00B082600380F0B006E5A
:1019DC000138F00B002601380F0B016E0238F00BAA
:1019EC00012602380F0B026E074E12EF0DF0D89045
:1019FC000232013200320832074E12EF0DF0D8904D
:101A0C000232013200320832074E12EF0DF0D8903C
:101A1C000232013200320832096A000E0EAE06EFB5
:101A2C000EF0081E001E011E021E082A00220122B2
:101A3C00022206EF0EF00750D8A427EF0DF03EEF70
:101A4C000EF0096A02C00AF0028E068E0750035C83
:101A5C00076ED8B4F9EF0DF0070E0764C7EF0DF061
:101A6C00075E0450096E0550046E0650056E066A3A
:101A7C00074EF9EF0DF0070E07649CEF0DF0075EB3
:101A8C000450096E0550046E056A074EF9EF0DF00F
:101A9C00070E07647AEF0DF0075E0450096E046AB6
:101AAC00074EF9EF0DF0070E076461EF0DF00AC059
:101ABC0002F03EEF0EF0030E07646CEF0DF0075EC4
:101ACC0009380F0B096E074EF9EF0DF0D89009325B
:101ADC00074EF9EF0DF0D8900932074EF9EF0DF0E3
:101AEC00D8900932F9EF0DF0030E07648BEF0DF06F
:101AFC00075E09380F0B096E0438F00B0926043801
:101B0C000F0B046E074EF9EF0DF0D890043209322A
:101B1C00074EF9EF0DF0D89004320932074EF9EF69
:101B2C000DF0D89004320932F9EF0DF0030E076472
:101B3C00B3EF0DF0075E09380F0B096E0438F00B8C
:101B4C00092604380F0B046E0538F00B04260538F3
:101B5C000F0B056E074EF9EF0DF0D89005320432DD
:101B6C000932074EF9EF0DF0D890053204320932E4
:101B7C00074EF9EF0DF0D890053204320932F9EF27
:101B8C000DF0030E0764E4EF0DF0075E09380F0B40
:101B9C00096E0438F00B092604380F0B046E053857
:101BAC00F00B042605380F0B056E0638F00B0526D6
:101BBC0006380F0B066E074EF9EF0DF0D890063273
:101BCC00053204320932074EF9EF0DF0D890063287
:101BDC00053204320932074EF9EF0DF0D890063277
:101BEC00053204320932086A000E0EAE06EF0EF012
:101BFC00091E041E051E061E092A042205220622A1
:101C0C0009500826045000220550012206500222D9
:101C1C000EBE1DEF0EF0D8A02CEF0EF002320132EA
:101C2C0000320832033E2CEF0EF038EF0EF0D8B035
:101C3C0032EF0EF0000E081E001E011E021E082AB6
:101C4C000022012202220A7E32EF0EF0010E0C6EEF
:101C5C002DEC04F040EF0EF0020E0C6E2DEC04F0A7
:101C6C0040EF0EF0040E0C6E2DEC01F040EF0EF078
:061C7C00000E0C6E1200C8
:101C82000050086E0150006E0250016E0350026E49
:101C9200036A0B6A0C6A9E0E036E0A6A02AE5EEF5C
:101CA2000EF0081E001E011E021E082AD8B4002AC9
:101CB200D8B4012AD8B4022A0A8E020E0C6E2DEC78
:041CC20004F0120018
:101CC6000450000A12E10550000A0FE10650000A0E
:101CD6000CE10750000A09E1FF0E006EFF0E016ECF
:101CE600FF0E026E7F0E036E99D00C6A07BE0C2A99
:101CF6000D6A0B6A0A6A096A086A03500210011023
:101D06000010D8B485D0035007180E6E0EBE0D1EF7
:101D160007AE0BD0041E051E061E071E042AD8B4E5
:101D2600052AD8B4062AD8B4072A03AE0BD0001E5B
:101D3600011E021E031E002AD8B4012AD8B4022AA4
:101D4600D8B4032A035007100E6E0EBE1DD036EC13
:101D560005F00CBE36D00DAE5BD0001E011E021E75
:101D6600031E002AD8B4012AD8B4022AD8B4032AFA
:101D7600081E091E0A1E0B1E082AD8B4092AD8B442
:101D86000A2AD8B40B2A44D007AE15D003BE0DD00C
:101D960003500B6E02500A6E0150096E0050086E19
:101DA600036A026A016A006AD6D7036A026A016A8E
:101DB600006A002A000C031E021E011E001E0C8E65
:101DC600C6D7082AD8B4092AD8B40A2AD8B40B2AFE
:101DD6000450085CD8A4BFD70550095CD8A4BBD76B
:101DE60006500A5CD8A4B7D707500B5CD8A4B3D763
:101DF6000B6A0A6A096A086A002AD8B4012AD8B4A2
:101E0600022AD8B4032A03AEA6D70E6A0E88FF0CA0
:0E1E16000E6A0CA002D0FDEC03F0000F1200CB
:101E2400800E006E800E03014119005C02E14051F6
:101E3400500803E3006A016ABBD0800E006E800E76
:101E44004119005C02E14051AB0805E3F40E402760
:101E5400000E4123A9D0800E010A006E800E4119A4
:101E6400005C02E14051480805E3FE0E4027000EE5
:101E740041239AD0800E020A006E800E4119005C44
:101E840002E14051460805E3180E4027010E4123A4
:101E94008BD0800E030A006E800E4119005C02E1B3
:101EA4004051340805E3290E4027010E41237CD01C
:101EB400800E040A006E800E4119005C02E140515C
:101EC4004C0805E3360E4027010E41236DD0800EE9
:101ED400080A006E800E4119005C02E14051850839
:101EE40005E3AE0E4027010E41235ED0800E0C0A9E
:101EF400006E800E4119005C02E14051FA0805E3CE
:101F0400E40E4027010E41234FD0800E120A006ECA
:101F1400800E4119005C02E140510F0805E3120EE6
:101F24004027020E412340D0800E160A006E800E18
:101F34004119005C02E14051E60805E3880E4027A0
:101F4400020E412331D0800E1B0A006E800E41190F
:101F5400005C02E14051EA0805E3E70E4027020E67
:101F6400412322D0800E210A006E800E4119005CAC
:101F740002E14051360805E3200E4027030E4123B9
:101F840013D0800E290A006E800E4119005C02E114
:101F94004051040805E3480E4027030E412304D0B2
:101FA4005C0E4027030E412340C300F041C301F0FF
:021FB400120019
:101FB6000B6A0A6A096A00500402F4CF09F0F3CFEB
:101FC60008F001500502F4CF0BF0F3CF0AF00050F1
:101FD6000502F3500926F4500A22E86A0B22015042
:101FE6000402F3500926F4500A22E86A0B2208C0BC
:101FF60000F009C001F00AC002F00BC003F01200A5
:1020060002011C51000A25E1030122B102D08A9681
:1020160001D08A8622B302D0899401D0898422B560
:1020260002D08A9801D08A8822B702D0899601D038
:10203600898622B902D08A9A01D08A8A22BB02D026
:10204600899A01D0898A22BD02D0899801D08988CF
:1020560024D0030122B102D08A8601D08A9622B307
:1020660002D0898401D0899422B502D08A8801D011
:102076008A9822B702D0898601D0899622B902D0E1
:102086008A8A01D08A9A22BB02D0898A01D0899A8B
:1020960022BD02D0898801D08998EEC240F3EFC2F2
:0820A60041F3D8EC08F0120030
:1020AE0004000301235102018E1903E18D51030136
:1020BE002219D8B4ABD0030122C38DF223C38EF202
:1020CE00000E231902E1010E22193AE10201ED512F
:1020DE00040A010ED8A4000E016EED51050A010E80
:1020EE00D8A4000E006E015000120EE0020E030185
:1020FE00476F400E486F510E496F020E4A6F040E25
:10210E004B6F84EC07F018D00201ED51000A0EE07F
:10211E00010E0301476F040E486F570E496F020EF2
:10212E004A6F040E4B6F84EC07F006D00201ED519E
:10213E00000A02E18A8C8A8E02018D6B8E6B66D04C
:10214E0022C38DF223C38EF222C347F323C348F377
:10215E00F70E0301496F020E4A6FCCEC06F0FAC27D
:10216E00F0F22E0E0201F16FFBC2F2F2FCC2F3F29C
:10217E00ED51040A010ED8A4000E016EED51050AB0
:10218E00010ED8A4000E006E015000120EE0020ED9
:10219E000301476F400E486FF00E496F020E4A6FF3
:1021AE00040E4B6F84EC07F031D00201ED51000AA2
:1021BE000EE0010E0301476F040E486FF00E496FDB
:1021CE00020E4A6F040E4B6F84EC07F01FD0020113
:1021DE00ED51000A1BE1800E006E800E03012319E3
:1021EE00005C02E12251960803E38A9C8A8E0ED08F
:1021FE00800E006E800E2319005C02E12251FA0857
:10220E0003E3819C819E02D0818C819E040012008A
:10221E00810E0301406F0F0E416F426B190E436F1B
:10222E00446BA0EC08F000C022F3810E406F0F0E3D
:10223E00416F010E426F190E436F446BA0EC08F014
:10224E0000502213810E406F0F0E416F020E426F2F
:10225E00190E436F446BA0EC08F02251001203E0FC
:08226E00010E0101E16F1200F5
:102276000201E051010806E2AF0E0301406F1CECBB
:102286000CF00ED0E051010A0BE1010EE36FE26B98
:102296000301516B90EC01F00301516B90EC01F0DE
:0222A600120024
:1022A80004000001BA51000A010ED8A4000E016E04
:1022B800B951010A010ED8A4000E006E0050011693
:1022C800800E03012519006E800E005C02E1640E89
:1022D800245D000ED8B0010E006E01500016D8B46F
:1022E800AED002014F51000AD8A4A5D0ED51040A7E
:1022F800010ED8A4000E016EED51050A010ED8A4F6
:10230800000E006E015000122DE000019B51010AE1
:102318000EE1040E0301476F100E486F3A0E496F25
:10232800000E4A6F080E4B6F84EC07F00DD0040EB8
:102338000301476F100E486F310E496F000E4A6F48
:10234800080E4B6F84EC07F0060E0301476F100E62
:10235800486F280E496F000E4A6F080E4B6F84ECC9
:1023680007F069D00201ED51020A010ED8A4000E4F
:10237800016EED51030A010ED8A4000E006E015043
:1023880000122BE000019B51010A0DE10301476B8C
:10239800090E486F430E496F000E4A6F080E4B6FC7
:1023A80084EC07F00CD00301476B090E486F5D0EF3
:1023B800496F000E4A6F080E4B6F84EC07F0010E50
:1023C8000301476F090E486F540E496F000E4A6F9C
:1023D800080E4B6F84EC07F02ED00201ED51010A74
:1023E8002AE100019B51010A0DE10301476B090E27
:1023F800486F4C0E496F000E4A6F070E4B6F84EC06
:1024080007F00CD00301476B090E486F1D0E496F8A
:10241800000E4A6F070E4B6F84EC07F0010E0301A4
:10242800476F090E486F150E496F000E4A6F070E69
:102438004B6F84EC07F0010E02014F6F08D00201C8
:102448004F51010A02E137EC09F002014F6B040019
:102458000301235102015E1903E15D5103012219B1
:10246800D8B49AD322C35DF223C35EF200019B5114
:10247800000A49E1800E03012319006E800E005CFA
:1024880002E1640E225D1EE3050E2225006E000E99
:102498002321016E00C022F301C023F300C047F3DB
:1024A80001C048F3F70E496F020E4A6FCCEC06F0F4
:1024B800F9C2F0F2FAC2F1F2FBC2F2F2570E0201CF
:1024C800F36F20D022C347F323C348F3F70E030169
:1024D800496F020E4A6FCCEC06F00201FB51200A4C
:1024E80003E0FBC2F0F202D0300EF06F2E0EF16F57
:1024F800FC51200A03E0FCC2F2F202D0300EF26F67
:10250800570EF36F32D0800E03012319006E800E30
:10251800030A005C02E1E70E225D14E222C347F3DE
:1025280023C348F3F70E496F020E4A6FCCEC06F04E
:10253800FAC2F0F2FBC2F1F2FCC2F2F2570E02014B
:10254800F36F13D022C347F323C348F3F70E0301F5
:10255800496F020E4A6FCCEC06F0F9C2F0F2FAC2EB
:10256800F1F2FBC2F2F2FCC2F3F20201ED51040AED
:10257800010ED8A4000E016EED51050A010ED8A473
:10258800000E006E015000120DE00301476B400E73
:10259800486FF00E496F020E4A6F040E4B6F84ECC1
:1025A80007F010D00201ED51000A0CE00301476B5F
:1025B800040E486FF00E496F020E4A6F040E4B6FFF
:1025C80084EC07F0040002014F51010AD8A4E4D2B8
:1025D8001D51000A010ED8A4000E016E1E51000AFA
:1025E800010ED8A4000E006E0150001604E024C3AA
:1025F800B6F225C3B7F2B6C200F0B7C201F00DECCF
:1026080004F000C038F301C039F302C03AF303C044
:102618003BF3000E046E000E056E480E066E850E26
:10262800076E38C300F039C301F03AC302F03BC368
:1026380003F05EEC0BF000C034F301C035F302C0C8
:1026480036F303C037F338C304F039C305F03AC38F
:1026580006F03BC307F0000E006E000E016E480E38
:10266800026E850E036E5EEC0BF034C304F035C3C6
:1026780005F036C306F037C307F02EEC0CF000C0A7
:1026880034F301C035F302C036F303C037F3B8C2E0
:1026980000F04FEC0BF034C304F035C305F036C33B
:1026A80006F037C307F06DEC03F0000E046E000E61
:1026B800056E200E066E820E076E5EEC0BF01F0E86
:1026C800046E850E056E6B0E066E7B0E076E6DEC46
:1026D80003F0000E046E000E056E000E066E7F0EEF
:1026E800076E2EEC0CF000C004F001C005F002C02B
:1026F80006F003C007F0000E006E000E016E000E1B
:10270800026E7F0E036E5EEC0BF000C03CF301C05E
:102718003DF302C03EF303C03FF33CC326F33DC381
:1027280027F33EC328F33FC329F324C300F025C38E
:1027380001F00DEC04F000C038F301C039F302C019
:102748003AF303C03BF3000E046E000E056E480E0C
:10275800066E850E076E38C300F039C301F03AC320
:1027680002F03BC303F05EEC0BF0000E046E000EAB
:10277800056E000E066E800E076E2EEC0CF000C083
:1027880034F301C035F302C036F303C037F338C35E
:1027980004F039C305F03AC306F03BC307F0000E56
:1027A800006E000E016E480E026E850E036E5EEC22
:1027B8000BF034C304F035C305F036C306F037C355
:1027C80007F02EEC0CF000C004F001C005F002C0C8
:1027D80006F003C007F0000E006E000E016E000E3A
:1027E800026E810E036E5EEC0BF000C02AF301C08E
:1027F8002BF302C02CF303C02DF3000E046E000E61
:10280800056E000E066E7F0E076E3CC300F03DC3DA
:1028180001F03EC302F03FC303F0FFEC07F0000EE7
:10282800D8B0010E006E005209E0000E0301266FB9
:10283800000E276F000E286F7F0E296F000E046EA2
:10284800000E056E000E066E7F0E076E2AC300F09E
:102858002BC301F02CC302F02DC303F0FFEC07F0EB
:10286800000ED8B0010E006E005209E00301000E00
:102878002A6F000E2B6F000E2C6F7F0E2D6F22C358
:1028880000F023C301F00DEC04F026C304F027C3C5
:1028980005F028C306F029C307F06DEC03F02AC33E
:1028A80004F02BC305F02CC306F02DC307F06DEC24
:1028B80003F062EC06F000C02EF301C02FF326C32C
:1028C80000F027C301F028C302F029C303F02AC38C
:1028D80004F02BC305F02CC306F02DC307F06DECF4
:1028E80003F0000E046E000E056E480E066E850E8F
:1028F800076E6DEC03F000C030F301C031F302C085
:1029080032F303C033F3000E046E000E056E480E5A
:10291800066E850E076EFFEC07F0000ED8B0010EAC
:10292800006E005209E00301000E306F000E316F97
:10293800460E326F850E336F00019B51000A49E144
:10294800800E03012F19006E800E005C02E1640EF8
:102958002E5D1EE3050E2E25006E000E2F21016E42
:1029680000C02EF301C02FF300C047F301C048F3A5
:10297800F70E496F020E4A6FCCEC06F0F9C2F0F27E
:10298800FAC2F1F2FBC2F2F2570E0201F36F20D045
:102998002EC347F32FC348F3F70E0301496F020E06
:1029A8004A6FCCEC06F00201FB51200A03E0FBC29F
:1029B800F0F202D0300EF06F2E0EF16FFC51200AAB
:1029C80003E0FCC2F2F202D0300EF26F570EF36F42
:1029D80032D0800E03012F19006E800E030A005CAE
:1029E80002E1E70E2E5D14E22EC347F32FC348F32E
:1029F800F70E496F020E4A6FCCEC06F0FAC2F0F2FD
:102A0800FBC2F1F2FCC2F2F2570E0201F36F13D0CF
:102A18002EC347F32FC348F3F70E0301496F020E85
:102A28004A6FCCEC06F0F9C2F0F2FAC2F1F2FBC23E
:102A3800F2F2FCC2F3F20201ED51040A010ED8A42D
:102A4800000E016EED51050A010ED8A4000E006EAD
:102A5800015000120EE0040E0301476F400E486F4C
:102A6800F00E496F020E4A6F040E4B6F84EC07F0AC
:102A78002DD00201ED51020A010ED8A4000E016EFC
:102A8800ED51030A010ED8A4000E006E0150001289
:102A98000DE00301476B0D0E486FF00E496F020EF3
:102AA8004A6F040E4B6F84EC07F010D00201ED5111
:102AB800010A0CE10301476B0C0E486FF00E496FD9
:102AC800020E4A6F040E4B6F84EC07F030C300F01F
:102AD80031C301F032C302F033C303F062EC06F0F5
:102AE80000C047F301C048F3F70E0301496F020E17
:102AF8004A6FCCEC06F0FBC2F0F2FCC2F1F2020124
:102B0800ED51040A010ED8A4000E016EED51050A1C
:102B1800010ED8A4000E006E015000120EE0060E41
:102B28000301476F4C0E486FF00E496F020E4A6F53
:102B3800020E4B6F84EC07F02FD00201ED51020A10
:102B4800010ED8A4000E016EED51030A010ED8A49F
:102B5800000E006E015000120EE0010E0301476FD7
:102B68000E0E486FF00E496F020E4A6F020E4B6F41
:102B780084EC07F011D00201ED51010A0DE1010EBC
:102B88000301476F0D0E486FF00E496F020E4A6F32
:0C2B9800020E4B6F84EC07F004001200EA
:102BA400030122B102D08B9E01D08B8E22B302D0BE
:102BB4008B9601D08B8622B502D08B9C01D08B8C56
:102BC40022B702D08B9401D08B8422B902D08B9A85
:102BD40001D08B8A22BB02D08B9201D08B8222BD82
:102BE40002D08B9801D08B8822BF02D0899E01D05D
:102BF400898EEEC240F3EFC241F3D8EC08F0120024
:102C0400040077EC08F000C022F301C023F3000EA7
:102C140001BEFF0E0301246F256F66EC08F000C0AF
:102C240026F301C027F3000E01BEFF0E0301286F37
:102C3400296F2750010A1BE122C300F023C301F0CE
:102C4400030E046E000E056EDBEC0FF000C040F3C3
:102C540001C041F312EC0FF00DEC04F000C02AF3B4
:102C640001C02BF302C02CF303C02DF31AD022C3EE
:102C740000F023C301F024C302F025C303F0030EC4
:102C8400046E000E056E066E076E3AEC07F041EC1A
:102C94000EF000C02AF301C02BF302C02CF303C0D2
:102CA4002DF3800E2919006E800E2519005C08E1B1
:102CB4002451285D05E12351275D02E12251265D5F
:102CC40008E3E70E226F030E236F000E246F256FB7
:102CD40045D026512225006E27512321016E28510B
:102CE4002421026E29512521036E640E046E000E08
:102CF400056E066E076E3AEC07F022C304F023C398
:102D040005F024C306F025C307F02651045E2751BD
:102D1400055A2851065A2951075A63EC0EF000C08F
:102D240022F301C023F302C024F303C025F3800E71
:102D3400046E800E0318045C08E10250000805E1EB
:102D44000150030802E10050E70808E2E70E03011E
:102D5400226F030E236F000E246F256F26C000F030
:102D64004FEC0BF02AC304F02BC305F02CC306F080
:102D74002DC307F06DEC03F0000E046E000E056E1B
:102D84007A0E066E880E076E5EEC0BF000C02AF316
:102D940001C02BF302C02CF303C02DF3F40E046E18
:102DA400FD0E056E340E066E7F0E076E5EEC0BF0A4
:102DB40000C02AF301C02BF302C02CF303C02DF38F
:102DC40000019B51010A25E12AC300F02BC301F045
:102DD4002CC302F02DC303F02AC304F02BC305F067
:102DE4002CC306F02DC307F06DEC03F0000E046E47
:102DF400000E056E480E066E840E076E5EEC0BF038
:102E040000C02AF301C02BF302C02CF303C02DF33E
:102E140024D02AC300F02BC301F02CC302F02DC32D
:102E240003F02AC304F02BC305F02CC306F02DC312
:102E340007F06DEC03F0000E046E000E056E200E1C
:102E4400066E810E076E5EEC0BF000C02AF301C023
:102E54002BF302C02CF303C02DF32AC300F02BC3C1
:102E640001F02CC302F02DC303F0000E046E000E1B
:102E7400056E000E066E7E0E076E2EEC0CF000C082
:102E84002AF301C02BF302C02CF303C02DF362EC30
:102E940006F000C0E7F201C0E8F2800E0118026EED
:102EA400800E025C02E10A0E005C06E2010E0201E1
:102EB400EB6F000EEC6F1AD0800E03012519006E23
:102EC400800E005C08E1000E245D05E1000E235D28
:102ED40002E1640E225D06E2E70E0201EB6F030ECF
:0E2EE400EC6F04D022C3EBF223C3ECF2120019
:102EF20003011E6B1F6B010E206F000E216F640E0B
:102F02000201E95D03011B6F000E0201EA59030190
:102F12001C6F0201E76BE86B0400780E03011D6F62
:102F22001A6B1D511A5D47E281B202D0068001D0B0
:102F3200069081B402D0D88001D0D89006B003D0D8
:102F420002E2069001D0068081B002D0D88001D082
:102F5200D89006B003D002E2069001D0068006A007
:102F620008D00FEC11F00101E151010A02E1E16B1D
:102F7200CED247DE800E03011F19006E800E0201C1
:102F8200E819005C03E1E75103011E5D08E2E7C2B4
:102F92001EF3E8C21FF3EBC220F3ECC221F3100EC2
:102FA2000C6E940E0D6E03010D2EFDD70C2EFBD769
:102FB20000001A2BB6D704001EC3DFF11FC3E0F1D5
:102FC20020C322F321C323F357EC10F0800E030138
:102FD2002119006E800E005C02E1640E205D16E392
:102FE2003BEC11F0D7C100F04FEC0BF0DBC104F069
:102FF200DCC105F0DDC106F0DEC107F06DEC03F0C7
:1030020062EC06F000C0D8F101C0D9F1800E0301D4
:103012002119006E800E0201EA19005C03E1E951F8
:103022000301205D000ED8B0010E006E00500101B8
:10303200DA15056E800EE319036E800E0301211965
:10304200035C03E120510101E25D0101010ED8B0F0
:10305200000E036EE2510301205D016E0101E35196
:1030620003012159026E800E1C19006E800E021897
:10307200005C02E101501B5D010ED8B0000E006E33
:1030820000500314046E800E2119036E800E01019C
:10309200E319035C03E1E2510301205D0301010E28
:1030A200D8B0000E036E20510101E25D016E0301F2
:1030B20021510101E359026E800E03011C19006EB9
:1030C200800E0218005C02E101501B5D010ED8B0B7
:1030D200000E006E0350001600500410016E010134
:1030E200E351030A02E1E70EE219010ED8A4000E31
:1030F200006E015000120550001603E0010E02019D
:10310200126F81B202D0068001D0069081B402D043
:10311200D88001D0D89006B003D002E2069001D048
:10312200068081B002D0D88001D0D89006B003D0FA
:1031320002E2069001D0068006A008D00FEC11F042
:103142000101E151010A02E1E16BE1D1DFC122F3A8
:10315200E0C123F320C324F321C325F354EC11F07F
:1031620081B202D0068001D0069081B402D0D8800C
:1031720001D0D89006B003D002E2069001D00680BA
:1031820081B002D0D88001D0D89006B003D002E23C
:10319200069001D0068006A008D00FEC11F00101C4
:1031A200E151010A02E1E16BB2D1040002011151C5
:1031B200010AD8A4ACD1ED51040A010ED8A4000E24
:1031C200016EED51050A010ED8A4000E006E0150E9
:1031D2000012D8B4CAD0020E0301476F100E486F16
:1031E200130E496F020E4A6F080E4B6F84EC07F004
:1031F200030E0B6E080E0C6E770E0D6E0D2EFED7A3
:103202000C2EFCD70B2EFAD7020E0301476F100EBD
:10321200486F080E496F020E4A6F080E4B6F84EC1E
:1032220007F00B0E0B6E260E0C6E5D0E0D6E0D2E44
:10323200FED70C2EFCD70B2EFAD70000000004009C
:10324200020E0301476F100E486FED0E496F010E1B
:103252004A6F080E4B6F84EC07F0070E0B6E170EC9
:103262000C6E6A0E0D6E0D2EFED70C2EFCD70B2E99
:10327200FAD700000400020E0301476F100E486FD8
:10328200E40E496F010E4A6F080E4B6F84EC07F093
:103292000B0E0B6E260E0C6E5D0E0D6E0D2EFED7F6
:1032A2000C2EFCD70B2EFAD7000000000400020EF1
:1032B2000301476F100E486FFF0E496F010E4A6FF0
:1032C200080E4B6F84EC07F0070E0B6E170E0C6E98
:1032D2006A0E0D6E0D2EFED70C2EFCD70B2EFAD7D2
:1032E20000000400020E0301476F100E486FF60E35
:1032F200496F010E4A6F080E4B6F84EC07F00B0EFC
:103302000B6E260E0C6E5D0E0D6E0D2EFED70C2E64
:10331200FCD70B2EFAD7000000000400020E0301B6
:10332200476F100E486F1F0E496F020E4A6F080E4C
:103332004B6F84EC07F0030E0B6E080E0C6E770ECB
:103342000D6E0D2EFED70C2EFCD70B2EFAD7020EC9
:103352000301476F100E486F840E496F020E4A6FC9
:10336200080E4B6F84EC07F0C6D00201ED51000A43
:10337200D8B4C1D0010E0301476F486B680E496F84
:10338200020E4A6F080E4B6F84EC07F0030E0B6EB1
:10339200080E0C6E770E0D6E0D2EFED70C2EFCD77E
:1033A2000B2EFAD7010E0301476F486B720E496F5D
:1033B200020E4A6F080E4B6F84EC07F00B0E0B6E79
:1033C200260E0C6E5D0E0D6E0D2EFED70C2EFCD74A
:1033D2000B2EFAD7000000000400010E0301476F14
:1033E200486B990E496F020E4A6F080E4B6F84ECC0
:1033F20007F0070E0B6E170E0C6E6A0E0D6E0D2E79
:10340200FED70C2EFCD70B2EFAD700000400010EBB
:103412000301476F486BA20E496F020E4A6F080EF6
:103422004B6F84EC07F00B0E0B6E260E0C6E5D0ECE
:103432000D6E0D2EFED70C2EFCD70B2EFAD70000E8
:1034420000000400010E0301476F486BAC0E496F88
:10345200020E4A6F080E4B6F84EC07F0070E0B6EDC
:10346200170E0C6E6A0E0D6E0D2EFED70C2EFCD7AB
:103472000B2EFAD700000400010E0301476F486BC0
:103482005F0E496F020E4A6F080E4B6F84EC07F015
:103492000B0E0B6E260E0C6E5D0E0D6E0D2EFED7F4
:1034A2000C2EFCD70B2EFAD7000000000400010EF0
:1034B2000301476F486B7B0E496F020E4A6F080E7D
:1034C2004B6F84EC07F0030E0B6E080E0C6E770E3A
:1034D2000D6E0D2EFED70C2EFCD70B2EFAD7010E39
:1034E2000301476F486B8F0E496F020E4A6F080E39
:1034F2004B6F84EC07F00400100E02018D6F270E53
:103502008E6F20C322F321C323F357EC10F0120075
:10351200A6A202D00000FCD7A69C1AC3A9FF1BC317
:10352200A8FFA69EA684F2CF00F0F29E550EA76ECB
:10353200AA0EA76EA68200BE02D0F29E01D0F28E23
:0E354200A694A1B802D00000FCD7A1981200F8
:1035500002011D6B1E6B0301226B03EC10F01EC2F7
:1035600022F3D2EC15F0EEC240F3EFC241F3D8ECF7
:0435700008F012004D
:1035740003011AB102D08B9001D08B80EEC240F3CC
:0A358400EFC241F3D8EC08F012008A
:10358E00E0DF010E02014D6F010E03011A6FEBDF3A
:10359E00050E02015003F3CF00F00050FF080301A7
:1035AE001A6F1B6BAFDF050E02015003F3CF00F055
:1035BE000050FE0803011A6F1B6BA4DF050E0201FB
:1035CE005003F3CF00F00050FD0803011A6F010EF7
:1035DE001B6F98DF050E02015003F3CF00F0005071
:1035EE00FC0803011A6F1B6B8DDF050E02015003E1
:1035FE00F3CF00F00050FB0803011A6F1B6B82DF44
:10360E0037EC09F002014F6B898CEB6BEC6BE76BBF
:10361E00E86B0101E26BE36B0201ED51040A010E4E
:10362E00D8A4000E016EED51050A010ED8A4000EAD
:10363E00006E015000122BE0020E0301476F100EB8
:10364E00486F280E496F020E4A6F080E4B6F84ECBE
:10365E0007F004000D0E0B6E2D0E0C6ED70E0D6EB8
:10366E000D2EFED70C2EFCD70B2EFAD70000000025
:10367E00020E0301476F100E486F310E496F020E96
:10368E004A6F080E4B6F84EC07F004002FD0020136
:10369E00ED51000A29E0010E0301476F486B430EFE
:1036AE00496F020E4A6F080E4B6F84EC07F0040050
:1036BE000D0E0B6E2D0E0C6ED70E0D6E0D2EFED743
:1036CE000C2EFCD70B2EFAD700000000010E0301C2
:1036DE00476F486B3A0E496F020E4A6F080E4B6FDA
:1036EE0084EC07F0040002D08A8C8A8E100E020140
:1036FE008D6F270E8E6F100E5D6F270E5E6F79EC3D
:04370E0017F012009E
:103712000134083609360450085E0550D8A0053C2D
:10372200095E003601360F0E0C6E0134083609367A
:10373200045000A006D0085E0550D8A0053C095EE2
:1037420005D008260550D8B0053C092600360136BA
:103752000C2EEBD700B006D0045008260550D8B086
:08376200053C092600001200DD
:10376A000450000A08E10550000A05E1FF0E006E48
:10377A007F0E016E57D00D6A096A086A015000105F
:10378A00D8B4000C015005180A6E0ABE0D1E0B6A49
:10379A0005AE05D0041E051E042AD8B4052A01AEBA
:1037AA0005D0001E011E002AD8B4012A01500510B6
:1037BA000A6E0ABE10D0A8DF0BB020D00DAE000CE6
:1037CA00001E011E002AD8B4012A081E091E082A52
:1037DA00D8B4092A000C05AE0DD001BE07D001509D
:1037EA00096E0050086E016A006AE8D7016A006A29
:1037FA00002A000C011E001E0B2ADDD7082AD8B4A5
:10380A00092A0450085CD8A4D9D70550095CD8A461
:10381A00D5D7096A086A002AD8B4012A01AECED7D8
:06382A000000FF0C12007B
:1038300002EC16F002015C51640A10E05C2B800E71
:10384000FF19006E800EE819005C02E1E751FE5D91
:1038500004E2E7C2FEF2E8C2FFF20ED05C6BFEC2E9
:1038600022F3FFC223F3EBC224F3ECC225F354ECA2
:1038700011F00201FE6BFF6B0201800EE819026E6F
:10388000800E03010419025C03E103510201E75DAC
:10389000010ED8B0000E026E800E03010219016EF7
:1038A000800E0201E819015C03E1E7510301015DAB
:1038B0000301010ED8B0000E016E800E006E800E66
:1038C0000219005C02E101510008010ED8B0000E9F
:1038D000006E015000160250001251E0040002EC8C
:1038E00016F002015C51640A10E05C2B800EFF1997
:1038F000006E800EE819005C02E1E751FE5D04E213
:10390000E7C2FEF2E8C2FFF20ED05C6BFEC222F309
:10391000FFC223F3EBC224F3ECC225F354EC11F005
:103920000201FE6BFF6B810E0301406F0F0E416FB2
:10393000426B050E436F010E446FA0EC08F000527D
:1039400003E0010E0201566F02015651010A010EF9
:10395000D8A4000E0301196F810E406F0F0E416F46
:10396000426B050E436F446BA0EC08F01951001632
:1039700005E00DDE0201EB6BEC6B01D07DD7120090
:10398000030E0301186F02011E6B0301226BD2ECC0
:1039900015F018C398F24CDF000E0201EC1902E199
:1039A000000EEB1901E190D0140E046E000E056EAE
:1039B000EBC200F0ECC201F0D8DE00500201EB25B2
:1039C0000301166F01500201EC210301176F18C3A8
:1039D00015F3030115511F08D8A072D0155102012B
:1039E0004C03F3CF22F3D2EC15F022DF000E0201DC
:1039F000EC1902E1000EEB1901E166D0800EEC1922
:103A0000006E800E03011719005C03E116510201DC
:103A1000EB5D54E2140E046E000E056EEBC200F076
:103A2000ECC201F0A2DE00500201EB250301166F8B
:103A300001500201EC210301176F155102014C03E3
:103A4000F3CF1EF218C398F2800EEC19006E800EB0
:103A5000005C02E1780EEB5D01E232D00301185107
:103A60001525026E02C015F302014E51000A010E27
:103A7000D8A4000E016E0250090A010ED8A4000E4F
:103A8000006E0150001604E0080E0301156F15D0FA
:103A900002014E51000A010ED8A4000E016E03016E
:103AA0001551110A010ED8A4000E006E0150001627
:103AB00004E0100E156F040E186F01D001D089D7E5
:0A3AC0001EC222F3D2EC15F0120032
:103ACA00030E0301146F106B14C371F2030E116F0E
:103ADA00140E046E000E056EEBC200F0ECC201F08B
:103AEA003FDE00500201EB250301126F0150020173
:103AFA00EC210301136F0F6B03010F511F08D8A0AC
:103B0A0077D00F510201AB03F3CF22F303EC10F08D
:103B1A0032DF89DE000E0201EC1902E1000EEB1918
:103B2A0001E17CD0800EEC19006E800E030113199E
:103B3A00005C03E112510201EB5D58E2140E046EBF
:103B4A00000E056EEBC200F0ECC201F009DE005077
:103B5A000201EB250301126F01500201EC2103015E
:103B6A00136F0F510201AB03F3CF1DF21EC210F304
:103B7A0014C371F298C211F3800EEC19006E800E14
:103B8A00005C02E1780EEB5D01E232D003011451D0
:103B9A000F25026E02C00FF30201B551000A010E91
:103BAA00D8A4000E016E0250090A010ED8A4000E14
:103BBA00006E0150001604E0080E03010F6F15D0C5
:103BCA000201B551000A010ED8A4000E016E0301CC
:103BDA000F51110A010ED8A4000E006E01500016F2
:103BEA0004E0100E0F6F040E146F01D001D084D7B9
:103BFA0010C31EF21DC222F303EC10F01EC222F300
:103C0A00D2EC15F011C398F2340E0C6EF10E0D6E53
:0E3C1A000D2EFED70C2EFCD70000000012006D
:103C2800020198514C03F3CF00F000C00FF300508D
:103C38001E25046E04C011F3050E026E4CC200F07E
:103C4800000E016E025005E0003600900136FF0FAD
:103C5800FAD7010E005C026E000E0158036E800E4A
:103C68000318006E800E005C02E10450025C0DE255
:103C7800050E006E4CC211F3005005E00301113728
:103C88001191FF0FFAD70301110702011E51030119
:103C98000F5D06E20F5102011E5D0301126F01D094
:103CA800126B12C31EF212C322F3D2EC15F0BCDD64
:103CB800000E0201EC1902E1000EEB1901E170D0CF
:103CC800EBC213F3ECC214F34C5103011225106F2D
:103CD8001051115D61E310C322F3D2EC15F0A4DD9D
:103CE800000E0201EC1902E1000EEB1901E158D0B7
:103CF800800EEC19006E800E03011419005C03E1BC
:103D080013510201EB5D0BE3340E0C6EF10E0D6ED8
:103D18000D2EFED70C2EFCD70000000085DD800E8E
:103D28000201EC19006E800E03011419005C03E116
:103D380013510201EB5D0BE3340E0C6EF10E0D6EA8
:103D48000D2EFED70C2EFCD7000000006DDD800E76
:103D58000201EC19006E800E03011419005C03E1E6
:103D680013510201EB5D12E20201EBC213F3ECC244
:103D780014F310C31EF2800EEC19006E800E005C66
:103D880002E1780EEB5D01E207D001D005D0020117
:103D98004C51030110279CD71EC222F3D2EC15F018
:023DA800120007
:103DAA0002017151AB03F3CF00F000C00FF30050D2
:103DBA001D25046E04C011F3050E026EABC200F09D
:103DCA00000E016E025005E0003600900136FF0F2A
:103DDA00FAD7010E005C026E000E0158036E800EC7
:103DEA000318006E800E005C02E10450025C0DE2D2
:103DFA00050E006EABC211F3005005E00301113746
:103E0A001191FF0FFAD70301110702011D51030196
:103E1A000F5D06E20F5102011D5D0301126F01D011
:103E2A00126B12C31DF212C322F303EC10F0FBDC77
:103E3A00000E0201EC1902E1000EEB1901E170D04B
:103E4A00EBC213F3ECC214F3AB5103011225106F4A
:103E5A001051115D61E310C322F303EC10F0E3DCAF
:103E6A00000E0201EC1902E1000EEB1901E158D033
:103E7A00800EEC19006E800E03011419005C03E138
:103E8A0013510201EB5D0BE3340E0C6EF10E0D6E55
:103E9A000D2EFED70C2EFCD700000000C4DC800ECD
:103EAA000201EC19006E800E03011419005C03E193
:103EBA0013510201EB5D0BE3340E0C6EF10E0D6E25
:103ECA000D2EFED70C2EFCD700000000ACDC800EB5
:103EDA000201EC19006E800E03011419005C03E163
:103EEA0013510201EB5D12E20201EBC213F3ECC2C1
:103EFA0014F310C31DF2800EEC19006E800E005CE4
:103F0A0002E1780EEB5D01E207D001D005D0020193
:103F1A00AB51030110279CD71DC222F303EC10F00A
:023F2A00120083
:103F2C00EBC209F3ECC20AF3CADD000E0201EC1974
:103F3C0002E1000EEB1903E1A8EC1AF018D172DCC7
:103F4C00800E0201EC19006E800E005C02E1780E0E
:103F5C00EB5D01E20CD123DF000E0201EC1902E152
:103F6C00000EEB1903E1A8EC1AF001D15BDC800E1A
:103F7C000201EC19006E800E005C02E1780EEB5D24
:103F8C0001E2F5D04BDE000E0201EC1902E1000E4D
:103F9C00EB1903E1A8EC1AF0EAD044DC800E020124
:103FAC00EC19006E800E005C02E1780EEB5D01E214
:103FBC00DED0800EEC19016E800E015C02E1C80EA1
:103FCC00EB5D010ED8B0000E016E800EEC19006E88
:103FDC00800E03010A19005C03E109510201EB5D3B
:103FEC000201010ED8B0000E006E00500114036ED9
:103FFC00EB510301095D016E0201EC5103010A59F9
:10400C00026E800E006E800E0218005C02E1015000
:10401C006408010ED8B0000E006E0350001601E0CB
:10402C00A6D0EBC209F3ECC20AF31DC20BF3000ECF
:10403C000C6F1EC20DF3000E0E6F02014D51010AE2
:10404C0002E14D6B02D0010E4D6FA8EC1AF04DC27F
:10405C001AF3BAEC1AF0020E0B6E040E0C6EBA0EBA
:10406C000D6E0D2EFED70C2EFCD70B2EFAD70000A2
:10407C0018EC1CF0800E0201EC19006E800E005C36
:10408C0002E1780EEB5D01E272D019DD000E020147
:10409C00EC1902E1000EEB1903E1A8EC1AF067D061
:1040AC0018EC1CF0800E0201EC19006E800E005C06
:1040BC0002E1780EEB5D01E25AD071DE000E0201D6
:1040CC00EC1902E1000EEB1903E1A8EC1AF04FD049
:1040DC0018EC1CF0800E0201EC19006E800E005CD6
:1040EC0002E1780EEB5D01E242D098DD000E020198
:1040FC00EC1902E1000EEB1903E1A8EC1AF037D031
:10410C0018EC1CF0800E0201EC19006E800E005CA5
:10411C0002E1780EEB5D01E22AD0800E03010A1950
:10412C00006E800E0201EC19005C03E1EB510301FF
:10413C00095D1CE202014D51010A02E14D6B02D0F6
:10414C00010E4D6F4DC21AF3BAEC1AF00BC31DF2EF
:10415C000DC31EF20BC322F303EC10F01EC222F3AC
:10416C00D2EC15F009C3EBF20AC3ECF20400120016
:10417C00040002015C6BFE6BFF6B566B18EC1CF0C1
:10418C00800E0201EC19006E800E005C02E16E0ED6
:10419C00EB5D01E2BFD0A8EC1AF00001B951000AA6
:1041AC0002E137EC09F0020E0B6E040E0C6EBA0E27
:1041BC000D6E0D2EFED70C2EFCD70B2EFAD7000051
:1041CC0018EC1CF0EBC2B6F2ECC2B7F2800E020196
:1041DC00EC19006E800E005C02E16E0EEB5D01E2EC
:1041EC0099D0800E016E800EBA19015C02E1B951B2
:1041FC006E08010ED8B0000E016E800EBA19006E5A
:10420C00800EEC19005C02E1EB51B95D010ED8B0E7
:10421C00000E006E0150001601E07CD081DE000E15
:10422C000201EC1902E1000EEB1903E1A8EC1AF003
:10423C0071D0800E0201EC19006E800E005C02E160
:10424C00780EEB5D01E266D000019851050A010E73
:10425C00D8A4000E016E9951050A010ED8A4000EC7
:10426C00006E0150001601E055D09951050806E288
:10427C00ABC271F2010E0201AB6F91DD800E020137
:10428C00EC19006E800E005C02E1780EEB5D01E231
:10429C0041D000019851050806E24CC298F2010E7B
:1042AC0002014C6FBBDC00019951050A04E1010EBF
:1042BC000201AB6F0FD000019951060A04E1020E06
:1042CC000201AB6F07D000019951070A03E1040EFC
:1042DC000201AB6F00019851050A04E1010E0201C5
:1042EC004C6F17D000019851060A04E1020E02012E
:1042FC004C6F0FD000019851070A04E1040E020123
:10430C004C6F07D000019851080A03E1080E020116
:06431C004C6F04001200CA
:104322000301076B0201E051000A31E0938E016A3A
:10433200015007081AE3030107370791FE0E07171A
:10434200060E0D6E0D2EFED70000938C060E0D6E1E
:104352000D2EFED7000081BE072B939C060E0D6E1C
:104362000D2EFED70000012AE3D7938E060E0D6EA6
:104372000D2EFED70000938C060E0D6E0D2EFED76D
:104382000000939C060E0D6E0D2EFED7000007C393
:0443920000F0120025
:10439600A69C07C3A9FFA69EA680A8CF00F0120080
:1043A60007C300F00032009E0032009E0032009EDD
:1043B6000032009E0A0E0002F3CF01F00F0E030139
:0A43C6000715006E015000261200DA
:1043D0000EEC00F0D9C260F32BEC00F00301606B2F
:1043E0002BEC00F0AE0E0301606F2BEC00F002012D
:1043F000E051020A010ED8A4000E016EE051030A3A
:10440000010ED8A4000E006E01500012D8B497D04F
:10441000D50E0301606F2BEC00F0800E0301606F7E
:104420002BEC00F0A80E0301606F2BEC00F03F0EA8
:104430000301606F2BEC00F0D30E0301606F2BECD7
:1044400000F00201E051020A05E1E1C260F32BEC49
:1044500000F007D00201E1511F0F0301606F2BEC48
:1044600000F0400E0301606F2BEC00F08D0E030195
:10447000606F2BEC00F0140E0301606F2BEC00F06A
:10448000810E0301606F2BEC00F0B40E0301606F2E
:104490002BEC00F0D90E0301606F2BEC00F0220E24
:1044A0000301606F2BEC00F0200E0301606F2BEC1A
:1044B00000F0020E0301606F2BEC00F0210E0301EF
:1044C000606F2BEC00F00301606B2BEC00F07F0EB3
:1044D0000301606F2BEC00F02E0E0301606F2BECDC
:1044E00000F00201E051020A0BE1A00E0301606F2F
:1044F0002BEC00F0C00E0301606F2BEC00F00AD033
:10450000A10E0301606F2BEC00F0C80E0301606F79
:104510002BEC00F0DA0E0301606F2BEC00F0020EC2
:104520000301606F2BEC00F0DB0E0301606F2BECDE
:1045300000F0400E0301606F2BEC00F08AD0D50E26
:104540000301606F2BEC00F0800E0301606F2BEC19
:1045500000F0A80E0301606F2BEC00F03F0E03018A
:10456000606F2BEC00F0D30E0301606F2BEC00F0BA
:10457000E1C260F32BEC00F0400E0301606F2BEC06
:1045800000F08D0E0301606F2BEC00F0140E0301A0
:10459000606F2BEC00F0810E0301606F2BEC00F0DC
:1045A000FF0E0301606F2BEC00F0D90E0301606F6A
:1045B0002BEC00F0F10E0301606F2BEC00F0200EED
:1045C0000301606F2BEC00F0020E0301606F2BEC17
:1045D00000F0210E0301606F2BEC00F00301606B13
:1045E0002BEC00F07F0E0301606F2BEC00F02E0E21
:1045F0000301606F2BEC00F00201E051040A0BE1B3
:10460000A00E0301606F2BEC00F0C00E0301606F81
:104610002BEC00F00AD0A10E0301606F2BEC00F030
:10462000C80E0301606F2BEC00F0DA0E0301606F1F
:104630002BEC00F0120E0301606F2BEC00F0DB0E90
:104640000301606F2BEC00F0400E0301606F2BEC58
:1046500000F0A40E0301606F2BEC00F0A60E030126
:10466000606F2BEC00F066EC00F0030E0B6E080E92
:104670000C6E770E0D6E0D2EFED70C2EFCD70B2E6A
:10468000FAD70EEC00F0D9C260F32BEC00F0400E2C
:104690000301606F2BEC00F00201E051020A010EF1
:1046A000D8A4000E016EE051030A010ED8A4000E3A
:1046B000006E0150001219E00301086B0851030855
:1046C00013E308C35BF35C6B7DEC00F00301076B45
:1046D0000301800E075D05E2072B606B2BEC00F0F9
:1046E000F7D70301082BEAD718D00301086B08514C
:1046F000070813E308C35BF35C6B7DEC00F0030178
:10470000076B0301800E075D05E2072B606B2BEC46
:1047100000F0F7D70301082BEAD766EC00F0AF0EE4
:0A4720000301406F1CEC0CF01200C6
:10472A00086A080E0C6E003408360450085ED8B0C9
:0E473A0002D00826D89000360C2EF5D71200BB
:10474800D80E0201DB6F0E0EDC6F470EDD6F030E15
:10475800DE6FC26A01010C1D006E0050C116070E03
:08476800C012C08EC2801200D5
:1047700004000201ED51040A010ED8A4000E016EDE
:10478000ED51050A010ED8A4000E006E0150001272
:104790000EE0020E0301476F400E486FD70E496FBF
:1047A000000E4A6F040E4B6F84EC07F014D0020128
:1047B000ED51000A0EE0010E0301476F040E486F31
:1047C000D20E496F000E4A6F040E4B6F84EC07F057
:1047D00002D08A8C8A8ED2DC0201ED51000A1BE1E4
:1047E000800E006E800EEC19005C02E1EB51960821
:1047F00003E38A9C8A8E0ED0800E006E800EEC1928
:10480000005C02E1EB51FA0803E3819C819E02D037
:10481000818C819E12D04F51000A010ED8A4000E47
:10482000016E0001B951000A010ED8A4000E006EFD
:104830000150001202E037EC09F0050E02015003AE
:10484000F3CF00F00050FF0803011A6F1EC21BF3E4
:1048500089EC1AF0050E02015003F3CF00F000506E
:10486000FE0803011A6F1DC21BF389EC1AF0050E36
:1048700002015003F3CF00F00050FD0803011A6F4E
:104880004DC21BF389EC1AF0050E02015003F3CF61
:1048900000F00050FC0803011A6F000E046E010EB8
:1048A000056EB6C200F0B7C201F0B5EC1BF000C057
:1048B0001BF389EC1AF0050E02015003F3CF00F050
:1048C0000050FB0803011A6F000E046E010E056E06
:1048D000B6C200F0B7C201F0B5EC1BF008C000F0A2
:1048E00009C001F000C01BF389EC1AF0100E0201A0
:1048F0008D6F270E8E6F100E5D6F270E5E6F79EC39
:1049000017F0EBC2E2F1ECC2E3F1898C0400120073
:1049100004000201ED51040A010ED8A4000E016E3C
:10492000ED51050A010ED8A4000E006E01500012D0
:10493000D8B4D2D000018D51000AD8A485D003018B
:10494000476B160E486FC00E496F000E4A6F070E78
:104950004B6F84EC07F0020E0301476F060E486FA1
:104960005C0E496F010E4A6F090E4B6F84EC07F025
:10497000040E0301476F100E486F530E496F010E6E
:104980004A6F080E4B6F84EC07F0060E0301476F69
:10499000040E486F470E496F010E4A6F0B0E4B6FA6
:1049A00084EC07F004000D0E0B6E2D0E0C6ED70E6E
:1049B0000D6E0D2EFED70C2EFCD70B2EFAD7000055
:1049C000000004000B0E0B6E260E0C6E5D0E0D6EBD
:1049D0000D2EFED70C2EFCD70B2EFAD700000000B0
:1049E00004000301476B100E486F660E496F010EFD
:1049F0004A6F080E4B6F84EC07F0020E0301476FFD
:104A0000040E486F830E496F010E4A6F0A0E4B6FFA
:104A100084EC07F0040E0301476F100E486F7A0E06
:104A2000496F010E4A6F080E4B6F84EC07F0060EBB
:104A30000301476F040E486F6F0E496F010E4A6FF6
:104A40000B0E4B6F84EC07F0040E0B6E0C0E0C6E0D
:104A5000330E0D6E0D2EFED70C2EFCD70B2EFAD773
:104A60000000000000019B51010A0DE10301476BAA
:104A7000100E486F210E496F010E4A6F080E4B6FE2
:104A800084EC07F00CD00301476B100E486F180E32
:104A9000496F010E4A6F080E4B6F84EC07F0020E4F
:104AA0000301476F100E486F0F0E496F010E4A6FDA
:104AB000080E4B6F84EC07F00101DA530CE00301A0
:104AC000476B700E486F2A0E496F010E4A6F010E38
:104AD0004B6F84EC07F0D5D00201ED51000AD8B439
:104AE000D0D000018D51000AD8A487D00301476BB4
:104AF000040E486F3F0E496F010E4A6F070E4B6F51
:104B000084EC07F0010E0301476F030E486F350E6A
:104B1000496F010E4A6F090E4B6F84EC07F00400D9
:104B20000F0E0B6E350E0C6E510E0D6E0D2EFED748
:104B30000C2EFCD70B2EFAD704000B0E0B6E260E94
:104B40000C6E5D0E0D6E0D2EFED70C2EFCD70B2EAF
:104B5000FAD70000000004000301476B040E486F01
:104B60002C0E496F010E4A6F080E4B6F84EC07F054
:104B7000010E0301476F030E486F8E0E496F010E41
:104B80004A6F0B0E4B6F84EC07F004000D0E0B6E9A
:104B90002D0E0C6ED70E0D6E0D2EFED70C2EFCD7E3
:104BA0000B2EFAD70000000004000B0E0B6E260E31
:104BB0000C6E5D0E0D6E0D2EFED70C2EFCD70B2E3F
:104BC000FAD70000000004000301476B040E486F91
:104BD000B90E496F010E4A6F080E4B6F84EC07F057
:104BE000010E0301476F030E486FAE0E496F010EB1
:104BF0004A6F0B0E4B6F84EC07F0040E0B6E0C0E1D
:104C00000C6E330E0D6E0D2EFED70C2EFCD70B2E18
:104C1000FAD70000000000019B51010A0CE10301DA
:104C2000476B486BA50E496F010E4A6F080E4B6F1C
:104C300084EC07F00BD00301476B486BC20E496F41
:104C4000010E4A6F080E4B6F84EC07F0010E030152
:104C5000476F486BCE0E496F010E4A6F080E4B6FBF
:104C600084EC07F00101DA530CE00301476B080EF6
:104C7000486FCC0E496F010E4A6F010E4B6F84ECEA
:0A4C800007F0040037EC09F0120001
:104C8A00070E0301076FCBEC21F000C0E1F2080E1A
:104C9A00076FCBEC21F000C0E4F20201E0510108F9
:104CAA0003E2E8EC21F063D0E051010A60E1010E71
:104CBA00E36FE26B030E0301516F90EC01F01A0EE1
:104CCA000C6EF80E0D6E0D2EFED70C2EFCD70000C2
:104CDA00030E0301516F90EC01F0060E0C6E300EBC
:104CEA000D6E0D2EFED70C2EFCD70000030E03010D
:104CFA00516F90EC01F0020E0301516F90EC01F03C
:104D0A00020E0301516F90EC01F0080E0301516F7E
:104D1A0090EC01F00301516B90EC01F0080E0301D5
:104D2A00516F90EC01F00301516B90EC01F0010E10
:104D3A000301516F90EC01F01A0E0C6EF80E0D6E15
:104D4A000D2EFED70C2EFCD700000301516B90EC00
:104D5A0001F0060E0301516F90EC01F00301516B53
:104D6A0090EC01F00C0E0301516F90EC01F012006F
:104D7A000900F5CFE6FF0006FBE10106F9E11200A2
:104D8A000301076BCBEC21F000C0D9F2010E076FCB
:104D9A00CBEC21F000C0E0F20050000A05E1939C40
:104DAA00939E8A8C8A8E04D0938C938E8A9C8A9E38
:024DBA001200E5
:104DBC000400010E0301076FCBEC21F000C0EDF2F3
:104DCC00020E076FCBEC21F00050010A03E1010E3B
:104DDC000101DA6F030E0301076FCBEC21F000C069
:104DEC0007F3D3EC21F000C0EEF2000E0201EF6FDE
:104DFC00040E0301076FCBEC21F000C007F3D3ECDA
:104E0C0021F00A0E0002F3CFE9F2F4CFEAF2050E1C
:104E1C00076FCBEC21F000C007F3D3EC21F00A0EA6
:104E2C000002F3CF03F3F4CF04F3060E076FCBECC1
:104E3C0021F000C007F3D3EC21F00A0E0002F3CFEF
:104E4C0001F3F4CF02F3090E076FCBEC21F000C095
:104E5C0007F3D3EC21F00A0E0002F3CFB9F2F4CF32
:104E6C00BAF20A0E076FCBEC21F000C099F00B0ED2
:104E7C00076FCBEC21F000C0B5F20C0E076FCBEC3A
:104E8C0021F000C098F00D0E076FCBEC21F000C0A4
:104E9C004EF20E0E076FCBEC21F000C027F00F0E78
:104EAC00076FCBEC21F000C01CF20400100E076F52
:104EBC00CBEC21F000C007F3D3EC21F0640E000220
:104ECC00F3CF05F3F4CF06F3110E076FCBEC21F003
:104EDC0000C007F3D3EC21F0005005250201C16F8F
:104EEC00000E030106210201C26F120E0301076FAF
:104EFC00CBEC21F000C007F3D3EC21F0640E0002E0
:104F0C00F3CF05F3F4CF06F3130E076FCBEC21F0C0
:104F1C0000C007F3D3EC21F0005005250201BF6F50
:104F2C00000E030106210201C06F140E0301076F6E
:104F3C00CBEC21F000C007F3D3EC21F0640E00029F
:104F4C00F3CF05F3F4CF06F3150E076FCBEC21F07E
:104F5C0000C007F3D3EC21F0005005250201BD6F12
:104F6C00000E030106210201BE6F160E0301076F2E
:104F7C00CBEC21F000C007F3D3EC21F0640E00025F
:104F8C00F3CF05F3F4CF06F3170E076FCBEC21F03C
:104F9C0000C007F3D3EC21F0005005250201C36FCC
:104FAC00000E030106210201C46F180E0301076FE6
:104FBC00CBEC21F000C007F3D3EC21F0640E00021F
:104FCC00F3CF05F3F4CF06F3190E076FCBEC21F0FA
:104FDC0000C007F3D3EC21F0005005250201C96F86
:104FEC00000E030106210201CA6F1A0E0301076F9E
:104FFC00CBEC21F000C007F3D3EC21F0640E0002DF
:10500C00F3CF05F3F4CF06F31B0E076FCBEC21F0B7
:10501C0000C007F3D3EC21F0005005250201C76F47
:10502C00000E030106210201C86F1C0E0301076F5D
:10503C00CBEC21F000C007F3D3EC21F0640E00029E
:10504C00F3CF05F3F4CF06F31D0E076FCBEC21F075
:10505C0000C007F3D3EC21F0005005250201C56F09
:10506C00000E030106210201C66F200E0301076F1B
:10507C00CBEC21F000C007F3D3EC21F0640E00025E
:10508C00F3CF05F3F4CF06F3210E076FCBEC21F031
:10509C0000C007F3D3EC21F0005005250201BB6FD3
:1050AC00000E030106210201BC6F220E0301076FE3
:1050BC00CBEC21F000C007F3D3EC21F0640E00021E
:1050CC00F3CF05F3F4CF06F3230E076FCBEC21F0EF
:1050DC0000C007F3D3EC21F0005005250201CB6F83
:1050EC00000E030106210201CC6F240E0301076F91
:1050FC00CBEC21F000C007F3D3EC21F0640E0002DE
:10510C00F3CF05F3F4CF06F3250E076FCBEC21F0AC
:10511C0000C007F3D3EC21F0005005250201D16F3C
:10512C00000E030106210201D26F260E0301076F48
:10513C00CBEC21F000C007F3D3EC21F0640E00029D
:10514C00F3CF05F3F4CF06F3270E076FCBEC21F06A
:10515C0000C007F3D3EC21F0005005250201CF6FFE
:10516C00000E030106210201D06F280E0301076F08
:10517C00CBEC21F000C007F3D3EC21F0640E00025D
:10518C00F3CF05F3F4CF06F3290E076FCBEC21F028
:10519C0000C007F3D3EC21F0005005250201CD6FC0
:1051AC00000E030106210201CE6F2A0E0301076FC8
:1051BC00CBEC21F000C007F3D3EC21F0640E00021D
:1051CC00F3CF05F3F4CF06F32B0E076FCBEC21F0E6
:1051DC0000C007F3D3EC21F0005005250201D36F7A
:1051EC00000E030106210201D46F2C0E0301076F80
:1051FC00CBEC21F000C007F3D3EC21F0640E0002DD
:10520C00F3CF05F3F4CF06F32D0E076FCBEC21F0A3
:10521C0000C007F3D3EC21F0005005250201D76F35
:10522C00000E030106210201D86F2E0E0301076F39
:10523C00CBEC21F000C007F3D3EC21F0640E00029C
:10524C00F3CF05F3F4CF06F32F0E076FCBEC21F061
:10525C0000C007F3D3EC21F0005005250201D56FF7
:10526C00000E030106210201D66F300E0301076FF9
:10527C00CBEC21F000C09BF0310E076FCBEC21F092
:10528C0000C007F3D3EC21F000C026F0320E076FFC
:10529C00CBEC21F000C007F3D3EC21F000C0D7F128
:1052AC00330E076FCBEC21F000C0B9F0340E076F52
:1052BC00CBEC21F000C007F3D3EC21F000C0B8F226
:0452CC0004001200C8
:1052D000070EB46E600ED36E9B8C806A816A826A00
:1052E000400E896E8A6A8B6A030E926E070E936E69
:1052F000946AA4EC23F00D0EC16EF19EF29E120092
:10530000810E0301406F0F0E416F426B320E436FEF
:10531000446BA0EC08F002011251001261E03BEC7A
:1053200011F0D7C100F04FEC0BF0DBC104F0DCC191
:1053300005F0DDC106F0DEC107F06DEC03F062ECB4
:1053400006F000C0D8F101C0D9F1060E0B6E130EA5
:105350000C6EAD0E0D6E0D2EFED70C2EFCD70B2E47
:10536000FAD70000000004001251000A010ED8A470
:10537000000E016E81B002D0D89001D0D880006AB2
:10538000D8B0002A0150001605E0C7EC1AF0000161
:10539000976B26D0899C060E0B6E130E0C6EAD0E0D
:1053A0000D6E0D2EFED70C2EFCD70B2EFAD700005B
:1053B0000000B8EC23F00001976B810E0301406FF1
:1053C0000F0E416F426B320E436F446BA0EC08F03E
:1053D000005204E079EC17F00400EFD70201126BE1
:1053E000810E0301406F0F0E416F020E426F320EAD
:1053F000436F446BA0EC08F00052D8B4F7D03BECFC
:1054000011F0D7C100F04FEC0BF0DBC104F0DCC1B0
:1054100005F0DDC106F0DEC107F06DEC03F062ECD3
:1054200006F000C0D8F101C0D9F104000001975185
:10543000000A24E1010E976F1EC2CBF11DC29CF140
:105440004DC29BF102011E6B1D6B010E4D6F0301DE
:10545000226B03EC10F01EC222F3D2EC15F04DC209
:105460001AF3BAEC1AF002014F51000A02E137ECCC
:1054700009F0DAC19AF10101DA6B1CD00001976BD7
:10548000CBC11EF29CC11DF29BC14DF2CBC122F3D8
:10549000D2EC15F01DC222F303EC10F04DC21AF34A
:1054A000BAEC1AF002014F51000A02E137EC09F0A0
:1054B0009AC1DAF10201ED51040A010ED8A4000EDE
:1054C000016EED51050A010ED8A4000E006E0150C8
:1054D00000123BE000019753010ED8A4000E006EAD
:1054E0000101DA5100160DE00301476B700E486FA1
:1054F0009D0E496F010E4A6F010E4B6F84EC07F051
:1055000023D00101DA53010ED8A4000E006E000171
:10551000975100160DE00301476B700E486FA30E04
:10552000496F010E4A6F010E4B6F84EC07F00CD0EF
:105530000301476B700E486FA10E496F010E4A6F51
:10554000010E4B6F84EC07F03ED00201ED51000AD2
:105550003AE000019753010ED8A4000E006E01013D
:10556000DA5100160DE00301476B080E486F9F0EDD
:10557000496F010E4A6F010E4B6F84EC07F023D088
:105580000101DA53010ED8A4000E006E00019751FC
:1055900000160DE00301476B080E486F0D0E496FB2
:1055A000010E4A6F010E4B6F84EC07F00CD0030123
:1055B000476B080E486F000E496F010E4A6F010ECF
:1055C0004B6F84EC07F00400810E0301406F0F0E57
:1055D000416F020E426F320E436F446BA0EC08F035
:1055E000005204E079EC17F00400EED7810E0301BD
:1055F000406F0F0E416F010E426F320E436F446BCE
:10560000A0EC08F000019751000A010ED8A4000E8A
:10561000016E01500016D8B4C2D03BEC11F0D7C1D6
:1056200000F04FEC0BF0DBC104F0DCC105F0DDC194
:1056300006F0DEC107F06DEC03F062EC06F000C08E
:10564000D8F101C0D9F104000101DA51000A03E1E7
:10565000010EDA6F01D0DA6B020E03011A6FDAC1A4
:105660001BF389EC1AF00201ED51040A010ED8A4D3
:10567000000E016EED51050A010ED8A4000E006E59
:10568000015000123BE000019753010ED8A4000E18
:10569000006E0101DA5100160DE00301476B700E38
:1056A000486FFE0E496F000E4A6F010E4B6F84EC7F
:1056B00007F023D00101DA53010ED8A4000E006ECA
:1056C0000001975100160DE00301476B700E486F03
:1056D000FC0E496F000E4A6F010E4B6F84EC07F011
:1056E0000CD00301476B700E486F020E496F010E1C
:1056F0004A6F010E4B6F84EC07F03ED00201ED5172
:10570000000A3AE000019753010ED8A4000E006E83
:105710000101DA5100160DE00301476B080E486FD6
:10572000080E496F010E4A6F010E4B6F84EC07F0B3
:1057300023D00101DA53010ED8A4000E006E00013F
:10574000975100160DE00301476B080E486F060ED7
:10575000496F010E4A6F010E4B6F84EC07F00CD0BD
:105760000301476B080E486F040E496F010E4A6F24
:10577000010E4B6F84EC07F00400810E0301406FB3
:105780000F0E416F010E426F320E436F446BA0EC5F
:1057900008F0005204E079EC17F00400EED7120094
:1057A0000201ED51040A010ED8A4000E016EED5164
:1057B000050A010ED8A4000E006E015000120DE083
:1057C0000301476B0A0E486FC80E496F000E4A6FFF
:1057D000090E4B6F84EC07F010D00201ED51000A66
:1057E0000CE00301476B030E486FDC0E496F000E9F
:1057F0004A6F090E4B6F84EC07F004000B0E0B6E22
:10580000260E0C6E5D0E0D6E0D2EFED70C2EFCD7E7
:105810000B2EFAD70000000004000B0E0B6E260EB4
:105820000C6E5D0E0D6E0D2EFED70C2EFCD70B2EC2
:10583000FAD70000000004000B0E0B6E260E0C6E53
:105840005D0E0D6E0D2EFED70C2EFCD70B2EFAD74B
:105850000000000004000B0E0B6E260E0C6E5D0E99
:105860000D6E0D2EFED70C2EFCD70B2EFAD7000096
:10587000000004000201ED51040A010ED8A4000E3C
:10588000016EED51050A010ED8A4000E006E015004
:1058900000120DE00301476B0A0E486FF20E496FCC
:1058A000000E4A6F090E4B6F84EC07F010D0020116
:1058B000ED51000A0CE00301476B030E486FE80E40
:1058C000496F000E4A6F090E4B6F84EC07F0A8EC8D
:1058D0001AF0010E02014D6F010E03011A6FBAECAE
:1058E0001AF0050E02015003F3CF00F00050FF083C
:1058F00003011A6F1EC21BF389EC1AF0050E020198
:105900005003F3CF00F00050FE0803011A6F1DC2D0
:105910001BF389EC1AF0050E02015003F3CF00F0DF
:105920000050FD0803011A6F4DC21BF389EC1AF0F9
:105930000201ED51040A010ED8A4000E016EED51D2
:10594000050A010ED8A4000E006E015000120DE0F1
:105950000301476B700E486FE60E496F000E4A6FE9
:10596000010E4B6F84EC07F010D00201ED51000ADC
:105970000CE00301476B080E486F0A0E496F010ED9
:105980004A6F010E4B6F84EC07F0010E00018D6F22
:0659900088EC24F0120077
:105996000201E051010806E2AE0E0301406F1CEC65
:1059A6000CF00DD0E051010A0AE1E36BE26B030152
:1059B600516B90EC01F00301516B90EC01F0120079
:1059C600810E0301406F0F0E416F426B320E436F23
:1059D600446BA0EC08F00052D8B496D0060E0B6EBD
:1059E600130E0C6EAD0E0D6E0D2EFED70C2EFCD7C3
:1059F6000B2EFAD700000000040081A00FD0020190
:105A06004D51000A03E1010E4D6F01D04D6B4DC2A1
:105A16001AF3BAEC1AF037EC09F065D02550010AF2
:105A260002E1256A02D0010E256E2550010A2EE1FB
:105A36000201ED51040A010ED8A4000E016EED51CB
:105A4600050A010ED8A4000E006E015000120DE0EA
