:1000000024EF2FF00000000000EF00F000000000DF
:0A0010000000000000000000F3D71C
:10001C000201E451000A18E0938C060E0D6E0D2EB1
:10002C00FED70000938E060E0D6E0D2EFED700002F
:10003C00939E060E0D6E0D2EFED70000939C060EA1
:0A004C000D6E0D2EFED7000012000D
:100056000201E451000A32E0016A015007081CE37C
:10006600030161BF02D0939E01D0938E060E0D6EE2
:100076000D2EFED70000938C060E0D6E0D2EFED7AC
:100086000000939C060E0D6E03010D2EFDD7000099
:1000960061376191012AE1D7938E060E0D6E0D2E02
:1000A600FED70000938C060E0D6E0D2EFED70000B7
:0E00B600939C060E0D6E0D2EFED7000012005C
:0800C4000AAE029E000E1200BC
:1000CC000201E451000A12E0939E060E0D6E0D2EF5
:1000DC00FED70000938C060E0D6E0D2EFED7000081
:0E00EC00938E060E0D6E0D2EFED70000120034
:1000FA000201E65103015D25606F8BDFDCC261F30B
:10010A00A5DF0301616BA2DF03015C51B00F616FD0
:10011A009DDF030160510F0804E360C35EF35F6B68
:10012A0019D060C302F00232029E0232029E0232EB
:10013A00029E0232029E02C05FF302C000F0003645
:10014A000090003600900036009000360090005073
:10015A00605D5E6F5EC361F379DF03015F51100F6B
:10016A00616F74DF56DFDCC261F370DF400E03019A
:06017A00616F6CDF120052
:10018000086A096A100E0C6E0134083609360450EC
:10019000085E0550D8A0053C095ED8B007D00450D1
:1001A00008260550D8B0053C0926D89000360136FF
:0601B0000C2EEAD712003C
:1001B6000B840BAEE6EF00F0010E036E026A016AD5
:0A01C600006A0A360232FF0E120032
:0E01D000026A016A006A086A036A000E1200E1
:1001DE000C6A0E6A0250D8A408EF01F001C002F0BA
:1001EE0000C001F0006A0E860250D8A408EF01F09C
:1001FE0001C002F0016A0E960E880250D8B41AEFB2
:10020E0001F00E50035ED8A4D8A01FEF01F0D890D5
:10021E0002BE24EF01F0003601360236032E0FEF38
:10022E0001F01FEF01F0010E0C6ECBDF27EF01F096
:10023E00020E0C6EB9DF27EF01F0040E0C6E3BDFE1
:02024E0012009C
:0A0250001D0E0D6E0D2EFED71200DC
:10025A000B820BAE37EF01F0036802680168006891
:08026A000A360232FF0E1200F9
:100272000301566B050E565D0AE256515425E16E96
:10028200000E5521E26E200EE66E562BF3D7565124
:100292005425E16E000E5521E26EE66A560756516C
:1002A2005425576F000E5521586F0A0E046E000E2A
:1002B200056E52C300F053C301F061DF08C000F0C5
:1002C20009C001F0300E002657C3E1FF58C3E2FF18
:1002D20000C0E6FF0A0E046E000E056E52C300F067
:1002E20053C301F04CDF00C052F301C053F3000EC0
:1002F200011802E1000E001801E102D05607CFD723
:020302001200E7
:100304000B800BAE8EEF01F0026A0AAEFF0E026E96
:0C031400016E006E0A360232FF0E12006D
:100320000301536B0201DD6B010EE26F52C353F305
:1003300003015337539153375391533753915337E5
:1003400053910201E55303E0080E03015327020114
:10035000E25303E0040E030153270201DD5303E0DF
:10036000020E030153270201E35302E00301532B62
:1003700055DEDCC261F36FDE53C361F36CDEA6DED3
:10038000060E0C6E300E0D6E0D2EFED70C2EFCD709
:100390000000040E0301535F41DEDCC261F35BDE4B
:1003A00053C361F358DE92DE060E0C6E300E0D6EF6
:0C03B0000D2EFED70C2EFCD70000120012
:1003BC002FDEDCC261F349DE400E0301616F45DEC6
:1003CC0053C35CF352C35DF392DE0301576B56517A
:1003DC00575DD8B0B3D057515425E96E000E552156
:1003EC00EA6EEE50000A02E1596B09D057515425C0
:1003FC00E96E000E5521EA6E200EEE5C596F586BBB
:10040C0058510408D8A092D0050E5903F3CF00F030
:10041C00F4CF01F058510026000E0122400E0024AA
:10042C00F66E640E0120F76E000EF86E000E01BE23
:10043C00FF0EF8220900F5CF5AF35351020A000EB1
:10044C00D8A4010E016E5351040A000ED8A4010E5B
:10045C00006E005001165351060A000ED8A4010E6E
:10046C00006E0150001629E05AB702D05B9F01D0F4
:10047C005B8F5AB702D05B9D01D05B8D5AB502D011
:10048C005B9B01D05B8B5AB502D05B9901D05B8929
:10049C005AB302D05B9701D05B875AB302D05B95FD
:1004AC0001D05B855AB102D05B9301D05B835AB10A
:1004BC0002D05B9101D05B8120D05AB502D05B9FFA
:1004CC0001D05B8F5AB502D05B9D01D05B8D5AB3C6
:1004DC0002D05B9B01D05B8B5AB302D05B9901D0ED
:1004EC005B895AB102D05B9701D05B875AB102D0BD
:1004FC005B9501D05B855B935B915BC361F3A5DD81
:10050C000201E451040A010ED8A4000E016EE4515C
:10051C00050A010ED8A4000E006E0150001203E073
:10052C005BC361F392DD0301582B6AD7616B8DDDE0
:10053C000301616B8ADD0301572B49D75351010F1E
:10054C005C6F52C35DF3D3DD0301576B5651575D9E
:10055C00D8B0BBD057515425E96E000E5521EA6E28
:10056C00EE50000A02E1596B09D057515425E96E3F
:10057C00000E5521EA6E200EEE5C596F586B5851E7
:10058C000408D8A09AD0050E5903F3CF00F0F4CF8D
:10059C0001F058510026000E0122400E0024F66E88
:1005AC00640E0120F76E000EF86E000E01BEFF0EF9
:1005BC00F8220900F5CF5AF35351020A000ED8A4C1
:1005CC00010E016E5351040A000ED8A4010E006EE8
:1005DC00005001165351060A000ED8A4010E006EED
:1005EC000150001629E05ABF02D05B9F01D05B8FEF
:1005FC005ABF02D05B9D01D05B8D5ABD02D05B9B74
:10060C0001D05B8B5ABD02D05B9901D05B895ABB80
:10061C0002D05B9701D05B875ABB02D05B9501D0AF
:10062C005B855AB902D05B9301D05B835AB902D077
:10063C005B9101D05B8128D05ABD02D05B9F01D069
:10064C005B8F5ABD02D05B9D01D05B8D5ABB02D033
:10065C005B9B01D05B8B5ABB02D05B9901D05B8951
:10066C005AB902D05B9701D05B875AB902D05B951F
:10067C0001D05B855AB702D05B9301D05B835AB72C
:10068C0002D05B9101D05B815BC361F3DEDC0201C4
:10069C00E451040A010ED8A4000E016EE451050ABF
:1006AC00010ED8A4000E006E0150001203E05BC3D3
:1006BC0061F3CBDC0301582B62D7616BC6DC030101
:0E06CC00616BC3DC0301572B41D7FADC12002F
:1006DA00086A096A000E07620364F2EF03F0025027
:1006EA0006180A6E075003267E0ED8A083EF03F081
:1006FA00035ED8B0F6EF03F087EF03F0035ED8A0ED
:10070A00FAEF03F0028E068E02C00EF001C00BF063
:10071A0000C00DF000500402F4CF0CF001500502A5
:10072A00F4CF00F0F3CF08F00402F3500C26F45093
:10073A000822000E00220D500502F3500C26F45038
:10074A000822000E002202500402F3500826F45038
:10075A00002202500502016A000E0122F35000260F
:10076A00F45001220D500602F3500826F4500022DC
:10077A00026A000E012202220B500602F3500026E2
:10078A00F4500122000E02220E500602F3500126F6
:10079A00F450022202BEDAEF03F0083600360136C0
:1007AA0002360306D8B4FAEF03F0EDEF03F0D8806F
:1007BA00800E08640030000E002201220222D8A016
:1007CA00EDEF03F0023201320032034AF6EF03F092
:1007DA000AAE029E000EFCEF03F0010EF4DCFCEF01
:1007EA0003F0020E35DDFCEF03F0040EDFDC12002D
:1007FA000B1E0A1E091E081E082AD8B4092AD8B4D4
:08080A000A2AD8B40B2A1200DF
:080812000B6A0B86FF0E1200B9
:10081A0000C008F00150006E016A026A036A0B6A9E
:10082A000C6A016A026A036A960E036E0A6A00AECD
:10083A0025EF04F0081E001E082AD8B4002A0A8EE2
:10084A0000C001F008C000F0086A026AC3DC1200A6
:10085A000CB06FEF04F00CA217EF05F00E6A000E51
:10086A00026486EF04F0F00E0214D8A451EF04F0EB
:10087A00023A01380F0B02260138F00B016E0038DC
:10088A000F0B01260038F00B006E08380F0B0026FC
:10089A000838F00B086E0E84D89002BE6AEF04F096
:1008AA0008360036013602360E2A02BE6AEF04F016
:1008BA0008360036013602360E2A02BE6AEF04F006
:1008CA0008360036013602360E2A0E5003640BEF44
:1008DA0005F0035E0BBC08AE11EF05F0D880800E60
:1008EA0008640030000E002201220222D8A011EF73
:1008FA0005F0023201320032034A17EF05F011EF18
:10090A0005F001C002F000C001F008C000F0086A5A
:10091A00000E0E860264BDEF04F0F00E0214D8A495
:10092A00A5EF04F0023A01380F0B02260138F00B4A
:10093A00016E00380F0B01260038F00B006E0E8492
:10094A00D89002BE6AEF04F00036013602360E2A4B
:10095A0002BE6AEF04F00036013602360E2A02BEE3
:10096A006AEF04F00036013602360E2A6AEF04F006
:10097A0001C002F000C001F0006A000E0E960E8857
:10098A000264EAEF04F0F00E0214D8A4D5EF04F0E2
:10099A00023A01380F0B02260138F00B016E0E8461
:1009AA00D89002BE6AEF04F0013602360E2A02BE61
:1009BA006AEF04F0013602360E2A02BE6AEF04F02C
:1009CA00013602360E2A6AEF04F001C002F0016A0B
:1009DA00000E0E8602641CEF05F0F00E0214D8A475
:1009EA00F9EF04F0023A0E84D89002BE6AEF04F0DE
:1009FA0002360E2A02BE6AEF04F002360E2A02BE40
:100A0A006AEF04F002360E2A6AEF04F0010E0C6E49
:100A1A00DBEC00F020EF05F0020E0C6E62EC00F049
:100A2A0020EF05F0040E0C6E13DC20EF05F0080E23
:080A3A000C6EE8EC00F0120064
:100A42000050086E0150006E016A026A036A0B6A66
:100A52000C6A960E036E0A6A00C001F008C000F02C
:0A0A6200086A026AEFEC00F01200CF
:100A6C000450085E0550D8A0053C095E0650D8A07D
:100A7C00063C0A5E0750D8A0073C0B5E0336070EF7
:100A8C000C6E0334083609360A360B36045003A0B4
:100A9C000ED0085E0550D8A0053C095E0650D8A0C3
:100AAC00063C0A5E0750D8A0073C0B5E0DD008260A
:100ABC000550D8B0053C09260650D8B0063C0A268D
:100ACC000750D8B0073C0B2603360C2EDAD702346D
:100ADC00083609360A360B36045003A00ED0085ED1
:100AEC000550D8A0053C095E0650D8A0063C0A5E0D
:100AFC000750D8A0073C0B5E0DD008260550D8B087
:100B0C00053C09260650D8B0063C0A260750D8B03A
:100B1C00073C0B260236070E0C6E023408360936DB
:100B2C000A360B36045002A00ED0085E0550D8A031
:100B3C00053C095E0650D8A0063C0A5E0750D8A0BA
:100B4C00073C0B5E0DD008260550D8B0053C092695
:100B5C000650D8B0063C0A260750D8B0073C0B26E6
:100B6C0002360C2EDAD70134083609360A360B3623
:100B7C00045002A00ED0085E0550D8A0053C095EBA
:100B8C000650D8A0063C0A5E0750D8A0073C0B5E66
:100B9C000DD008260550D8B0053C09260650D8B013
:100BAC00063C0A260750D8B0073C0B260136070E28
:100BBC000C6E0134083609360A360B36045001A087
:100BCC000ED0085E0550D8A0053C095E0650D8A092
:100BDC00063C0A5E0750D8A0073C0B5E0DD00826D9
:100BEC000550D8B0053C09260650D8B0063C0A265C
:100BFC000750D8B0073C0B2601360C2EDAD7003440
:100C0C00083609360A360B36045001A00ED0085EA1
:100C1C000550D8A0053C095E0650D8A0063C0A5EDB
:100C2C000750D8A0073C0B5E0DD008260550D8B055
:100C3C00053C09260650D8B0063C0A260750D8B009
:100C4C00073C0B260036070E0C6E003408360936AE
:100C5C000A360B36045000A00ED0085E0550D8A002
:100C6C00053C095E0650D8A0063C0A5E0750D8A089
:100C7C00073C0B5E0DD008260550D8B0053C092664
:100C8C000650D8B0063C0A260750D8B0073C0B26B5
:100C9C0000360C2EDAD700B00ED0045008260550C2
:100CAC00D8B0053C09260650D8B0063C0A26075099
:080CBC00D8B0073C0B26120022
:100CC4000B6A0350D8B4A8EF06F002500A6E028EE5
:100CD4008E0E035E03AEACEF06F0036C080E035CED
:100CE400D8A087EF06F0036E013602C001F0026A55
:100CF400080E035CD8A087EF06F0036E0136016A84
:100D04000350D8A4D89091EF06F00350D8B491EFD3
:100D140006F0D89002320132032E8BEF06F00BBCA2
:100D240001A09EEF06F0D8A09EEF06F0012AD8B4E9
:100D3400022A02BEBBEF06F00AAEC1EF06F0021EA5
:100D4400011E012AD8B4022AC1EF06F0026A016A20
:100D5400C1EF06F00B800BAEC5EF06F0026A0AAED7
:100D6400C5EF06F0FF0E026E016E0A360232C5EFC1
:100D740006F0010E0C6E82EC01F0C7EF06F0000ED7
:100D84000C6EC7EF06F0FF0E0C6E0150006E0250A1
:040D9400016E1200DA
:100D980003014E6B4F6B48C350F349C351F3800EA8
:100DA8004919006E800E005C02E1000E485D0BE2FE
:100DB800010E4E6F000E4F6F48510008506F49C327
:100DC80051F3000E515750C352F351C353F34AC362
:100DD80054F34BC355F339EC01F0060E4C6F000E7B
:100DE8004D6F000E006E4D51005C02E14C51000841
:100DF80019E24C514A25E16E4D514B21E26E010E2C
:100E08004C5D006E000E4D59016E00504A25E96E8A
:100E180001504B21EA6EEECFE6FF010E4C5F000E4B
:100E28004D5BDFD74AC3E1FF4BC3E2FF200EE66EFE
:100E38004E514F111AE04C6B4D6B4C514A25E96EDF
:100E48004D514B21EA6EEE50200A03E14C4B4D2BDD
:100E5800F4D7010E4C5F000E4D5B4C514A25E16EF4
:0C0E68004D514B21E26E2D0EE66E120083
:100E7400220E0C6E086A096A0A6A0B6A0C06D8B458
:100E84001FD0D8900B320A320932083203320232B0
:100E940001320032D8A0F2D70C06D8B409D00450DD
:100EA40008260550092206500A2207500B22EAD7C9
:100EB400045008260550092206500A2207500B2226
:020EC40012001A
:100EC600030E0C6E950E0D6E0D2EFED70C2EFCD756
:020ED600120008
:100ED800830EC21648C300F000360090003600901A
:100EE8000050C21228EC01F0C282C2A201D0FDD784
:100EF800C4CF01F0006AC3500012000E01121200A4
:100F08000201E451040A010ED8A4000E016EE45156
:100F1800050A010ED8A4000E006E015000120DE063
:100F280049C352F348C353F34AC354F34BC355F36D
:100F38004CC356F3DEEC01F05DD0E451020A010E19
:100F4800D8A4000E016EE451030A010ED8A4000EC5
:100F5800006E0150001214E0070E03014903F3CF9D
:100F680052F3040E522748C353F3533753914AC3DD
:100F780054F34BC355F34CC356F3DEEC01F03AD0AF
:100F8800E36B48C300F00036009000360090005034
:100F9800080F0301526F90EC01F049C352F390EC33
:100FA80001F0010EE36F03014D6B4C514D5D22E2E0
:100FB8004D514A25E96E000E4B21EA6EEECF01F045
:100FC80001C052F35233529F5233529F5233529FB1
:100FD8005233529F90EC01F003014D514A25E96EBE
:100FE800000E4B21EA6EEECF52F390EC01F00301B4
:060FF8004D2BDBD71200B7
:100FFE000A6A0350D8A40A800750D8A40A820A505D
:10100E00D8B462EF08F0030AD8B41BEF08F00AB0A8
:10101E0016EF08F006AE60EF08F05EEF08F002AED5
:10102E005EEF08F060EF08F00250800B0A6E029E31
:10103E000650800B069E0A18D8B42CEF08F00A5002
:10104E00D8B45EEF08F060EF08F00750035CD8B438
:10105E0036EF08F0D8A052EF08F058EF08F006501F
:10106E00025CD8B440EF08F0D8A052EF08F058EF69
:10107E0008F00550015CD8B44AEF08F0D8A052EF42
:10108E0008F058EF08F00450005CD8B462EF08F096
:10109E00D8B058EF08F00A52D8B460EF08F05EEFFF
:1010AE0008F00A52D8B45EEF08F060EF08F0D8806E
:0E10BE001200D8901200D880D88412001200C0
:1010CC00010E0301486F02DFB6DC890E046E410E7F
:1010DC00056E1C0E066E810E076E6DEC03F0ECDDDA
:0210EC001200F0
:1010EE000301486BF2DE00C041F301C042F3800EF3
:1010FE00030A026E800E0118025C02E10050E8083D
:10110E0004E2010E0201146F02D00201146B41C3FE
:10111E0000F042C301F00DEC04F0890E046E410E96
:10112E00056E1C0E066E810E076E6DEC03F0C3DDB0
:02113E0012009D
:101140000301476B43C301F0010E006E015004E040
:1011500000360090FF0FFBD700C046F341C3E9FF04
:1011600042C3EAFF0050EE14016E0152010ED8A4F2
:10117000000E006E4551001A18E04451000804E2C8
:10118000A2DEA1DE4407F9D741C3E9FF42C3EAFF6B
:101190004651EE14016E0152010ED8A4000E006EED
:1011A0004551001A02E0FF0E476F47C300F01200DE
:1011B000A00E0301436F0F0E446F000E456F466F84
:1011C000A00E006E0F0E016E000E026E000E036E7A
:1011D00041C304F042C305F0000E066E076E4ADEFE
:1011E00000C043F301C044F302C045F303C046F31B
:1011F000000E035C08E1000E025C05E1020E015CDA
:1012000002E1940E005C01E231D0940E435F020EC5
:10121000445B000E455B465B050E006E005007E028
:101220004633453344334333469FFF0FF8D743C318
:1012300000F044C301F045C302F046C303F0010EC1
:10124000435F000E445B455B465B0050011002109B
:1012500003100CE00000000000000000000000008F
:0E12600000000000000000000000E1D71200B6
:10126E0004000201C66BC76B17A104D0C451C62778
:10127E00C551C72317A304D0C251C627C351C723D4
:10128E0017A504D0C851C627C951C72317A704D024
:10129E00CE51C627CF51C72317A904D0CC51C6278C
:1012AE00CD51C72317AB04D0CA51C627CB51C72384
:1012BE0017AD04D0C051C627C151C723800E270ACF
:1012CE00006E800EC719005C02E1C6510F081EE2C7
:1012DE00320EC625006E000EC721016E00C0C6F28A
:1012EE0001C0C7F200C048F301C049F3FE0E03016E
:1012FE004A6F020E4B6F49DDFFC2F7F200C3F8F2E0
:10130E002E0E0201F96F01C3FAF22AD0C6C248F3BB
:10131E00C7C249F3FE0E03014A6F020E4B6F35DD55
:10132E000051200A03E000C3F7F203D0300E020191
:10133E00F76F02012E0EF86F03010151200A03E030
:10134E0001C3F9F203D0300E0201F96F030102510D
:10135E00200A03E002C3FAF203D0300E0201FA6F44
:10136E000201EE51040A010ED8A4000E016EEE51D8
:10137E00050A010ED8A4000E006E015000122EE0D8
:10138E001E51010A04E1040E0301416F03D0030153
:10139E00060E416F41C348F3100E496FA20E4A6FFD
:1013AE00000E4B6F020E4C6FA8DD41C348F3580E72
:1013BE000301496F9F0E4A6F000E4B6F020E4C6F6A
:1013CE009CDD41C348F3280E0301496FF70E4A6FA7
:1013DE00020E4B6F040E4C6F90DD6DD00201EE517C
:1013EE00020A010ED8A4000E016EEE51030A010E80
:1013FE00D8A4000E006E015000122DE01E51010AFD
:10140E0003E10301416B03D00301010E416F41C3A0
:10141E0048F3090E496F9C0E4A6F000E4B6F020E79
:10142E004C6F6BDD41C348F30F0E0301496FA50EE0
:10143E004A6F000E4B6F020E4C6F5FDD41C348F3D7
:10144E000B0E0301496FF70E4A6F020E4B6F040E1F
:10145E004C6F53DD30D00201EE51010A2CE11E51CA
:10146E00010A03E10301416B03D00301010E416F39
:10147E0041C348F3090E496FAA0E4A6F000E4B6F17
:10148E00020E4C6F3ADD41C348F30F0E0301496F54
:10149E00A80E4A6F000E4B6F010E4C6F2EDD41C32E
:1014AE0048F30B0E0301496FF70E4A6F020E4B6F96
:1014BE00040E4C6F22DD04000201C66BC76B19A12E
:1014CE0004D0BE51C627BF51C72319A304D0D4518F
:1014DE00C627D551C72319A504D0D251C627D3513B
:1014EE00C72319A704D0D051C627D151C72319A994
:1014FE0004D0D651C627D751C72319AB04D0DA5121
:10150E00C627DB51C72319AD04D0D851C627D951F0
:10151E00C7231851151908E10001C0510201C62751
:10152E000001C1510201C723C6C248F3C7C249F325
:10153E00FE0E03014A6F020E4B6F27DC00C3F7F25B
:10154E0001C3F8F202C3F9F203C3FAF20201EE513B
:10155E00040A010ED8A4000E016EEE51050A010E0A
:10156E00D8A4000E006E015000122EE01E51010A8A
:10157E0004E1060E0301416F03D00301040E416F17
:10158E0041C348F3100E496FBD0E4A6F000E4B6FEC
:10159E00020E4C6FB2DC41C348F3580E0301496F83
:1015AE00B30E4A6F000E4B6F020E4C6FA6DC41C39A
:1015BE0048F3280E0301496FF70E4A6F020E4B6F68
:1015CE00040E4C6F9ADC6DD00201EE51020A010E30
:1015DE00D8A4000E016EEE51030A010ED8A4000E1F
:1015EE00006E015000122DE01E51010A04E1010EA1
:1015FE000301416F02D00301416B41C348F3090E51
:10160E00496FB00E4A6F000E4B6F020E4C6F75DCB9
:10161E0041C348F30F0E0301496FAD0E4A6F000E22
:10162E004B6F020E4C6F69DC41C348F30B0E030186
:10163E00496FF70E4A6F020E4B6F040E4C6F5DDC56
:10164E0030D00201EE51010A2CE11E51010A04E1D3
:10165E00010E0301416F02D00301416B41C348F3F8
:10166E00090E496FB60E4A6F000E4B6F020E4C6F8D
:10167E0044DC41C348F30F0E0301496FBB0E4A6FA2
:10168E00000E4B6F010E4C6F38DC41C348F30B0E4E
:10169E000301496FF70E4A6F020E4B6F040E4C6F2B
:0616AE002CDC0400120018
:1016B40000C008F00B6A0C6A9E0E036E0A6A026A86
:0E16C400016A006A020E0C6E2DEC04F012009A
:1016D2000450000A12E10550000A0FE10650000A08
:1016E2000CE10750000A09E1FF0E006EFF0E016EC9
:1016F2007F0E026EFF0E036EA8D0086A096A0750B9
:10170200D8B414EF0CF00350D8B419EF0CF0025017
:1017120006180A6E028E068E0E6A02C008F001C01A
:101722000CF000C00DF004500D5E0550D8A0053C31
:101732000C5E0650D8A0063C085E086A0C6A0D6A68
:10174200D8A0ABEF0BF0D89002320132003208324F
:10175200010E0E6E0750035ED8A0B8EF0BF07E0E9E
:101762000E240326D8B01EEF0CF0BEEF0BF07E0E57
:101772000E240326D8A023EF0CF0180E0B6E0D36A4
:101782000C3608360036013602360E360450005E3C
:101792000550D8A0053C015E0650D8A0063C025E6A
:1017A20006340E120EA0D9EF0BF00D80E4EF0BF011
:1017B200045000260550D8B0053C01260650D8B08A
:1017C200062802260D900B2EC0EF0BF00AEF0CF04C
:1017D200D8900036013602360E360450005E0550AF
:1017E200D8A0053C015E0650D8A0063C025E063435
:1017F2000E10010B0D26D8B00C2AD8B4082AD8A492
:101802000AEF0CF008320C320D32032AD8B41EEF64
:101812000CF00AAE089E0850026E0C50016E0D507C
:10182200006E26EF0CF0010E09EC04F026EF0CF02E
:10183200020EE8EC00F026EF0CF0040E2DEC01F0A5
:0C18420026EF0CF0080EDBEC00F01200AA
:10184E000EEC00F0DCC261F32BEC00F0800E030115
:10185E00616F2BEC00F041C361F32BEC00F066ECF2
:04186E0000F0120074
:10187200025006180E6E086A096A0B6A0350076462
:101882002CEF0DF006500A6E068E028E03500B6E80
:101892000750036E000E0B647CEF0CF00B50075EDA
:1018A200D8B41DEF0DF0070E0764EBEF0CF0075EE6
:1018B20000C008F001C000F002C001F0026A074E49
:1018C2001DEF0DF00764C0EF0CF0075E00C008F0DA
:1018D20001C000F0016A074E1DEF0DF007649EEF94
:1018E2000CF0075E00C008F0006A074E1DEF0DF015
:1018F200076485EF0CF00AC002F005C001F004C0D5
:1019020000F0086A49EF0EF0030E076490EF0CF046
:10191200075E08380F0B086E074E1DEF0DF0D890CA
:101922000832074E1DEF0DF0D8900832074E1DEF1A
:101932000DF0D89008321DEF0DF0030E0764AFEFE3
:101942000CF0075E08380F0B086E0038F00B082603
:1019520000380F0B006E074E1DEF0DF0D8900032CD
:101962000832074E1DEF0DF0D89000320832074EB4
:101972001DEF0DF0D890003208321DEF0DF0030E6E
:101982000764D7EF0CF0075E08380F0B086E0038BB
:10199200F00B082600380F0B006E0138F00B002602
:1019A20001380F0B016E074E1DEF0DF0D89001327A
:1019B20000320832074E1DEF0DF0D890013200328E
:1019C2000832074E1DEF0DF0D89001320032083276
:1019D2001DEF0DF0030E076408EF0DF0075E0838E7
:1019E2000F0B086E0038F00B082600380F0B006E44
:1019F2000138F00B002601380F0B016E0238F00B94
:101A0200012602380F0B026E074E1DEF0DF0D89023
:101A12000232013200320832074E1DEF0DF0D8902B
:101A22000232013200320832074E1DEF0DF0D8901B
:101A32000232013200320832096A000E0EAE11EF94
:101A42000EF0081E001E011E021E082A002201229C
:101A5200022211EF0EF00750D8A432EF0DF049EF39
:101A62000EF0096A02C00AF0028E068E0750035C6D
:101A7200076ED8B404EF0EF0070E0764D2EF0DF034
:101A8200075E0450096E0550046E0650056E066A24
:101A9200074E04EF0EF0070E0764A7EF0DF0075E86
:101AA2000450096E0550046E056A074E04EF0EF0ED
:101AB200070E076485EF0DF0075E0450096E046A95
:101AC200074E04EF0EF0070E07646CEF0DF00AC02C
:101AD20002F049EF0EF0030E076477EF0DF0075E98
:101AE20009380F0B096E074E04EF0EF0D890093239
:101AF200074E04EF0EF0D8900932074E04EF0EF0B5
:101B0200D890093204EF0EF0030E076496EF0DF041
:101B1200075E09380F0B096E0438F00B09260438EA
:101B22000F0B046E074E04EF0EF0D8900432093208
:101B3200074E04EF0EF0D89004320932074E04EF3C
:101B42000EF0D8900432093204EF0EF0030E07644F
:101B5200BEEF0DF0075E09380F0B096E0438F00B6B
:101B6200092604380F0B046E0538F00B04260538DD
:101B72000F0B056E074E04EF0EF0D89005320432BB
:101B82000932074E04EF0EF0D890053204320932C2
:101B9200074E04EF0EF0D89005320432093204EFFA
:101BA2000EF0030E0764EFEF0DF0075E09380F0B1E
:101BB200096E0438F00B092604380F0B046E053841
:101BC200F00B042605380F0B056E0638F00B0526C0
:101BD20006380F0B066E074E04EF0EF0D890063251
:101BE200053204320932074E04EF0EF0D890063265
:101BF200053204320932074E04EF0EF0D890063255
:101C0200053204320932086A000E0EAE11EF0EF0F0
:101C1200091E041E051E061E092A0422052206228A
:101C220009500826045000220550012206500222C3
:101C32000EBE28EF0EF0D8A037EF0EF002320132BE
:101C420000320832033E37EF0EF043EF0EF0D8B009
:101C52003DEF0EF0000E081E001E011E021E082A95
:101C62000022012202220A7E3DEF0EF0010E0C6ECE
:101C72002DEC04F04BEF0EF0020E0C6E2DEC04F086
:101C82004BEF0EF0040E0C6E2DEC01F04BEF0EF04C
:061C9200000E0C6E1200B2
:101C98000050086E0150006E0250016E0350026E33
:101CA800036A0B6A0C6A9E0E036E0A6A02AE69EF3B
:101CB8000EF0081E001E011E021E082AD8B4002AB3
:101CC800D8B4012AD8B4022A0A8E020E0C6E2DEC62
:041CD80004F0120002
:101CDC000450000A12E10550000A0FE10650000AF8
:101CEC000CE10750000A09E1FF0E006EFF0E016EB9
:101CFC00FF0E026E7F0E036E99D00C6A07BE0C2A83
:101D0C000D6A0B6A0A6A096A086A0350021001100C
:101D1C000010D8B485D0035007180E6E0EBE0D1EE1
:101D2C0007AE0BD0041E051E061E071E042AD8B4CF
:101D3C00052AD8B4062AD8B4072A03AE0BD0001E45
:101D4C00011E021E031E002AD8B4012AD8B4022A8E
:101D5C00D8B4032A035007100E6E0EBE1DD036ECFD
:101D6C0005F00CBE36D00DAE5BD0001E011E021E5F
:101D7C00031E002AD8B4012AD8B4022AD8B4032AE4
:101D8C00081E091E0A1E0B1E082AD8B4092AD8B42C
:101D9C000A2AD8B40B2A44D007AE15D003BE0DD0F6
:101DAC0003500B6E02500A6E0150096E0050086E03
:101DBC00036A026A016A006AD6D7036A026A016A78
:101DCC00006A002A000C031E021E011E001E0C8E4F
:101DDC00C6D7082AD8B4092AD8B40A2AD8B40B2AE8
:101DEC000450085CD8A4BFD70550095CD8A4BBD755
:101DFC0006500A5CD8A4B7D707500B5CD8A4B3D74D
:101E0C000B6A0A6A096A086A002AD8B4012AD8B48B
:101E1C00022AD8B4032A03AEA6D70E6A0E88FF0C8A
:0E1E2C000E6A0CA002D0FDEC03F0000F1200B5
:101E3A00800E006E800E03014219005C02E14151DE
:101E4A00500803E3006A016ABBD0800E006E800E60
:101E5A004219005C02E14151AB0805E3F40E412747
:101E6A00000E4223A9D0800E010A006E800E42198C
:101E7A00005C02E14151480805E3FE0E4127000ECD
:101E8A0042239AD0800E020A006E800E4219005C2C
:101E9A0002E14151460805E3180E4127010E42238B
:101EAA008BD0800E030A006E800E4219005C02E19C
:101EBA004151340805E3290E4127010E42237CD003
:101ECA00800E040A006E800E4219005C02E1415144
:101EDA004C0805E3360E4127010E42236DD0800ED1
:101EEA00080A006E800E4219005C02E14151850821
:101EFA0005E3AE0E4127010E42235ED0800E0C0A86
:101F0A00006E800E4219005C02E14151FA0805E3B5
:101F1A00E40E4127010E42234FD0800E120A006EB2
:101F2A00800E4219005C02E141510F0805E3120ECE
:101F3A004127020E422340D0800E160A006E800E00
:101F4A004219005C02E14151E60805E3880E412787
:101F5A00020E422331D0800E1B0A006E800E4219F7
:101F6A00005C02E14151EA0805E3E70E4127020E4F
:101F7A00422322D0800E210A006E800E4219005C94
:101F8A0002E14151360805E3200E4127030E4223A0
:101F9A0013D0800E290A006E800E4219005C02E1FD
:101FAA004151040805E3480E4127030E422304D099
:101FBA005C0E4127030E422341C300F042C301F0E5
:021FCA00120003
:101FCC000B6A0A6A096A00500402F4CF09F0F3CFD5
:101FDC0008F001500502F4CF0BF0F3CF0AF00050DB
:101FEC000502F3500926F4500A22E86A0B2201502C
:101FFC000402F3500926F4500A22E86A0B2208C0A6
:10200C0000F009C001F00AC002F00BC003F012008E
:10201C0002011651000A25E1030123B102D08A9670
:10202C0001D08A8623B302D0899401D0898423B548
:10203C0002D08A9801D08A8823B702D0899601D021
:10204C00898623B902D08A9A01D08A8A23BB02D00E
:10205C00899A01D0898A23BD02D0899801D08988B8
:10206C0024D0030123B102D08A8601D08A9623B3EF
:10207C0002D0898401D0899423B502D08A8801D0FA
:10208C008A9823B702D0898601D0899623B902D0C9
:10209C008A8A01D08A9A23BB02D0898A01D0899A74
:1020AC0023BD02D0898801D08998EFC241F3F0C2D8
:0820BC0042F3D8EC08F0120019
:1020C4000400030124510201A61903E1A5510301EF
:1020D4002319D8B4ABD0030123C3A5F224C3A6F2B9
:1020E400000E241902E1010E23193AE10201EE5116
:1020F400040A010ED8A4000E016EEE51050A010E69
:10210400D8A4000E006E015000120EE0020E03016E
:10211400486F400E496F250E4A6F020E4B6F040E36
:102124004C6F84EC07F018D00201EE51000A0EE067
:10213400010E0301486F040E496F200E4A6F020E10
:102144004B6F040E4C6F84EC07F006D00201EE5185
:10215400000A02E18A8C8A8E0201A56BA66B66D006
:1021640023C3A5F224C3A6F223C348F324C349F32B
:10217400FE0E03014A6F020E4B6FCCEC06F001C356
:10218400F7F22E0E0201F86F02C3F9F203C3FAF25A
:10219400EE51040A010ED8A4000E016EEE51050A98
:1021A400010ED8A4000E006E015000120EE0020EC3
:1021B4000301486F400E496FF70E4A6F020E4B6FD2
:1021C400040E4C6F84EC07F031D00201EE51000A8A
:1021D4000EE0010E0301486F040E496FF70E4A6FBB
:1021E400020E4B6F040E4C6F84EC07F01FD00201FB
:1021F400EE51000A1BE1800E006E800E03012419CB
:10220400005C02E12351960803E38A9C8A8E0ED077
:10221400800E006E800E2419005C02E12351FA083E
:1022240003E3819C819E02D0818C819E0400120074
:10223400810E0301416F0F0E426F436B190E446F01
:10224400456BA0EC08F000C023F3810E416F0F0E24
:10225400426F010E436F190E446F456BA0EC08F0FA
:1022640000502313810E416F0F0E426F020E436F15
:10227400190E446F456BA0EC08F02351001203E0E3
:08228400010E0101E26F1200DE
:10228C000201E451010806E2AF0E0301416F27EC95
:10229C000CF00ED0E451010A0BE1010EE56FE36B7B
:1022AC000301526B90EC01F00301526B90EC01F0C6
:0222BC0012000E
:1022BE0004000001BA51000A010ED8A4000E016EEE
:1022CE00B951010A010ED8A4000E006E005001167D
:1022DE00800E03012619006E800E005C02E1640E72
:1022EE00255D000ED8B0010E006E01500016D8B458
:1022FE00ABD002011C51000AD8A4A2D0EE51040AA0
:10230E00010ED8A4000E016EEE51050A010ED8A4DE
:10231E00000E006E015000122CE04250010A0EE138
:10232E00040E0301486F100E496F390E4A6F000EEE
:10233E004B6F080E4C6F84EC07F00DD0040E0301AA
:10234E00486F100E496F300E4A6F000E4B6F080E1D
:10235E004C6F84EC07F0060E0301486F100E496FA8
:10236E00430E4A6F000E4B6F080E4C6F84EC07F055
:10237E0067D00201EE51020A010ED8A4000E016EC2
:10238E00EE51030A010ED8A4000E006E0150001289
:10239E002AE04250010A0DE10301486B090E496F14
:1023AE005E0E4A6F000E4B6F080E4C6F84EC07F0FA
:1023BE000CD00301486B090E496F550E4A6F000E83
:1023CE004B6F080E4C6F84EC07F0010E0301486F43
:1023DE00090E496F4C0E4A6F000E4B6F080E4C6F74
:1023EE0084EC07F02DD00201EE51010A29E1425092
:1023FE00010A0DE10301486B090E496F280E4A6F61
:10240E00000E4B6F070E4C6F84EC07F00CD00301DF
:10241E00486B090E496F1D0E4A6F000E4B6F070E6B
:10242E004C6F84EC07F0010E0301486F090E496FE3
:10243E00150E4A6F000E4B6F070E4C6F84EC07F0B3
:10244E00010E02011C6F08D002011C51010A02E1AB
:10245E0037EC09F002011C6B040003012451020148
:10246E003F1903E13E5103012319D8B4A0D323C36E
:10247E003EF224C33FF24250000A4DE10301800EAA
:10248E002419006E800E005C02E1640E235D1EE3D3
:10249E00050E2325006E000E2421016E00C023F3CD
:1024AE0001C024F300C048F301C049F3FE0E4A6F89
:1024BE00020E4B6FCCEC06F000C3F7F201C3F8F23C
:1024CE0002C3F9F2570E0201FA6F24D023C348F368
:1024DE0024C349F3FE0E03014A6F020E4B6FCCEC80
:1024EE0006F00251200A03E002C3F7F203D0300EC9
:1024FE000201F76F02012E0EF86F03010351200A3D
:10250E0003E003C3F9F203D0300E0201F96F0201AA
:10251E00570EFA6F32D0800E03012419006E800E12
:10252E00030A005C02E1E70E235D14E223C348F3C5
:10253E0024C349F3FE0E4A6F020E4B6FCCEC06F02D
:10254E0001C3F7F202C3F8F203C3F9F2570E020108
:10255E00FA6F13D023C348F324C349F3FE0E0301CD
:10256E004A6F020E4B6FCCEC06F000C3F7F201C3BC
:10257E00F8F202C3F9F203C3FAF20201EE51040AB1
:10258E00010ED8A4000E016EEE51050A010ED8A45C
:10259E00000E006E015000120DE00301486B400E5C
:1025AE00496FF70E4A6F020E4B6F040E4C6F84ECA0
:1025BE0007F010D00201EE51000A0CE00301486B47
:1025CE00040E496FF70E4A6F020E4B6F040E4C6FDE
:1025DE0084EC07F0040002011C51010AD8A4E7D2D2
:1025EE001751000A010ED8A4000E016E1951000AEF
:1025FE00010ED8A4000E006E0150001604E025C393
:10260E00B9F226C3BAF2B9C200F0BAC201F00DECAB
:10261E0004F000C039F301C03AF302C03BF303C02B
:10262E003CF3000E046E000E056E480E066E850E0F
:10263E00076E39C300F03AC301F03BC302F03CC34E
:10264E0003F069EC0BF000C035F301C036F302C0A5
:10265E0037F303C038F339C304F03AC305F03BC374
:10266E0006F03CC307F0000E006E000E016E480E21
:10267E00026E850E036E69EC0BF035C304F036C3A3
:10268E0005F037C306F038C307F039EC0CF000C084
:10269E0035F301C036F302C037F303C038F3BBC2C3
:1026AE0000F05AEC0BF035C304F036C305F037C317
:1026BE0006F038C307F06DEC03F0000E046E000E4A
:1026CE00056E200E066E820E076E69EC0BF01F0E65
:1026DE00046E850E056E6B0E066E7B0E076E6DEC30
:1026EE0003F0000E046E000E056E000E066E7F0ED9
:1026FE00076E39EC0CF000C004F001C005F002C00A
:10270E0006F003C007F0000E006E000E016E000E04
:10271E00026E7F0E036E69EC0BF000C03DF301C03C
:10272E003EF302C03FF303C040F33DC327F33EC365
:10273E0028F33FC329F340C32AF325C300F026C371
:10274E0001F00DEC04F000C039F301C03AF302C001
:10275E003BF303C03CF3000E046E000E056E480EF4
:10276E00066E850E076E39C300F03AC301F03BC307
:10277E0002F03CC303F069EC0BF0000E046E000E89
:10278E00056E000E066E800E076E39EC0CF000C062
:10279E0035F301C036F302C037F303C038F339C343
:1027AE0004F03AC305F03BC306F03CC307F0000E3D
:1027BE00006E000E016E480E026E850E036E69EC01
:1027CE000BF035C304F036C305F037C306F038C33B
:1027DE0007F039EC0CF000C004F001C005F002C0A7
:1027EE0006F003C007F0000E006E000E016E000E24
:1027FE00026E810E036E69EC0BF000C02BF301C06C
:10280E002CF302C02DF303C02EF3000E046E000E47
:10281E00056E000E066E7F0E076E3DC300F03EC3C2
:10282E0001F03FC302F040C303F0FFEC07F0000ECF
:10283E00D8B0010E006E005209E0000E0301276FA2
:10284E00000E286F000E296F7F0E2A6F000E046E89
:10285E00000E056E000E066E7F0E076E2BC300F087
:10286E002CC301F02DC302F02EC303F0FFEC07F0D2
:10287E00000ED8B0010E006E005209E00301000EEA
:10288E002B6F000E2C6F000E2D6F7F0E2E6F23C33D
:10289E0000F024C301F00DEC04F027C304F028C3AC
:1028AE0005F029C306F02AC307F06DEC03F02BC325
:1028BE0004F02CC305F02DC306F02EC307F06DEC0B
:1028CE0003F062EC06F000C02FF301C030F327C313
:1028DE0000F028C301F029C302F02AC303F02BC372
:1028EE0004F02CC305F02DC306F02EC307F06DECDB
:1028FE0003F0000E046E000E056E480E066E850E79
:10290E00076E6DEC03F000C031F301C032F302C06C
:10291E0033F303C034F3000E046E000E056E480E42
:10292E00066E850E076EFFEC07F0000ED8B0010E96
:10293E00006E005209E00301000E316F000E326F7F
:10294E00460E336F850E346F4250000A4DE103017F
:10295E00800E3019006E800E005C02E1640E2F5D59
:10296E001EE3050E2F25006E000E3021016E00C0F5
:10297E002FF301C030F300C048F301C049F3FE0E3F
:10298E004A6F020E4B6FCCEC06F000C3F7F201C398
:10299E00F8F202C3F9F2570E0201FA6F24D02FC3D8
:1029AE0048F330C349F3FE0E03014A6F020E4B6F1C
:1029BE00CCEC06F00251200A03E002C3F7F203D07A
:1029CE00300E0201F76F02012E0EF86F0301035154
:1029DE00200A03E003C3F9F203D0300E0201F96FAF
:1029EE000201570EFA6F32D0800E03013019006EBD
:1029FE00800E030A005C02E1E70E2F5D14E22FC386
:102A0E0048F330C349F3FE0E4A6F020E4B6FCCEC07
:102A1E0006F001C3F7F202C3F8F203C3F9F2570E40
:102A2E000201FA6F13D02FC348F330C349F3FE0EE1
:102A3E0003014A6F020E4B6FCCEC06F000C3F7F2A7
:102A4E0001C3F8F202C3F9F203C3FAF20201EE5126
:102A5E00040A010ED8A4000E016EEE51050A010EF5
:102A6E00D8A4000E006E015000120EE0040E0301F9
:102A7E00486F400E496FF70E4A6F020E4B6F040EF1
:102A8E004C6F84EC07F02DD00201EE51020A010EBC
:102A9E00D8A4000E016EEE51030A010ED8A4000E4A
:102AAE00006E015000120DE00301486B0D0E496FD0
:102ABE00F70E4A6F020E4B6F040E4C6F84EC07F04C
:102ACE0010D00201EE51010A0CE10301486B0C0E0D
:102ADE00496FF70E4A6F020E4B6F040E4C6F84EC6B
:102AEE0007F031C300F032C301F033C302F034C338
:102AFE0003F062EC06F000C048F301C049F3FE0E8D
:102B0E0003014A6F020E4B6FCCEC06F002C3F7F2D4
:102B1E0003C3F8F20201EE51040A010ED8A4000E0E
:102B2E00016EEE51050A010ED8A4000E006E015082
:102B3E0000120EE0060E0301486F4C0E496FF70EA1
:102B4E004A6F020E4B6F020E4C6F84EC07F02FD0C3
:102B5E000201EE51020A010ED8A4000E016EEE51D2
:102B6E00030A010ED8A4000E006E015000120EE0F2
:102B7E00010E0301486F0E0E496FF70E4A6F020EDB
:102B8E004B6F020E4C6F84EC07F011D00201EE5128
:102B9E00010A0DE1010E0301486F0D0E496FF70E8C
:102BAE004A6F020E4B6F020E4C6F84EC07F004005E
:022BBE00120003
:102BC000030123B102D08B9E01D08B8E23B302D0A0
:102BD0008B9601D08B8623B502D08B9C01D08B8C39
:102BE00023B702D08B9401D08B8423B902D08B9A67
:102BF00001D08B8A23BB02D08B9201D08B8223BD64
:102C000002D08B9801D08B88000E0201191902E1C5
:102C10001551181902E1898E01D0899EEFC241F346
:0A2C2000F0C242F3D8EC08F01200F5
:102C2A00040077EC08F000C023F301C024F3000E7F
:102C3A0001BEFF0E0301256F266F66EC08F000C087
:102C4A0027F301C028F3000E01BEFF0E0301296F0E
:102C5A002A6F2750010A1BE123C300F024C301F0A5
:102C6A00030E046E000E056EE6EC0FF000C041F391
:102C7A0001C042F31DEC0FF00DEC04F000C02BF381
:102C8A0001C02CF302C02DF303C02EF31AD023C3C4
:102C9A0000F024C301F025C302F026C303F0030E9B
:102CAA00046E000E056E066E076E3AEC07F04CECE9
:102CBA000EF000C02BF301C02CF302C02DF303C0A9
:102CCA002EF3800E2A19006E800E2619005C08E188
:102CDA002551295D05E12451285D02E12351275D33
:102CEA0008E3E70E236F030E246F000E256F266F8D
:102CFA0045D027512325006E28512421016E2951E0
:102D0A002521026E2A512621036E640E046E000EDE
:102D1A00056E066E076E3AEC07F023C304F024C36F
:102D2A0005F025C306F026C307F02751045E285193
:102D3A00055A2951065A2A51075A6EEC0EF000C05C
:102D4A0023F301C024F302C025F303C026F3800E47
:102D5A00046E800E0318045C08E10250000805E1C5
:102D6A000150030802E10050E70808E2E70E0301F8
:102D7A00236F030E246F000E256F266F26C000F006
:102D8A005AEC0BF02BC304F02CC305F02DC306F04C
:102D9A002EC307F06DEC03F0000E046E000E056EF4
:102DAA007A0E066E880E076E69EC0BF000C02BF3E4
:102DBA0001C02CF302C02DF303C02EF3F40E046EEF
:102DCA00FD0E056E340E066E7F0E076E69EC0BF073
:102DDA0000C02BF301C02CF302C02DF303C02EF365
:102DEA004250010A25E12BC300F02CC301F02DC388
:102DFA0002F02EC303F02BC304F02CC305F02DC33D
:102E0A0006F02EC307F06DEC03F0000E046E000E00
:102E1A00056E480E066E840E076E69EC0BF000C054
:102E2A002BF301C02CF302C02DF303C02EF324D0E0
:102E3A002BC300F02CC301F02DC302F02EC303F004
:102E4A002BC304F02CC305F02DC306F02EC307F0E4
:102E5A006DEC03F0000E046E000E056E200E066E79
:102E6A00810E076E69EC0BF000C02BF301C02CF346
:102E7A0002C02DF303C02EF32BC300F02CC301F0C4
:102E8A002DC302F02EC303F0000E046E000E056E71
:102E9A00000E066E7E0E076E39EC0CF000C02BF3A6
:102EAA0001C02CF302C02DF303C02EF362EC06F02E
:102EBA0000C0ECF201C0EDF2800E0118026E800E25
:102ECA00025C02E10A0E005C06E2010E0201E86FF2
:102EDA00000EE96F1AD0800E03012619006E800ECB
:102EEA00005C08E1000E255D05E1000E245D02E1AB
:102EFA00640E235D06E2E70E0201E86F030EE96F36
:0C2F0A0004D023C3E8F224C3E9F2120053
:102F160003011F6B206B010E216F000E226F640EE2
:102F26000201EA5D03011C6F000E0201EB59030169
:102F36001D6F0201EC6BED6B0400780E03011E6F32
:102F46001B6B1E511B5D47E281B202D0068001D089
:102F5600069081B402D0D88001D0D89006B003D0B4
:102F660002E2069001D0068081B002D0D88001D05E
:102F7600D89006B003D002E2069001D0068006A0E3
:102F860008D01AEC11F00101E251010A02E1E26BEC
:102F9600CED248DE800E03012019006E800E02019B
:102FA600ED19005C03E1EC5103011F5D08E2ECC280
:102FB6001FF3EDC220F3E8C221F3E9C222F3100E9B
:102FC6000C6E940E0D6E03010D2EFDD70C2EFBD745
:102FD60000001B2BB6D704001FC3DBF120C3DCF1B6
:102FE60021C323F322C324F362EC10F0800E030105
:102FF6002219006E800E005C02E1640E215D16E36C
:1030060046EC11F0E1C100F05AEC0BF0DDC104F022
:10301600DEC105F0DFC106F0E0C107F06DEC03F09C
:1030260062EC06F000C0D9F101C0DAF1800E0301AE
:103036002219006E800E0201EB19005C03E1EA51D1
:103046000301215D000ED8B0010E006E0050010193
:10305600E315056E800E02011319036E800E03013F
:103066002219035C03E121510201125D0201010EE6
:10307600D8B0000E036E12510301215D016E0201EC
:10308600135103012259026E800E1D19006E800E27
:103096000218005C02E101501C5D010ED8B0000E62
:1030A600006E00500314046E800E2219036E800E0B
:1030B60002011319035C03E112510301215D0301AF
:1030C600010ED8B0000E036E21510201125D016E91
:1030D6000301225102011359026E800E03011D19CC
:1030E600006E800E0218005C02E101501C5D010EAC
:1030F600D8B0000E006E0350001600500410016E8A
:1031060002011351030A02E1E70E1219010ED8A4B7
:10311600000E006E015000120550001602E0010E6E
:10312600116F81B202D0068001D0069081B402D020
:10313600D88001D0D89006B003D002E2069001D024
:10314600068081B002D0D88001D0D89006B003D0D6
:1031560002E2069001D0068006A008D01AEC11F013
:103166000101E251010A02E1E26BE1D1DBC123F385
:10317600DCC124F321C325F322C326F35FEC11F04F
:1031860081B202D0068001D0069081B402D0D880E8
:1031960001D0D89006B003D002E2069001D0068096
:1031A60081B002D0D88001D0D89006B003D002E218
:1031B600069001D0068006A008D01AEC11F0010195
:1031C600E251010A02E1E26BB2D10400020114519C
:1031D600010AD8A4ACD1EE51040A010ED8A4000EFF
:1031E600016EEE51050A010ED8A4000E006E0150C4
:1031F6000012D8B4CAD0020E0301486F100E496FF0
:10320600080E4A6F020E4B6F080E4C6F84EC07F0E7
:10321600030E0B6E080E0C6E770E0D6E0D2EFED77E
:103226000C2EFCD70B2EFAD7020E0301486F100E98
:10323600496FED0E4A6F010E4B6F080E4C6F84EC12
:1032460007F00B0E0B6E260E0C6E5D0E0D6E0D2E20
:10325600FED70C2EFCD70B2EFAD700000000040078
:10326600020E0301486F100E496FE40E4A6F010EFD
:103276004B6F080E4C6F84EC07F0070E0B6E170EA3
:103286000C6E6A0E0D6E0D2EFED70C2EFCD70B2E75
:10329600FAD700000400020E0301486F100E496FB2
:1032A600FF0E4A6F010E4B6F080E4C6F84EC07F051
:1032B6000B0E0B6E260E0C6E5D0E0D6E0D2EFED7D2
:1032C6000C2EFCD70B2EFAD7000000000400020ECD
:1032D6000301486F100E496FF60E4A6F010E4B6FD1
:1032E600080E4C6F84EC07F0070E0B6E170E0C6E73
:1032F6006A0E0D6E0D2EFED70C2EFCD70B2EFAD7AE
:1033060000000400020E0301486F100E496F890E7B
:103316004A6F020E4B6F080E4C6F84EC07F00B0ED3
:103326000B6E260E0C6E5D0E0D6E0D2EFED70C2E40
:10333600FCD70B2EFAD7000000000400020E030192
:10334600486F100E496F800E4A6F020E4B6F080EC3
:103356004C6F84EC07F0030E0B6E080E0C6E770EA6
:103366000D6E0D2EFED70C2EFCD70B2EFAD7020EA5
:103376000301486F100E496F9B0E4A6F020E4B6F8A
:10338600080E4C6F84EC07F0C6D00201EE51000A1D
:10339600D8B4C1D0010E0301486F496B920E4A6F33
:1033A600020E4B6F080E4C6F84EC07F0030E0B6E8B
:1033B600080E0C6E770E0D6E0D2EFED70C2EFCD75A
:1033C6000B2EFAD7010E0301486F496B770E4A6F31
:1033D600020E4B6F080E4C6F84EC07F00B0E0B6E53
:1033E600260E0C6E5D0E0D6E0D2EFED70C2EFCD726
:1033F6000B2EFAD7000000000400010E0301486FEF
:10340600496B5C0E4A6F020E4B6F080E4C6F84ECD4
:1034160007F0070E0B6E170E0C6E6A0E0D6E0D2E54
:10342600FED70C2EFCD70B2EFAD700000400010E97
:103436000301486F496B530E4A6F020E4B6F080E1D
:103446004C6F84EC07F00B0E0B6E260E0C6E5D0EA9
:103456000D6E0D2EFED70C2EFCD70B2EFAD70000C4
:1034660000000400010E0301486F496B6E0E4A6F9F
:10347600020E4B6F080E4C6F84EC07F0070E0B6EB6
:10348600170E0C6E6A0E0D6E0D2EFED70C2EFCD787
:103496000B2EFAD700000400010E0301486F496B9A
:1034A600650E4A6F020E4B6F080E4C6F84EC07F0E8
:1034B6000B0E0B6E260E0C6E5D0E0D6E0D2EFED7D0
:1034C6000C2EFCD70B2EFAD7000000000400010ECC
:1034D6000301486F496BA70E4A6F020E4B6F080E29
:1034E6004C6F84EC07F0030E0B6E080E0C6E770E15
:1034F6000D6E0D2EFED70C2EFCD70B2EFAD7010E15
:103506000301486F496BB00E4A6F020E4B6F080EEF
:103516004C6F84EC07F00400100E0201A56F270E15
:10352600A66F21C323F322C324F362EC10F012002A
:10353600A6A202D00000FCD7A69C1BC3A9FF1CC3F1
:10354600A8FFA69EA684F2CF00F0F29E550EA76EA7
:10355600AA0EA76EA68200BE02D0F29E01D0F28EFF
:0E356600A694A1B802D00000FCD7A1981200D4
:103574000201176B196B0301236B0EEC10F019C2D7
:1035840023F3E0EC15F0EFC241F3F0C242F3D8ECC0
:0435940008F0120029
:1035980003011BB102D08B9001D08B80EFC241F3A5
:0A35A800F0C242F3D8EC08F0120064
:1035B200E0DF010E02011E6F010E03011B6FEBDF44
:1035C200050E02011803F3CF00F00050FF080301BB
:1035D2001B6F1C6BAFDF050E02011803F3CF00F067
:1035E2000050FE0803011B6F1C6BA4DF050E0201D5
:1035F2001803F3CF00F00050FD0803011B6F010E0A
:103602001C6F98DF050E02011803F3CF00F0005083
:10361200FC0803011B6F1C6B8DDF050E02011803F2
:10362200F3CF00F00050FB0803011B6F1C6B82DF1D
:1036320037EC09F002011C6B898CE86BE96BEC6BCF
:10364200ED6B126B136BEE51040A010ED8A4000E3F
:10365200016EEE51050A010ED8A4000E006E015053
:1036620000122BE0020E0301486F100E496F490E43
:103672004A6F020E4B6F080E4C6F84EC07F0040089
:103682000D0E0B6E2D0E0C6ED70E0D6E0D2EFED77F
:103692000C2EFCD70B2EFAD700000000020E0301FD
:1036A200486F100E496F400E4A6F020E4B6F080EA4
:1036B2004C6F84EC07F004002FD00201EE51000A97
:1036C20029E0010E0301486F496B2B0E4A6F020E6F
:1036D2004B6F080E4C6F84EC07F004000D0E0B6E5E
:1036E2002D0E0C6ED70E0D6E0D2EFED70C2EFCD7A6
:1036F2000B2EFAD700000000010E0301486F496B40
:10370200350E4A6F020E4B6F080E4C6F84EC07F0B9
:10371200040002D08A8C8A8E100E0201A56F270E39
:10372200A66F100E3E6F270E3F6F8BEC17F0120044
:103732000134083609360450085E0550D8A0053C0D
:10374200095E003601360F0E0C6E0134083609365A
:10375200045000A006D0085E0550D8A0053C095EC2
:1037620005D008260550D8B0053C0926003601369A
:103772000C2EEBD700B006D0045008260550D8B066
:08378200053C092600001200BD
:10378A000450000A08E10550000A05E1FF0E006E28
:10379A007F0E016E57D00D6A096A086A015000103F
:1037AA00D8B4000C015005180A6E0ABE0D1E0B6A29
:1037BA0005AE05D0041E051E042AD8B4052A01AE9A
:1037CA0005D0001E011E002AD8B4012A0150051096
:1037DA000A6E0ABE10D0A8DF0BB020D00DAE000CC6
:1037EA00001E011E002AD8B4012A081E091E082A32
:1037FA00D8B4092A000C05AE0DD001BE07D001507D
:10380A00096E0050086E016A006AE8D7016A006A08
:10381A00002A000C011E001E0B2ADDD7082AD8B484
:10382A00092A0450085CD8A4D9D70550095CD8A441
:10383A00D5D7096A086A002AD8B4012A01AECED7B8
:06384A000000FF0C12005B
:1038500015EC16F002013451640A10E0342B800E8E
:10386000F619006E800EED19005C02E1EC51F55D79
:1038700004E2ECC2F5F2EDC2F6F20ED0346BF5C202
:1038800023F3F6C224F3E8C225F3E9C226F35FEC82
:1038900011F00201F56BF66B0201800EED19026E5C
:1038A000800EF219025C02E1F151EC5D010ED8B01C
:1038B000000E026E800EF419016E800EED19015C8F
:1038C00002E1EC51F35D010ED8B0000E016E800EE6
:1038D000006E800EF419005C02E1F3510008010E45
:1038E000D8B0000E006E015000160250001251E0D8
:1038F000040015EC16F002013451640A10E0342B78
:10390000800EF619006E800EED19005C02E1EC519C
:10391000F55D04E2ECC2F5F2EDC2F6F20ED0346BC6
:10392000F5C223F3F6C224F3E8C225F3E9C226F375
:103930005FEC11F00201F56BF66B810E0301416F34
:103940000F0E426F436B050E446F010E456FA0ECE6
:1039500008F0005203E0010E02011D6F02011D512B
:10396000010A010ED8A4000E03011A6F810E416FE7
:103970000F0E426F436B050E446F456BA0EC08F0D1
:103980001A51001605E015DE0201E86BE96B01D063
:0439900083D71200C7
:10399400030E0301196F0201196B0301236BE0ECA1
:1039A40015F019C31FF252DF000E0201E91902E1FA
:1039B400000EE81901E190D0140E046E000E056E9D
:1039C400E8C200F0E9C201F0DEDE00500201E825A1
:1039D4000301176F01500201E9210301186F19C394
:1039E40016F3030116511F08D8A072D01651020114
:1039F4001B03F3CF23F3E0EC15F028DF000E0201E4
:103A0400E91902E1000EE81901E166D0800EE91916
:103A1400006E800E03011819005C03E117510201C6
:103A2400E85D54E2140E046E000E056EE8C200F068
:103A3400E9C201F0A8DE00500201E8250301176F76
:103A440001500201E9210301186F165102011B0301
:103A5400F3CF19F219C31FF2800EE919006E800E1C
:103A6400005C02E1780EE85D01E232D003011951F5
:103A74001625026E02C016F302011A51000A010E45
:103A8400D8A4000E016E0250090A010ED8A4000E3B
:103A9400006E0150001604E0080E0301166F15D0E5
:103AA40002011A51000A010ED8A4000E016E03018E
:103AB4001651110A010ED8A4000E006E0150001612
:103AC40004E0100E166F040E196F01D001D089D7CF
:0A3AD40019C223F3E0EC15F0120014
:103ADE00030E0301156F116B15C3A4F2030E126FC3
:103AEE00140E046E000E056EE8C200F0E9C201F07D
:103AFE0045DE00500201E8250301136F015002015B
:103B0E00E9210301146F106B030110511F08D8A097
:103B1E0077D0105102015203F3CF23F30EEC10F0C5
:103B2E0032DF8FDE000E0201E91902E1000EE81904
:103B3E0001E17CD0800EE919006E800E030114198C
:103B4E00005C03E113510201E85D58E2140E046EAD
:103B5E00000E056EE8C200F0E9C201F00FDE005063
:103B6E000201E8250301136F01500201E92103014F
:103B7E00146F105102015203F3CF17F219C211F351
:103B8E0015C3A4F21FC212F3800EE919006E800E47
:103B9E00005C02E1780EE85D01E232D003011551BE
:103BAE001025026E02C010F302012A51000A010E06
:103BBE00D8A4000E016E0250090A010ED8A4000E00
:103BCE00006E0150001604E0080E0301106F15D0B0
:103BDE0002012A51000A010ED8A4000E016E030143
:103BEE001051110A010ED8A4000E006E01500016DD
:103BFE0004E0100E106F040E156F01D001D084D7A3
:103C0E0011C319F217C223F30EEC10F019C223F3ED
:103C1E00E0EC15F012C31FF2340E0C6EF10E0D6EA9
:0E3C2E000D2EFED70C2EFCD700000000120059
:103C3C0002011F511B03F3CF00F000C010F3005022
:103C4C001925046E04C012F3050E026E1BC200F09F
:103C5C00000E016E025005E0003600900136FF0F99
:103C6C00FAD7010E005C026E000E0158036E800E36
:103C7C000318006E800E005C02E10450025C0DE241
:103C8C00050E006E1BC212F3005005E00301123743
:103C9C001291FF0FFAD70301120702011951030108
:103CAC00105D06E210510201195D0301136F01D082
:103CBC00136B13C319F213C323F3E0EC15F0C2DD3D
:103CCC00000E0201E91902E1000EE81901E170D0C1
:103CDC00E8C214F3E9C215F31B5103011325116F4C
:103CEC001151125D61E311C323F3E0EC15F0AADD71
:103CFC00000E0201E91902E1000EE81901E158D0A9
:103D0C00800EE919006E800E03011519005C03E1A9
:103D1C0014510201E85D0BE3340E0C6EF10E0D6EC6
:103D2C000D2EFED70C2EFCD7000000008BDD800E74
:103D3C000201E919006E800E03011519005C03E104
:103D4C0014510201E85D0BE3340E0C6EF10E0D6E96
:103D5C000D2EFED70C2EFCD70000000073DD800E5C
:103D6C000201E919006E800E03011519005C03E1D4
:103D7C0014510201E85D12E20201E8C214F3E9C237
:103D8C0015F311C319F2800EE919006E800E005C58
:103D9C0002E1780EE85D01E207D001D005D0020106
:103DAC001B51030111279CD719C223F3E0EC15F02A
:023DBC001200F3
:103DBE000201A4515203F3CF00F000C010F30050E3
:103DCE001725046E04C012F3050E026E52C200F0E7
:103DDE00000E016E025005E0003600900136FF0F16
:103DEE00FAD7010E005C026E000E0158036E800EB3
:103DFE000318006E800E005C02E10450025C0DE2BE
:103E0E00050E006E52C212F3005005E00301123788
:103E1E001291FF0FFAD70301120702011751030186
:103E2E00105D06E210510201175D0301136F01D000
:103E3E00136B13C317F213C323F30EEC10F001DD53
:103E4E00000E0201E91902E1000EE81901E170D03D
:103E5E00E8C214F3E9C215F3525103011325116F91
:103E6E001151125D61E311C323F30EEC10F0E9DC86
:103E7E00000E0201E91902E1000EE81901E158D025
:103E8E00800EE919006E800E03011519005C03E126
:103E9E0014510201E85D0BE3340E0C6EF10E0D6E43
:103EAE000D2EFED70C2EFCD700000000CADC800EB3
:103EBE000201E919006E800E03011519005C03E181
:103ECE0014510201E85D0BE3340E0C6EF10E0D6E13
:103EDE000D2EFED70C2EFCD700000000B2DC800E9B
:103EEE000201E919006E800E03011519005C03E151
:103EFE0014510201E85D12E20201E8C214F3E9C2B4
:103F0E0015F311C317F2800EE919006E800E005CD6
:103F1E0002E1780EE85D01E207D001D005D0020182
:103F2E005251030111279CD717C223F30EEC10F048
:023F3E0012006F
:103F4000E8C20AF3E9C20BF3CADD000E0201E91967
:103F500002E1000EE81903E1BAEC1AF018D178DC9E
:103F6000800E0201E919006E800E005C02E1780EFD
:103F7000E85D01E20CD123DF000E0201E91902E144
:103F8000000EE81903E1BAEC1AF001D161DC800EF1
:103F90000201E919006E800E005C02E1780EE85D16
:103FA00001E2F5D04BDE000E0201E91902E1000E3C
:103FB000E81903E1BAEC1AF0EAD04ADC800E0201FB
:103FC000E919006E800E005C02E1780EE85D01E206
:103FD000DED0800EE919016E800E015C02E1C80E90
:103FE000E85D010ED8B0000E016E800EE919006E7A
:103FF000800E03010B19005C03E10A510201E85D28
:104000000201010ED8B0000E006E00500114036EC4
:10401000E85103010A5D016E0201E95103010B59E8
:10402000026E800E006E800E0218005C02E10150EC
:104030006408010ED8B0000E006E0350001601E0B7
:10404000A6D0E8C20AF3E9C20BF317C20CF3000EC4
:104050000D6F19C20EF3000E0F6F02011E51010AFF
:1040600002E11E6B02D0010E1E6FBAEC1AF01EC2E6
:104070001BF3CCEC1AF0020E0B6E040E0C6EBA0E93
:104080000D6E0D2EFED70C2EFCD70B2EFAD700008E
:1040900028EC1CF0800E0201E919006E800E005C15
:1040A00002E1780EE85D01E272D019DD000E020136
:1040B000E91902E1000EE81903E1BAEC1AF067D041
:1040C00028EC1CF0800E0201E919006E800E005CE5
:1040D00002E1780EE85D01E25AD071DE000E0201C5
:1040E000E91902E1000EE81903E1BAEC1AF04FD029
:1040F00028EC1CF0800E0201E919006E800E005CB5
:1041000002E1780EE85D01E242D098DD000E020186
:10411000E91902E1000EE81903E1BAEC1AF037D010
:1041200028EC1CF0800E0201E919006E800E005C84
:1041300002E1780EE85D01E22AD0800E03010B193E
:10414000006E800E0201E919005C03E1E8510301F1
:104150000A5D1CE202011E51010A02E11E6B02D03F
:10416000010E1E6F1EC21BF3CCEC1AF00CC317F22B
:104170000EC319F20CC323F30EEC10F019C223F393
:10418000E0EC15F00AC3E8F20BC3E9F204001200F8
:1041900004000201346BF56BF66B1D6B28EC1CF010
:1041A000800E0201E919006E800E005C02E16E0EC5
:1041B000E85D01E2B7D0BAEC1AF00001B951000A8B
:1041C00002E137EC09F0020E0B6E040E0C6EBA0E13
:1041D0000D6E0D2EFED70C2EFCD70B2EFAD700003D
:1041E00028EC1CF0E8C2B9F2E9C2BAF2800E020172
:1041F000E919006E800E005C02E16E0EE85D01E2DE
:1042000091D0800E016E800EBD19015C02E1BC519F
:104210006E08010ED8B0000E016E800EBD19006E42
:10422000800EE919005C02E1E851BC5D010ED8B0D6
:10423000000E006E0150001601E074D081DE000E09
:104240000201E91902E1000EE81903E1BAEC1AF0E3
:1042500069D0800E0201E919006E800E005C02E157
:10426000780EE85D01E25ED000019051050A010E72
:10427000D8A4000E016E9951050A010ED8A4000EB3
:10428000006E0150001601E04DD09951050806E27C
:1042900052C2A4F2010E0201526F91DD800E0201A2
:1042A000E919006E800E005C02E1780EE85D01E223
:1042B00039D000019051050806E21BC21FF2010E21
:1042C00002011B6FBBDC00019951050A04E1010EDC
:1042D0000201526F0FD000019951060A04E1020E4B
:1042E0000201526F07D000019951070A03E1040E41
:1042F0000201526F00019051050A04E1010E020112
:104300001B6F0FD000019051060A04E1020E02015A
:104310001B6F07D000019051070A03E1040E020150
:064320001B6F04001200F7
:104326000301086B0201E451000A31E0938E016A31
:10433600015007081AE3030108370891FE0E081713
:10434600060E0D6E0D2EFED70000938C060E0D6E1A
:104356000D2EFED7000081BE082B939C060E0D6E17
:104366000D2EFED70000012AE3D7938E060E0D6EA2
:104376000D2EFED70000938C060E0D6E0D2EFED769
:104386000000939C060E0D6E0D2EFED7000008C38E
:0443960000F0120021
:10439A00A69C08C3A9FFA69EA680A8CF00F012007B
:1043AA0008C300F00032009E0032009E0032009ED8
:1043BA000032009E0A0E0002F3CF01F00F0E030135
:0A43CA000815006E015000261200D5
:1043D4000EEC00F0DCC261F32BEC00F00301616B26
:1043E4002BEC00F0AE0E0301616F2BEC00F0020128
:1043F400E451020A010ED8A4000E016EE451030A2E
:10440400010ED8A4000E006E01500012D8B497D04B
:10441400D50E0301616F2BEC00F0800E0301616F78
:104424002BEC00F0A80E0301616F2BEC00F03F0EA3
:104434000301616F2BEC00F0D30E0301616F2BECD1
:1044440000F00201E451020A05E1E7C261F32BEC3A
:1044540000F007D00201E7511F0F0301616F2BEC3D
:1044640000F0400E0301616F2BEC00F08D0E030190
:10447400616F2BEC00F0140E0301616F2BEC00F064
:10448400810E0301616F2BEC00F0B40E0301616F28
:104494002BEC00F0D90E0301616F2BEC00F0220E1F
:1044A4000301616F2BEC00F0200E0301616F2BEC14
:1044B40000F0020E0301616F2BEC00F0210E0301EA
:1044C400616F2BEC00F00301616B2BEC00F07F0EAD
:1044D4000301616F2BEC00F02E0E0301616F2BECD6
:1044E40000F00201E451020A0BE1A00E0301616F26
:1044F4002BEC00F0C00E0301616F2BEC00F00AD02E
:10450400A10E0301616F2BEC00F0C80E0301616F73
:104514002BEC00F0DA0E0301616F2BEC00F0020EBD
:104524000301616F2BEC00F0DB0E0301616F2BECD8
:1045340000F0400E0301616F2BEC00F08AD0D50E21
:104544000301616F2BEC00F0800E0301616F2BEC13
:1045540000F0A80E0301616F2BEC00F03F0E030185
:10456400616F2BEC00F0D30E0301616F2BEC00F0B4
:10457400E7C261F32BEC00F0400E0301616F2BECFA
:1045840000F08D0E0301616F2BEC00F0140E03019B
:10459400616F2BEC00F0810E0301616F2BEC00F0D6
:1045A400FF0E0301616F2BEC00F0D90E0301616F64
:1045B4002BEC00F0F10E0301616F2BEC00F0200EE8
:1045C4000301616F2BEC00F0020E0301616F2BEC11
:1045D40000F0210E0301616F2BEC00F00301616B0D
:1045E4002BEC00F07F0E0301616F2BEC00F02E0E1C
:1045F4000301616F2BEC00F00201E451040A0BE1AA
:10460400A00E0301616F2BEC00F0C00E0301616F7B
:104614002BEC00F00AD0A10E0301616F2BEC00F02B
:10462400C80E0301616F2BEC00F0DA0E0301616F19
:104634002BEC00F0120E0301616F2BEC00F0DB0E8B
:104644000301616F2BEC00F0400E0301616F2BEC52
:1046540000F0A40E0301616F2BEC00F0A60E030121
:10466400616F2BEC00F066EC00F0030E0B6E080E8D
:104674000C6E770E0D6E0D2EFED70C2EFCD70B2E66
:10468400FAD70EEC00F0DCC261F32BEC00F0400E24
:104694000301616F2BEC00F00201E451020A010EE8
:1046A400D8A4000E016EE451030A010ED8A4000E32
:1046B400006E0150001219E00301096B095103084F
:1046C40013E309C35CF35D6B7DEC00F00301086B3D
:1046D4000301800E085D05E2082B616B2BEC00F0F2
:1046E400F7D70301092BEAD718D00301096B095145
:1046F400070813E309C35CF35D6B7DEC00F0030171
:10470400086B0301800E085D05E2082B616B2BEC3E
:1047140000F0F7D70301092BEAD766EC00F0AF0EDF
:0A4724000301416F27EC0CF01200B6
:10472E00086A080E0C6E003408360450085ED8B0C5
:0E473E0002D00826D89000360C2EF5D71200B7
:10474C00D80E0201DE6F0E0EDF6F480EE06F030E07
:10475C00E16FC26A0101061D006E0050C116070E02
:08476C00C012C08EC2801200D1
:1047740004000201EE51040A010ED8A4000E016ED9
:10478400EE51050A010ED8A4000E006E015000126D
:104794000EE0020E0301486F400E496FD10E4A6FBE
:1047A400000E4B6F040E4C6F84EC07F014D0020122
:1047B400EE51000A0EE0010E0301486F040E496F2A
:1047C400CC0E4A6F000E4B6F040E4C6F84EC07F056
:1047D40002D08A8C8A8EDADC0201EE51000A1BE1D7
:1047E400800E006E800EE919005C02E1E851960823
:1047F40003E38A9C8A8E0ED0800E006E800EE91927
:10480400005C02E1E851FA0803E3819C819E02D036
:10481400818C819E12D01C51000A010ED8A4000E76
:10482400016E0001B951000A010ED8A4000E006EF9
:104834000150001202E037EC09F0050E02011803E2
:10484400F3CF00F00050FF0803011B6F19C21CF3E3
:104854009BEC1AF0050E02011803F3CF00F0005090
:10486400FE0803011B6F17C21CF39BEC1AF0050E24
:1048740002011803F3CF00F00050FD0803011B6F81
:104884001EC21CF39BEC1AF0050E02011803F3CFB1
:1048940000F00050FC0803011B6F000E046E010EB3
:1048A400056EB9C200F0BAC201F0C5EC1BF000C03D
:1048B4001CF39BEC1AF0050E02011803F3CF00F071
:1048C4000050FB0803011B6F000E046E010E056E01
:1048D400B9C200F0BAC201F0C5EC1BF008C000F088
:1048E40009C001F000C01CF39BEC1AF0100E020189
:1048F400A56F270EA66F100E3E6F270E3F6F8BEC31
:1049040017F0E8C212F2E9C213F2898C0400120013
:1049140004000201EE51040A010ED8A4000E016E37
:10492400EE51050A010ED8A4000E006E01500012CB
:10493400D8B4D1D000018C51000AD8A485D0030189
:10494400486B160E496F5F0E4A6F010E4B6F070ED0
:104954004C6F84EC07F0020E0301486F060E496F9A
:10496400550E4A6F010E4B6F090E4C6F84EC07F025
:10497400040E0301486F100E496F4C0E4A6F010E6E
:104984004B6F080E4C6F84EC07F0060E0301486F62
:10499400040E496F670E4A6F010E4B6F0B0E4C6F7E
:1049A40084EC07F004000D0E0B6E2D0E0C6ED70E6A
:1049B4000D6E0D2EFED70C2EFCD70B2EFAD7000051
:1049C400000004000B0E0B6E260E0C6E5D0E0D6EB9
:1049D4000D2EFED70C2EFCD70B2EFAD700000000AC
:1049E40004000301486B100E496F870E4A6F010ED5
:1049F4004B6F080E4C6F84EC07F0020E0301486FF6
:104A0400040E496F7C0E4A6F010E4B6F0A0E4C6FF9
:104A140084EC07F0040E0301486F100E496F730E07
:104A24004A6F010E4B6F080E4C6F84EC07F0060EB4
:104A34000301486F040E496F410E4A6F010E4B6F1C
:104A44000A0E4C6F84EC07F0040E0B6E0C0E0C6E09
:104A5400330E0D6E0D2EFED70C2EFCD70B2EFAD76F
:104A6400000000004250010A0DE10301486B100EE2
:104A7400496F1B0E4A6F010E4B6F080E4C6F84EC8E
:104A840007F00CD00301486B100E496F120E4A6FE9
:104A9400010E4B6F080E4C6F84EC07F0020E0301FD
:104AA400486F100E496F090E4A6F010E4B6F080EC6
:104AB4004C6F84EC07F00101E3530CE00301486BF5
:104AC400700E496F240E4A6F010E4B6F010E4C6F2E
:104AD40084EC07F0D4D00201EE51000AD8B4CFD050
:104AE40000018C51000AD8A487D00301486B040E3E
:104AF400496F390E4A6F010E4B6F070E4C6F84ECF1
:104B040007F0010E0301486F030E496F2F0E4A6F21
:104B1400010E4B6F090E4C6F84EC07F004000F0E6E
:104B24000B6E350E0C6E510E0D6E0D2EFED70C2E27
:104B3400FCD70B2EFAD704000B0E0B6E260E0C6E50
:104B44005D0E0D6E0D2EFED70C2EFCD70B2EFAD754
:104B54000000000004000301486B040E496F260E98
:104B64004A6F010E4B6F080E4C6F84EC07F0010E78
:104B74000301486F030E496FB00E4A6F010E4B6F6D
:104B84000B0E4C6F84EC07F004000D0E0B6E2D0E13
:104B94000C6ED70E0D6E0D2EFED70C2EFCD70B2EE1
:104BA400FAD70000000004000B0E0B6E260E0C6EEC
:104BB4005D0E0D6E0D2EFED70C2EFCD70B2EFAD7E4
:104BC4000000000004000301486B040E496FA70EA7
:104BD4004A6F010E4B6F080E4C6F84EC07F0010E08
:104BE4000301486F030E496F9C0E4A6F010E4B6F11
:104BF4000A0E4C6F84EC07F0040E0B6E0C0E0C6E58
:104C0400330E0D6E0D2EFED70C2EFCD70B2EFAD7BD
:104C1400000000004250010A0CE10301486B496B9B
:104C2400BC0E4A6F010E4B6F080E4C6F84EC07F0FC
:104C34000BD00301486B496BD00E4A6F010E4B6FCA
:104C4400080E4C6F84EC07F0010E0301486F496BAA
:104C5400C70E4A6F010E4B6F080E4C6F84EC07F0C1
:104C64000101E3530CE00301486B080E496FC50EC4
:104C74004A6F010E4B6F010E4C6F84EC07F0040079
:064C840037EC09F01200FC
:104C8A00070E0301086FCDEC21F000C0E7F2080E11
:104C9A00086FCDEC21F000C0E6F20201E4510108F0
:104CAA0003E2EAEC21F063D0E451010A60E1010E6B
:104CBA00E56FE36B030E0301526F90EC01F01A0EDD
:104CCA000C6EF80E0D6E0D2EFED70C2EFCD70000C2
:104CDA00030E0301526F90EC01F0060E0C6E300EBB
:104CEA000D6E0D2EFED70C2EFCD70000030E03010D
:104CFA00526F90EC01F0020E0301526F90EC01F03A
:104D0A00020E0301526F90EC01F0080E0301526F7C
:104D1A0090EC01F00301526B90EC01F0080E0301D4
:104D2A00526F90EC01F00301526B90EC01F0010E0E
:104D3A000301526F90EC01F01A0E0C6EF80E0D6E14
:104D4A000D2EFED70C2EFCD700000301526B90ECFF
:104D5A0001F0060E0301526F90EC01F00301526B51
:104D6A0090EC01F00C0E0301526F90EC01F012006E
:104D7A000900F5CFE6FF0006FBE10106F9E11200A2
:104D8A000301086BCDEC21F000C0DCF2010E086FC4
:104D9A00CDEC21F000C0E4F20050000A05E1939C3A
:104DAA00939E8A8C8A8E04D0938C938E8A9C8A9E38
:024DBA001200E5
:104DBC000400010E0301086FCDEC21F000C0EEF2EF
:104DCC00020E086FCDEC21F00050010A03E1010E38
:104DDC000101E36F030E0301086FCDEC21F000C05D
:104DEC0008F3D5EC21F000C0EFF2000E0201F06FD9
:104DFC00040E0301086FCDEC21F000C008F3D5ECD4
:104E0C0021F00A0E0002F3CFEAF2F4CFEBF2050E1A
:104E1C00086FCDEC21F000C008F3D5EC21F00A0EA0
:104E2C000002F3CFF1F2F4CFF2F2060E086FCDECE4
:104E3C0021F000C008F3D5EC21F00A0E0002F3CFEC
:104E4C00F3F2F4CFF4F2090E086FCDEC21F000C0B0
:104E5C0008F3D5EC21F00A0E0002F3CFBCF2F4CF2C
:104E6C00BDF20A0E086FCDEC21F000C099F00B0ECC
:104E7C00086FCDEC21F000C02AF20C0E086FCDECBF
:104E8C0021F000C090F00D0E086FCDEC21F000C0A9
:104E9C001AF20E0E086FCDEC21F000C027F00F0EA9
:104EAC00086FCDEC21F000C016F20400100E086F54
:104EBC00CDEC21F000C008F3D5EC21F0640E00021B
:104ECC00F3CF06F3F4CF07F3110E086FCDEC21F0FE
:104EDC0000C008F3D5EC21F0005006250201C46F88
:104EEC00000E030107210201C56F120E0301086FAA
:104EFC00CDEC21F000C008F3D5EC21F0640E0002DB
:104F0C00F3CF06F3F4CF07F3130E086FCDEC21F0BB
:104F1C0000C008F3D5EC21F0005006250201C26F49
:104F2C00000E030107210201C36F140E0301086F69
:104F3C00CDEC21F000C008F3D5EC21F0640E00029A
:104F4C00F3CF06F3F4CF07F3150E086FCDEC21F079
:104F5C0000C008F3D5EC21F0005006250201C86F03
:104F6C00000E030107210201C96F160E0301086F21
:104F7C00CDEC21F000C008F3D5EC21F0640E00025A
:104F8C00F3CF06F3F4CF07F3170E086FCDEC21F037
:104F9C0000C008F3D5EC21F0005006250201CE6FBD
:104FAC00000E030107210201CF6F180E0301086FD9
:104FBC00CDEC21F000C008F3D5EC21F0640E00021A
:104FCC00F3CF06F3F4CF07F3190E086FCDEC21F0F5
:104FDC0000C008F3D5EC21F0005006250201CC6F7F
:104FEC00000E030107210201CD6F1A0E0301086F99
:104FFC00CDEC21F000C008F3D5EC21F0640E0002DA
:10500C00F3CF06F3F4CF07F31B0E086FCDEC21F0B2
:10501C0000C008F3D5EC21F0005006250201CA6F40
:10502C00000E030107210201CB6F1C0E0301086F58
:10503C00CDEC21F000C008F3D5EC21F0640E000299
:10504C00F3CF06F3F4CF07F31D0E086FCDEC21F070
:10505C0000C008F3D5EC21F0005006250201C06F0A
:10506C00000E030107210201C16F200E0301086F1E
:10507C00CDEC21F000C008F3D5EC21F0640E000259
:10508C00F3CF06F3F4CF07F3210E086FCDEC21F02C
:10509C0000C008F3D5EC21F0005006250201BE6FCC
:1050AC00000E030107210201BF6F220E0301086FDE
:1050BC00CDEC21F000C008F3D5EC21F0640E000219
:1050CC00F3CF06F3F4CF07F3230E086FCDEC21F0EA
:1050DC0000C008F3D5EC21F0005006250201D46F76
:1050EC00000E030107210201D56F240E0301086F86
:1050FC00CDEC21F000C008F3D5EC21F0640E0002D9
:10510C00F3CF06F3F4CF07F3250E086FCDEC21F0A7
:10511C0000C008F3D5EC21F0005006250201D26F37
:10512C00000E030107210201D36F260E0301086F45
:10513C00CDEC21F000C008F3D5EC21F0640E000298
:10514C00F3CF06F3F4CF07F3270E086FCDEC21F065
:10515C0000C008F3D5EC21F0005006250201D06FF9
:10516C00000E030107210201D16F280E0301086F05
:10517C00CDEC21F000C008F3D5EC21F0640E000258
:10518C00F3CF06F3F4CF07F3290E086FCDEC21F023
:10519C0000C008F3D5EC21F0005006250201D66FB3
:1051AC00000E030107210201D76F2A0E0301086FBD
:1051BC00CDEC21F000C008F3D5EC21F0640E000218
:1051CC00F3CF06F3F4CF07F32B0E086FCDEC21F0E1
:1051DC0000C008F3D5EC21F0005006250201DA6F6F
:1051EC00000E030107210201DB6F2C0E0301086F77
:1051FC00CDEC21F000C008F3D5EC21F0640E0002D8
:10520C00F3CF06F3F4CF07F32D0E086FCDEC21F09E
:10521C0000C008F3D5EC21F0005006250201D86F30
:10522C00000E030107210201D96F300E0301086F34
:10523C00CDEC21F000C042F0310E086FCDEC21F026
:10524C0000C008F3D5EC21F000C026F0320E086F38
:10525C00CDEC21F000C008F3D5EC21F000C0E1F159
:10526C00330E086FCDEC21F000C0B9F0340E086F8E
:10527C00CDEC21F000C008F3D5EC21F000C0BBF25E
:04528C000400120008
:10529000070EB46E600ED36E9B8C806A816A826A40
:1052A000400E896E8A6A8B6A030E926E070E936EA9
:1052B000946AA6EC23F00D0EC16EF19EF29E1200D0
:1052C000810E0301416F0F0E426F436B320E446F2C
:1052D000456BA0EC08F002011151001261E046ECB0
:1052E00011F0E1C100F05AEC0BF0DDC104F0DEC1B9
:1052F00005F0DFC106F0E0C107F06DEC03F062ECF1
:1053000006F000C0D9F101C0DAF1060E0B6E130EE3
:105310000C6EAD0E0D6E0D2EFED70C2EFCD70B2E87
:10532000FAD70000000004001151000A010ED8A4B1
:10533000000E016E81B002D0D89001D0D880006AF2
:10534000D8B0002A0150001605E0D9EC1AF000018F
:105350009B6B26D0899C060E0B6E130E0C6EAD0E49
:105360000D6E0D2EFED70C2EFCD70B2EFAD700009B
:105370000000BAEC23F000019B6B810E0301416F2A
:105380000F0E426F436B320E446F456BA0EC08F07A
:10539000005204E08BEC17F00400EFD70201116B10
:1053A000810E0301416F0F0E426F020E436F320EEA
:1053B000446F456BA0EC08F00052D8B4F7D046EC2F
:1053C00011F0E1C100F05AEC0BF0DDC104F0DEC1D8
:1053D00005F0DFC106F0E0C107F06DEC03F062EC10
:1053E00006F000C0D9F101C0DAF1040000019B51C0
:1053F000000A24E1010E9B6F19C29BF117C292F1C2
:105400001EC291F10201196B176B010E1E6F030191
:10541000236B0EEC10F019C223F3E0EC15F01EC262
:105420001BF3CCEC1AF002011C51000A02E137EC2C
:1054300009F0E3C190F10101E36B1CD000019B6B0B
:105440009BC119F292C117F291C11EF29BC123F3C5
:10545000E0EC15F017C223F30EEC10F01EC21BF3A4
:10546000CCEC1AF002011C51000A02E137EC09F001
:1054700090C1E3F10201EE51040A010ED8A4000E1E
:10548000016EEE51050A010ED8A4000E006E015007
:1054900000123BE000019B53010ED8A4000E006EE9
:1054A0000101E35100160DE00301486B700E496FD6
:1054B000930E4A6F010E4B6F010E4C6F84EC07F098
:1054C00023D00101E353010ED8A4000E006E0001A9
:1054D0009B5100160DE00301486B700E496F990E49
:1054E0004A6F010E4B6F010E4C6F84EC07F00CD02D
:1054F0000301486B700E496F970E4A6F010E4B6F98
:10550000010E4C6F84EC07F03ED00201EE51000A10
:105510003AE000019B53010ED8A4000E006E010179
:10552000E35100160DE00301486B080E496F950E1C
:105530004A6F010E4B6F010E4C6F84EC07F023D0C5
:105540000101E353010ED8A4000E006E00019B512F
:1055500000160DE00301486B080E496FFC0E4A6F00
:10556000000E4B6F010E4C6F84EC07F00CD0030162
:10557000486B080E496FFA0E4A6F000E4B6F010E12
:105580004C6F84EC07F00400810E0301416F0F0E95
:10559000426F020E436F320E446F456BA0EC08F071
:1055A000005204E08BEC17F00400EED7810E0301EB
:1055B000416F0F0E426F010E436F320E446F456B09
:1055C000A0EC08F000019B51000A010ED8A4000EC7
:1055D000016E01500016D8B4C2D046EC11F0E1C102
:1055E00000F05AEC0BF0DDC104F0DEC105F0DFC1C4
:1055F00006F0E0C107F06DEC03F062EC06F000C0CD
:10560000D9F101C0DAF104000101E351000A03E11C
:10561000010EE36F01D0E36B020E03011B6FE3C1C8
:105620001CF39BEC1AF00201EE51040A010ED8A4FF
:10563000000E016EEE51050A010ED8A4000E006E98
:10564000015000123BE000019B53010ED8A4000E54
:10565000006E0101E35100160DE00301486B700E6E
:10566000496FF80E4A6F000E4B6F010E4C6F84ECC1
:1056700007F023D00101E353010ED8A4000E006E01
:1056800000019B5100160DE00301486B700E496F3D
:10569000FE0E4A6F000E4B6F010E4C6F84EC07F04C
:1056A0000CD00301486B700E496F040E4A6F010E57
:1056B0004B6F010E4C6F84EC07F03ED00201EE51AF
:1056C000000A3AE000019B53010ED8A4000E006EC0
:1056D0000101E35100160DE00301486B080E496F0C
:1056E000020E4A6F010E4B6F010E4C6F84EC07F0F7
:1056F00023D00101E353010ED8A4000E006E000177
:105700009B5100160DE00301486B080E496F000E17
:105710004A6F010E4B6F010E4C6F84EC07F00CD0FA
:105720000301486B080E496FF60E4A6F000E4B6F6F
:10573000010E4C6F84EC07F00400810E0301416FF1
:105740000F0E426F010E436F320E446F456BA0EC9B
:1057500008F0005204E08BEC17F00400EED71200C2
:105760000201EE51040A010ED8A4000E016EEE51A2
:10577000050A010ED8A4000E006E015000120DE0C3
:105780000301486B0A0E496FC20E4A6F000E4B6F41
:10579000090E4C6F84EC07F010D00201EE51000AA4
:1057A0000CE00301486B030E496FD60E4A6F000EE2
:1057B0004B6F090E4C6F84EC07F004000B0E0B6E60
:1057C000260E0C6E5D0E0D6E0D2EFED70C2EFCD728
:1057D0000B2EFAD70000000004000B0E0B6E260EF5
:1057E0000C6E5D0E0D6E0D2EFED70C2EFCD70B2E03
:1057F000FAD70000000004000B0E0B6E260E0C6E94
:105800005D0E0D6E0D2EFED70C2EFCD70B2EFAD78B
:105810000000000004000B0E0B6E260E0C6E5D0ED9
:105820000D6E0D2EFED70C2EFCD70B2EFAD70000D6
:10583000000004000201EE51040A010ED8A4000E7B
:10584000016EEE51050A010ED8A4000E006E015043
:1058500000120DE00301486B0A0E496FEC0E4A6F0F
:10586000000E4B6F090E4C6F84EC07F010D0020154
:10587000EE51000A0CE00301486B030E496FE20E83
:105880004A6F000E4B6F090E4C6F84EC07F0BAECB8
:105890001AF0010E02011E6F010E03011B6FCCEC0A
:1058A0001AF0050E02011803F3CF00F00050FF08B4
:1058B00003011B6F19C21CF39BEC1AF0050E0201C9
:1058C0001803F3CF00F00050FE0803011B6F17C24E
:1058D0001CF39BEC1AF0050E02011803F3CF00F045
:1058E0000050FD0803011B6F1EC21CF39BEC1AF055
:1058F0000201EE51040A010ED8A4000E016EEE5111
:10590000050A010ED8A4000E006E015000120DE031
:105910000301486B700E496FE00E4A6F000E4B6F2B
:10592000010E4C6F84EC07F010D00201EE51000A1A
:105930000CE00301486B080E496F070E4A6F010E19
:105940004B6F010E4C6F84EC07F0010E00018C6F61
:065950008AEC24F01200B5
:105956000201E451010806E2AE0E0301416F27EC95
:105966000CF00DD0E451010A0AE1E56BE36B03018B
:10597600526B90EC01F00301526B90EC01F01200B7
:10598600810E0301416F0F0E426F436B320E446F5F
:10599600456BA0EC08F00052D8B496D0060E0B6EFC
:1059A600130E0C6EAD0E0D6E0D2EFED70C2EFCD703
:1059B6000B2EFAD700000000040081A00FD00201D0
:1059C6001E51000A03E1010E1E6F01D01E6B1EC29E
:1059D6001BF3CCEC1AF037EC09F065D02550010A20
:1059E60002E1256A02D0010E256E2550010A2EE13C
:1059F6000201EE51040A010ED8A4000E016EEE510A
:105A0600050A010ED8A4000E006E015000120DE02A
:105A16000301486B700E496F950E4A6F000E4B6F6F
:105A2600010E4C6F84EC07F010D00201EE51000A13
:105A36000CE00301486B080E496F930E4A6F000E87
:105A46004B6F010E4C6F84EC07F02DD00201EE5126
