:10000000EEEF2FF00000000000EF00F00000000015
:0A0010000000000000000000F3D71C
:10001C000201BC51000A32E0016A015007081CE3DE
:10002C0003017FBF02D0939E01D0938E060E0D6EFE
:10003C000D2EFED70000938C060E0D6E0D2EFED7E6
:10004C000000939C060E0D6E03010D2EFDD70000D3
:10005C007F377F91012AE1D7938E060E0D6E0D2E00
:10006C00FED70000938C060E0D6E0D2EFED70000F1
:0E007C00939C060E0D6E0D2EFED70000120096
:10008A000201BC51000A18E0938C060E0D6E0D2E6B
:10009A00FED70000938E060E0D6E0D2EFED70000C1
:1000AA00939E060E0D6E0D2EFED70000939C060E33
:0A00BA000D6E0D2EFED7000012009F
:0E00C400026A016A006A086A036A000E1200EE
:1000D2000201BC51000A12E0939E060E0D6E0D2E17
:1000E200FED70000938C060E0D6E0D2EFED700007B
:0E00F200938E060E0D6E0D2EFED7000012002E
:100100000201CB5103017B257E6FBFDFCCC27FF3A1
:1001100085DF03017F6B82DF03017A51B00F7F6FB0
:100120007DDF03017E510F0804E37EC37CF37D6B0A
:1001300019D07EC302F00232029E0232029E0232C7
:10014000029E0232029E02C07DF302C000F0003621
:10015000009000360090003600900036009000506D
:100160007E5D7C6F7CC37FF359DF03017D51100FEF
:100170007F6F54DF8ADFCCC27FF350DF400E030174
:060180007F6F4CDF12004E
:100186000B840BAECEEF00F0010E036E026A016A1D
:0A019600006A0A360232FF0E120062
:0801A0000AAE029E000E1200DF
:1001A800086A096A100E0C6E0134083609360450C4
:1001B800085E0550D8A0053C095ED8B007D00450A9
:1001C80008260550D8B0053C0926D89000360136D7
:0601D8000C2EEAD7120014
:1001DE000B820BAEF9EF00F003680268016800684D
:0801EE000A360232FF0E120076
:1001F6000B800BAE07EF01F0026A0AAEFF0E026E2D
:0C020600016E006E0A360232FF0E12007C
:100212000301746B050E745D0AE274517225E16E7E
:10022200000E7321E26E200EE66E742BF3D774512A
:100232007225E16E000E7321E26EE66A7407745154
:100242007225756F000E7321766F0A0E046E000E12
:10025200056E70C300F071C301F0A5DF08C000F0A5
:1002620009C001F0300E002675C3E1FF76C3E2FF3C
:1002720000C0E6FF0A0E046E000E056E70C300F0A9
:1002820071C301F090DF00C070F301C071F3000E82
:10029200011802E1000E001801E102D07407CFD765
:0202A200120048
:1002A400F2DECCC27FF3B8DE400E03017F6FB4DE12
:1002B40071C37AF370C37BF321DF0301756B74514F
:1002C400755DD8B0B3D075517225E96E000E7321F7
:1002D400EA6EEE50000A02E1776B09D0755172257F
:1002E400E96E000E7321EA6E200EEE5C776F766B7A
:1002F40076510408D8A092D0050E7703F3CF00F00E
:10030400F4CF01F076510026000E0122E00E002405
:10031400F66E650E0120F76E000EF86E000E01BE3B
:10032400FF0EF8220900F5CF78F37151020A000E8E
:10033400D8A4010E016E7151040A000ED8A4010E56
:10034400006E005001167151060A000ED8A4010E69
:10035400006E0150001629E078B702D0799F01D0D1
:10036400798F78B702D0799D01D0798D78B502D094
:10037400799B01D0798B78B502D0799901D07989AC
:1003840078B302D0799701D0798778B302D0799580
:1003940001D0798578B102D0799301D0798378B18D
:1003A40002D0799101D0798120D078B502D0799F9B
:1003B40001D0798F78B502D0799D01D0798D78B349
:1003C40002D0799B01D0798B78B302D0799901D08E
:1003D400798978B102D0799701D0798778B102D040
:1003E400799501D079857993799179C37FF314DE76
:1003F4000201BC51040A010ED8A4000E016EBC51C6
:10040400050A010ED8A4000E006E0150001203E08C
:1004140079C37FF301DE0301762B6AD77F6BFCDDA2
:1004240003017F6BF9DD0301752B49D77151010F6E
:100434007A6F70C37BF362DE0301756B7451755D73
:10044400D8B0BBD075517225E96E000E7321EA6EE7
:10045400EE50000A02E1776B09D075517225E96EFE
:10046400000E7321EA6E200EEE5C776F766B765188
:100474000408D8A09AD0050E7703F3CF00F0F4CF88
:1004840001F076510026000E0122E00E0024F66EE3
:10049400650E0120F76E000EF86E000E01BEFF0E11
:1004A400F8220900F5CF78F37151020A000ED8A49E
:1004B400010E016E7151040A000ED8A4010E006EE3
:1004C400005001167151060A000ED8A4010E006EE8
:1004D4000150001629E078BF02D0799F01D0798FAE
:1004E40078BF02D0799D01D0798D78BD02D0799BF7
:1004F40001D0798B78BD02D0799901D0798978BB04
:1005040002D0799701D0798778BB02D0799501D050
:10051400798578B902D0799301D0798378B902D0FA
:10052400799101D0798128D078BD02D0799F01D00A
:10053400798F78BD02D0799D01D0798D78BB02D0B6
:10054400799B01D0798B78BB02D0799901D07989D4
:1005540078B902D0799701D0798778B902D07995A2
:1005640001D0798578B702D0799301D0798378B7AF
:1005740002D0799101D0798179C37FF34DDD0201F5
:10058400BC51040A010ED8A4000E016EBC51050A28
:10059400010ED8A4000E006E0150001203E079C3CE
:1005A4007FF33ADD0301762B62D77F6B35DD0301E0
:0E05B4007F6B32DD0301752B41D789DD12000C
:0A05C2001D0E0D6E0D2EFED7120067
:1005CC000C6A0E6A0250D8A4FFEF02F001C002F0D0
:1005DC0000C001F0006A0E860250D8A4FFEF02F0B2
:1005EC0001C002F0016A0E960E880250D8B411EFC9
:1005FC0003F00E50035ED8A4D8A016EF03F0D890E9
:10060C0002BE1BEF03F0003601360236032E06EF56
:10061C0003F016EF03F0010E0C6E4EDD1EEF03F02F
:10062C00020E0C6EAADD1EEF03F0040E0C6EB2DD92
:02063C001200AA
:10063E000301716B0201BD6B010EC06F70C371F3CC
:10064E0003017137719171377191713771917137F2
:10065E0071910201BE5303E0080E030171270201DE
:10066E00C05303E0040E030171270201BD5303E0E2
:10067E00020E030171270201BF5302E00301712B29
:10068E00FDDCCCC27FF3C3DC71C37FF3C0DC1ADDAB
:10069E00060E0C6E300E0D6E0D2EFED70C2EFCD7E8
:1006AE000000040E0301715FE9DCCCC27FF3AFDC06
:1006BE0071C37FF3ACDC06DD060E0C6E300E0D6ED4
:0C06CE000D2EFED70C2EFCD700001200F1
:1006DA000050086E0150006E016A026A036A0B6AD2
:1006EA000C6A960E036E0A6A00C001F008C000F098
:0806FA00086A026A66DF1200C3
:10070200220E0C6E086A096A0A6A0B6A0C06D8B4D1
:100712001FD0D8900B320A32093208320332023229
:1007220001320032D8A0F2D70C06D8B409D0045056
:1007320008260550092206500A2207500B22EAD742
:10074200045008260550092206500A2207500B229F
:02075200120093
:100754000CB0ECEF03F00CA292EF04F00E6A000E62
:10076400026403EF04F0F00E0214D8A4CEEF03F0F9
:10077400023A01380F0B02260138F00B016E0038E3
:100784000F0B01260038F00B006E08380F0B002603
:100794000838F00B086E0E84D89002BEE7EF03F021
:1007A40008360036013602360E2A02BEE7EF03F0A1
:1007B40008360036013602360E2A02BEE7EF03F091
:1007C40008360036013602360E2A0E50036488EFCE
:1007D40004F0035E0BBC08AE8DEF04F0D880800EED
:1007E40008640030000E002201220222D8A08DEFFE
:1007F40004F0023201320032034A92EF04F08DEF2A
:1008040004F001C002F000C001F008C000F0086A62
:10081400000E0E8602643AEF04F0F00E0214D8A41F
:1008240022EF04F0023A01380F0B02260138F00BD4
:10083400016E00380F0B01260038F00B006E0E8499
:10084400D89002BEE7EF03F00036013602360E2AD6
:1008540002BEE7EF03F00036013602360E2A02BE6E
:10086400E7EF03F00036013602360E2AE7EF03F015
:1008740001C002F000C001F0006A000E0E960E885E
:10088400026467EF04F0F00E0214D8A452EF04F0EF
:10089400023A01380F0B02260138F00B016E0E8468
:1008A400D89002BEE7EF03F0013602360E2A02BEEC
:1008B400E7EF03F0013602360E2A02BEE7EF03F03B
:1008C400013602360E2AE7EF03F001C002F0016A96
:1008D400000E0E86026497EF04F0F00E0214D8A402
:1008E40076EF04F0023A0E84D89002BEE7EF03F0EC
:1008F40002360E2A02BEE7EF03F002360E2A02BECB
:10090400E7EF03F002360E2AE7EF03F0010E0C6E58
:1009140038DC9BEF04F0020E0C6E40DC9BEF04F01D
:10092400040E0C6E5ADC9BEF04F0080E0C6E62ECA5
:0409340000F01200BD
:100938000B1E0A1E091E081E082AD8B4092AD8B494
:080948000A2AD8B40B2A1200A0
:100950000450085E0550D8A0053C095E0650D8A09A
:10096000063C0A5E0750D8A0073C0B5E0336070E14
:100970000C6E0334083609360A360B36045003A0D1
:100980000ED0085E0550D8A0053C095E0650D8A0E0
:10099000063C0A5E0750D8A0073C0B5E0DD0082627
:1009A0000550D8B0053C09260650D8B0063C0A26AA
:1009B0000750D8B0073C0B2603360C2EDAD702348A
:1009C000083609360A360B36045003A00ED0085EEE
:1009D0000550D8A0053C095E0650D8A0063C0A5E2A
:1009E0000750D8A0073C0B5E0DD008260550D8B0A4
:1009F000053C09260650D8B0063C0A260750D8B058
:100A0000073C0B260236070E0C6E023408360936F8
:100A10000A360B36045002A00ED0085E0550D8A04E
:100A2000053C095E0650D8A0063C0A5E0750D8A0D7
:100A3000073C0B5E0DD008260550D8B0053C0926B2
:100A40000650D8B0063C0A260750D8B0073C0B2603
:100A500002360C2EDAD70134083609360A360B3640
:100A6000045002A00ED0085E0550D8A0053C095ED7
:100A70000650D8A0063C0A5E0750D8A0073C0B5E83
:100A80000DD008260550D8B0053C09260650D8B030
:100A9000063C0A260750D8B0073C0B260136070E45
:100AA0000C6E0134083609360A360B36045001A0A4
:100AB0000ED0085E0550D8A0053C095E0650D8A0AF
:100AC000063C0A5E0750D8A0073C0B5E0DD00826F6
:100AD0000550D8B0053C09260650D8B0063C0A2679
:100AE0000750D8B0073C0B2601360C2EDAD700345D
:100AF000083609360A360B36045001A00ED0085EBF
:100B00000550D8A0053C095E0650D8A0063C0A5EF8
:100B10000750D8A0073C0B5E0DD008260550D8B072
:100B2000053C09260650D8B0063C0A260750D8B026
:100B3000073C0B260036070E0C6E003408360936CB
:100B40000A360B36045000A00ED0085E0550D8A01F
:100B5000053C095E0650D8A0063C0A5E0750D8A0A6
:100B6000073C0B5E0DD008260550D8B0053C092681
:100B70000650D8B0063C0A260750D8B0073C0B26D2
:100B800000360C2EDAD700B00ED0045008260550DF
:100B9000D8B0053C09260650D8B0063C0A260750B6
:080BA000D8B0073C0B2612003F
:100BA800830EC21666C300F000360090003600902F
:100BB8000050C21202DDC282C2A201D0FDD7C4CF4A
:0E0BC80001F0006AC3500012000E011212006C
:100BD60000C008F00150006E016A026A036A0B6ADF
:100BE6000C6A016A026A036A960E036E0A6A00AE0E
:100BF60003EF06F0081E001E082AD8B4002A0A8E43
:100C060000C001F008C000F0086A026ADCDC1200CD
:100C1600086A096A000E0762036490EF06F0025044
:100C260006180A6E075003267E0ED8A021EF06F09E
:100C3600035ED8B095EF06F025EF06F0035ED8A068
:100C46009AEF06F0028E068E02C00EF001C00BF07F
:100C560000C00DF000500402F4CF0CF00150050264
:100C6600F4CF00F0F3CF08F00402F3500C26F45052
:100C76000822000E00220D500502F3500C26F450F7
:100C86000822000E002202500402F3500826F450F7
:100C9600002202500502016A000E0122F3500026CE
:100CA600F45001220D500602F3500826F45000229B
:100CB600026A000E012202220B500602F3500026A1
:100CC600F4500122000E02220E500602F3500126B5
:100CD600F450022202BE78EF06F0083600360136DE
:100CE60002360306D8B49AEF06F08BEF06F0D880EA
:100CF600800E08640030000E002201220222D8A0D5
:100D06008BEF06F0023201320032034A95EF06F00D
:100D16000AAE029E000E9DEF06F0010E62EC00F098
:100D26009DEF06F0020EEFEC00F09DEF06F0040ECC
:060D3600C3EC00F0120006
:100D3C000B6A0350D8B4E4EF06F002500A6E028E30
:100D4C008E0E035E03AEE8EF06F0036C080E035C38
:100D5C00D8A0C3EF06F0036E013602C001F0026AA0
:100D6C00080E035CD8A0C3EF06F0036E0136016ACF
:100D7C000350D8A4D890CDEF06F00350D8B4CDEFE3
:100D8C0006F0D89002320132032EC7EF06F00BBCEE
:100D9C0001A0DAEF06F0D8A0DAEF06F0012AD8B4F9
:100DAC00022A02BEF7EF06F00AAEFDEF06F0021EB5
:100DBC00011E012AD8B4022AFDEF06F0026A016A6C
:100DCC00FDEF06F00B800BAE01EF07F0026A0AAEE6
:100DDC0001EF07F0FF0E026E016E0A36023201EFD0
:100DEC0007F0010E0C6EFBEC00F003EF07F0000EA9
:100DFC000C6E03EF07F0FF0E0C6E0150006E0250EC
:040E0C00016E120061
:100E1000030E0C6E950E0D6E0D2EFED70C2EFCD70C
:020E20001200BE
:100E220003016C6B6D6B66C36EF367C36FF3800E69
:100E32006719006E800E005C02E1000E665D0BE237
:100E4200010E6C6F000E6D6F665100086E6F67C306
:100E52006FF3000E6F576EC370F36FC371F368C305
:100E620072F369C373F309EC01F0060E6A6F000EA8
:100E72006B6F000E006E6B51005C02E16A5100085C
:100E820019E26A516825E16E6B516921E26E010E29
:100E92006A5D006E000E6B59016E00506825E96EA6
:100EA20001506921EA6EEECFE6FF010E6A5F000E85
:100EB2006B5BDFD768C3E1FF69C3E2FF200EE66E1A
:100EC2006C516D111AE06A6B6B6B6A516825E96EA1
:100ED2006B516921EA6EEE50200A03E16A4B6B2BDB
:100EE200F4D7010E6A5F000E6B5B6A516825E16EF2
:0C0EF2006B516921E26E2D0EE66E1200BD
:100EFE000201BC51040A010ED8A4000E016EBC51B1
:100F0E00050A010ED8A4000E006E015000120DE06D
:100F1E0067C370F366C371F368C372F369C373F387
:100F2E006AC374F352EC01F05DD0BC51020A010E9B
:100F3E00D8A4000E016EBC51030A010ED8A4000EF7
:100F4E00006E0150001214E0070E03016703F3CF89
:100F5E0070F3040E702766C371F37137719168C315
:100F6E0072F369C373F36AC374F352EC01F03AD0AF
:100F7E00BF6B66C300F00036009000360090005044
:100F8E00080F0301706F1FEC03F067C370F31FECC3
:100F9E0003F0010EBF6F03016B6B6A516B5D22E2B2
:100FAE006B516825E96E000E6921EA6EEECF01F0F5
:100FBE0001C070F37033709F7033709F7033709FE9
:100FCE007033709F1FEC03F003016B516825E96EBF
:100FDE00000E6921EA6EEECF70F31FEC03F00301F1
:060FEE006B2BDBD71200A3
:080FF4000B6A0B86FF0E1200D0
:100FFC0045EC00F0CCC27FF30EEC00F0800E030148
:10100C007F6F0EEC00F05FC37FF30EEC00F069EC29
:04101C0000F01200CE
:1010200004000201F66BF76B75A104D0F451F627AA
:10103000F551F72375A304D0F251F627F351F723A6
:1010400075A504D0FC51F627FD51F72375A704D0F0
:10105000FA51F627FB51F72375A904D0F851F6276A
:10106000F951F72375AB04D0F051F627F151F7236E
:1010700075AD04D0EE51F627EF51F723800E270A05
:10108000006E800EF719005C02E1F6510F081EE2B7
:10109000320EF625006E000EF721016E00C0F6F24A
:1010A00001C0F7F200C066F301C067F3E70E030169
:1010B000686F020E696FB5DEE8C2E0F2E9C2E1F2E4
:1010C0002E0E0201E26FEAC2E3F225D0F6C266F309
:1010D000F7C267F3E70E0301686F020E696FA1DEC6
:1010E0000201E951200A03E0E9C2E0F202D0300E29
:1010F000E06F2E0EE16FEA51200A03E0EAC2E2F24D
:1011000002D0300EE26FEB51200A03E0EBC2E3F2B3
:1011100002D0300EE36FD751040A010ED8A4000E9E
:10112000016ED751050A010ED8A4000E006E0150C1
:1011300000122EE07351010A04E1040E03015F6FF7
:1011400003D00301060E5F6F5FC366F3100E676F77
:10115000940E686F020E696F020E6A6FD0DE5FC375
:1011600066F3580E0301676F910E686F020E696F88
:10117000020E6A6FC4DE5FC366F3280E0301676F59
:10118000E00E686F020E696F040E6A6FB8DE6DD0F4
:101190000201D751020A010ED8A4000E016ED751E8
:1011A000030A010ED8A4000E006E015000122DE0BB
:1011B0007351010A03E103015F6B03D00301010EC8
:1011C0005F6F5FC366F3090E676F8E0E686F020E66
:1011D000696F020E6A6F93DE5FC366F30F0E030141
:1011E000676FA40E686F020E696F020E6A6F87DE6A
:1011F0005FC366F30B0E0301676FE00E686F020EAC
:10120000696F040E6A6F7BDE30D00201D751010A8C
:101210002CE17351010A03E103015F6B03D0030169
:10122000010E5F6F5FC366F3090E676FA10E686FF3
:10123000020E696F020E6A6F62DE5FC366F30F0E05
:101240000301676F9F0E686F020E696F010E6A6F70
:1012500056DE5FC366F30B0E0301676FE00E686F27
:10126000020E696F040E6A6F4ADE04000201F66B1B
:10127000F76B5DA108D003010B510201F6270301B2
:101280000C510201F7235DA308D0030109510201AB
:10129000F62703010A510201F7235DA508D00301D7
:1012A00007510201F627030108510201F7235DA748
:1012B00008D0030105510201F6270301065102017E
:1012C000F7235DA908D0030103510201F6270301AA
:1012D00004510201F7235DAB08D003010151020163
:1012E000F627030102510201F7235DAD04D0FE5140
:1012F000F627FF51F72372515A1904E19D51F62741
:101300009E51F723F6C266F3F7C267F3E70E0301B7
:10131000686F020E696F85DDE9C2E0F2EAC2E1F2B0
:10132000EBC2E2F2ECC2E3F20201D751040A010E71
:10133000D8A4000E016ED751050A010ED8A4000EE4
:10134000006E015000122EE07351010A04E1060EF6
:1013500003015F6F03D00301040E5F6F5FC366F389
:10136000100E676F9A0E686F020E696F020E6A6F39
:10137000C6DD5FC366F3580E0301676F970E686F93
:10138000020E696F020E6A6FBADD5FC366F3280E44
:101390000301676FE00E686F020E696F040E6A6FDB
:1013A000AEDD6DD00201D751020A010ED8A4000EA5
:1013B000016ED751030A010ED8A4000E006E015031
:1013C00000122DE07351010A04E1010E03015F6F69
:1013D00002D003015F6B5FC366F3090E676FE50E12
:1013E000686F000E696F020E6A6F89DD5FC366F376
:1013F0000F0E0301676FE20E686F000E696F020E39
:101400006A6F7DDD5FC366F30B0E0301676FE00E4D
:10141000686F020E696F040E6A6F71DD30D00201D1
:10142000D751010A2CE17351010A04E1010E0301B5
:101430005F6F02D003015F6B5FC366F3090E676FD6
:10144000DF0E686F000E696F020E6A6F58DD5FC3B2
:1014500066F30F0E0301676FE80E686F000E696F89
:10146000010E6A6F4CDD5FC366F30B0E0301676FFD
:10147000E00E686F020E696F040E6A6F40DD0400B3
:02148000120058
:101482000301656B61C301F0010E006E015004E0BF
:1014920000360090FF0FFBD700C064F35FC3E9FF83
:1014A20060C3EAFF0050EE14016E0152010ED8A48F
:1014B200000E006E6351001A18E06251000804E247
:1014C200A6DCA5DC6207F9D75FC3E9FF60C3EAFFC8
:1014D2006451EE14016E0152010ED8A4000E006E8A
:1014E2006351001A02E0FF0E656F65C300F012003F
:1014F200A00E0301616F0F0E626F000E636F646FC7
:10150200A00E006E0F0E016E000E026E000E036E34
:101512005FC304F060C305F0000E066E076E81EC37
:1015220003F000C061F301C062F302C063F303C0C1
:1015320064F3000E035C08E1000E025C05E1020E9A
:10154200015C02E1940E005C01E231D0940E615F15
:10155200020E625B000E635B645B050E006E005060
:1015620007E06433633362336133649FFF0FF8D75C
:1015720061C300F062C301F063C302F064C303F00D
:10158200010E615F000E625B635B645B00500110E1
:10159200021003100CE00000000000000000000038
:1015A200000000000000000000000000E1D712006F
:1015B2000A6A0350D8A40A800750D8A40A820A50A3
:1015C200D8B43CEF0BF0030AD8B4F5EF0AF00AB036
:1015D200F0EF0AF006AE3AEF0BF038EF0BF002AE86
:1015E20038EF0BF03AEF0BF00250800B0A6E029EBE
:1015F2000650800B069E0A18D8B406EF0BF00A506C
:10160200D8B438EF0BF03AEF0BF00750035CD8B4C4
:1016120010EF0BF0D8A02CEF0BF032EF0BF00650CE
:10162200025CD8B41AEF0BF0D8A02CEF0BF032EF1B
:101632000BF00550015CD8B424EF0BF0D8A02CEFCE
:101642000BF032EF0BF00450005CD8B43CEF0BF01F
:10165200D8B032EF0BF00A52D8B43AEF0BF038EFB1
:101662000BF00A52D8B438EF0BF03AEF0BF0D880F7
:0E1672001200D8901200D880D8841200120006
:101680000301666BD4EC05F000C05FF301C060F3AA
:10169000800E030A026E800E0118025C02E1005007
:1016A000E80804E2010E0001DC6F02D00001DC6BEF
:1016B0005FC300F060C301F0EBEC05F0890E046E2F
:1016C000410E056E1C0E066E810E076E0BEC06F0C9
:0616D0009EEC06F0120082
:1016D600010E0301666FD4EC05F06DEC03F0890E84
:1016E600046E410E056E1C0E066E810E076E0BEC27
:0816F60006F09EEC06F0120064
:1016FE00025006180E6E086A096A0B6A03500764D8
:10170E0072EF0CF006500A6E068E028E03500B6EB0
:10171E000750036E000E0B64C2EF0BF00B50075E0A
:10172E00D8B463EF0CF0070E076431EF0CF0075ED0
:10173E0000C008F001C000F002C001F0026A074EBE
:10174E0063EF0CF0076406EF0CF0075E00C008F0C4
:10175E0001C000F0016A074E63EF0CF00764E4EF7E
:10176E000BF0075E00C008F0006A074E63EF0CF046
:10177E000764CBEF0BF00AC002F005C001F004C005
:10178E0000F0086A8FEF0DF0030E0764D6EF0BF032
:10179E00075E08380F0B086E074E63EF0CF0D890FB
:1017AE000832074E63EF0CF0D8900832074E63EF05
:1017BE000CF0D890083263EF0CF0030E0764F5EFCF
:1017CE000BF0075E08380F0B086E0038F00B08267A
:1017DE0000380F0B006E074E63EF0CF0D8900032FE
:1017EE000832074E63EF0CF0D89000320832074EE5
:1017FE0063EF0CF0D8900032083263EF0CF0030E5A
:10180E0007641DEF0CF0075E08380F0B086E0038EA
:10181E00F00B082600380F0B006E0138F00B002677
:10182E0001380F0B016E074E63EF0CF0D8900132AA
:10183E0000320832074E63EF0CF0D89001320032BE
:10184E000832074E63EF0CF0D890013200320832A6
:10185E0063EF0CF0030E07644EEF0CF0075E0838D2
:10186E000F0B086E0038F00B082600380F0B006EB9
:10187E000138F00B002601380F0B016E0238F00B09
:10188E00012602380F0B026E074E63EF0CF0D89054
:10189E000232013200320832074E63EF0CF0D8905C
:1018AE000232013200320832074E63EF0CF0D8904C
:1018BE000232013200320832096A000E0EAE57EFC4
:1018CE000DF0081E001E011E021E082A0022012213
:1018DE00022257EF0DF00750D8A478EF0CF08FEFDF
:1018EE000DF0096A02C00AF0028E068E0750035CE4
:1018FE00076ED8B44AEF0DF0070E076418EF0DF01F
:10190E00075E0450096E0550046E0650056E066A99
:10191E00074E4AEF0DF0070E0764EDEF0CF0075E71
:10192E000450096E0550046E056A074E4AEF0DF01D
:10193E00070E0764CBEF0CF0075E0450096E046AC5
:10194E00074E4AEF0DF0070E0764B2EF0CF00AC017
:10195E0002F08FEF0DF0030E0764BDEF0CF0075E83
:10196E0009380F0B096E074E4AEF0DF0D890093269
:10197E00074E4AEF0DF0D8900932074E4AEF0DF0A0
:10198E00D89009324AEF0DF0030E0764DCEF0CF02D
:10199E00075E09380F0B096E0438F00B0926043860
:1019AE000F0B046E074E4AEF0DF0D8900432093239
:1019BE00074E4AEF0DF0D89004320932074E4AEF27
:1019CE000DF0D890043209324AEF0DF0030E076481
:1019DE0004EF0DF0075E09380F0B096E0438F00B9B
:1019EE00092604380F0B046E0538F00B0426053853
:1019FE000F0B056E074E4AEF0DF0D89005320432EC
:101A0E000932074E4AEF0DF0D890053204320932F2
:101A1E00074E4AEF0DF0D8900532043209324AEFE4
:101A2E000DF0030E076435EF0DF0075E09380F0B4E
:101A3E00096E0438F00B092604380F0B046E0538B6
:101A4E00F00B042605380F0B056E0638F00B052635
:101A5E0006380F0B066E074E4AEF0DF0D890063281
:101A6E00053204320932074E4AEF0DF0D890063295
:101A7E00053204320932074E4AEF0DF0D890063285
:101A8E00053204320932086A000E0EAE57EF0DF021
:101A9E00091E041E051E061E092A04220522062200
:101AAE000950082604500022055001220650022239
:101ABE000EBE6EEF0DF0D8A07DEF0DF002320132AA
:101ACE0000320832033E7DEF0DF089EF0DF0D8B0F5
:101ADE0083EF0DF0000E081E001E011E021E082AC6
:101AEE000022012202220A7E83EF0DF0010E0C6EFF
:101AFE00AAEC03F091EF0DF0020E0C6EAAEC03F0BF
:101B0E0091EF0DF0040E0C6EEFEC00F091EF0DF076
:061B1E00000E0C6E120027
:101B24000050086E0150006E0250016E0350026EA8
:101B3400036A0B6A0C6A9E0E036E0A6A02AEAFEF6A
:101B44000DF0081E001E011E021E082AD8B4002A29
:101B5400D8B4012AD8B4022A0A8E020E0C6EAAEC5A
:041B640003F0120078
:101B68000450000A12E10550000A0FE10650000A6D
:101B78000CE10750000A09E1FF0E006EFF0E016E2E
:101B8800FF0E026E7F0E036E99D00C6A07BE0C2AF8
:101B98000D6A0B6A0A6A096A086A03500210011082
:101BA8000010D8B485D0035007180E6E0EBE0D1E57
:101BB80007AE0BD0041E051E061E071E042AD8B445
:101BC800052AD8B4062AD8B4072A03AE0BD0001EBB
:101BD800011E021E031E002AD8B4012AD8B4022A04
:101BE800D8B4032A035007100E6E0EBE1DD0A8EC01
:101BF80004F00CBE36D00DAE5BD0001E011E021ED6
:101C0800031E002AD8B4012AD8B4022AD8B4032A59
:101C1800081E091E0A1E0B1E082AD8B4092AD8B4A1
:101C28000A2AD8B40B2A44D007AE15D003BE0DD06B
:101C380003500B6E02500A6E0150096E0050086E78
:101C4800036A026A016A006AD6D7036A026A016AED
:101C5800006A002A000C031E021E011E001E0C8EC4
:101C6800C6D7082AD8B4092AD8B40A2AD8B40B2A5D
:101C78000450085CD8A4BFD70550095CD8A4BBD7CA
:101C880006500A5CD8A4B7D707500B5CD8A4B3D7C2
:101C98000B6A0A6A096A086A002AD8B4012AD8B401
:101CA800022AD8B4032A03AEA6D70E6A0E88FF0C00
:0E1CB8000E6A0CA002D09CEC04F0000F12008B
:101CC60000C008F00B6A0C6A9E0E036E0A6A026A6E
:0E1CD600016A006A020E0C6EAAEC03F0120006
:101CE4000450000A12E10550000A0FE10650000AF0
:101CF4000CE10750000A09E1FF0E006EFF0E016EB1
:101D04007F0E026EFF0E036EA8D0086A096A0750A0
:101D1400D8B41DEF0FF00350D8B422EF0FF00250E7
:101D240006180A6E028E068E0E6A02C008F001C002
:101D34000CF000C00DF004500D5E0550D8A0053C19
:101D44000C5E0650D8A0063C085E086A0C6A0D6A50
:101D5400D8A0B4EF0EF0D89002320132003208322B
:101D6400010E0E6E0750035ED8A0C1EF0EF07E0E7A
:101D74000E240326D8B027EF0FF0C7EF0EF07E0E27
:101D84000E240326D8A02CEF0FF0180E0B6E0D3680
:101D94000C3608360036013602360E360450005E24
:101DA4000550D8A0053C015E0650D8A0063C025E52
:101DB40006340E120EA0E2EF0EF00D80EDEF0EF0E1
:101DC400045000260550D8B0053C01260650D8B072
:101DD400062802260D900B2EC9EF0EF013EF0FF01C
:101DE400D8900036013602360E360450005E055097
:101DF400D8A0053C015E0650D8A0063C025E06341D
:101E04000E10010B0D26D8B00C2AD8B4082AD8A479
:101E140013EF0FF008320C320D32032AD8B427EF37
:101E24000FF00AAE089E0850026E0C50016E0D5061
:101E3400006E2FEF0FF0010EFAEC07F02FEF0FF00A
:101E4400020E62EC00F02FEF0FF0040EEFEC00F046
:0C1E54002FEF0FF0080EC3EC00F012009E
:101E60000B6A0A6A096A00500402F4CF09F0F3CF42
:101E700008F001500502F4CF0BF0F3CF0AF0005048
:101E80000502F3500926F4500A22E86A0B22015099
:101E90000402F3500926F4500A22E86A0B2208C013
:101EA00000F009C001F00AC002F00BC003F01200FC
:101EB000800E006E800E03016019005C02E15F512C
:101EC000500803E3006A016ABBD0800E006E800EEA
:101ED0006019005C02E15F51AB0805E3F40E5F2777
:101EE000000E6023A9D0800E010A006E800E6019DA
:101EF000005C02E15F51480805E3FE0E5F27000E1B
:101F000060239AD0800E020A006E800E6019005C79
:101F100002E15F51460805E3180E5F27010E6023BA
:101F20008BD0800E030A006E800E6019005C02E107
:101F30005F51340805E3290E5F27010E60237CD032
:101F4000800E040A006E800E6019005C02E15F5191
:101F50004C0805E3360E5F27010E60236DD0800E1E
:101F6000080A006E800E6019005C02E15F5185086E
:101F700005E3AE0E5F27010E60235ED0800E0C0AD3
:101F8000006E800E6019005C02E15F51FA0805E303
:101F9000E40E5F27010E60234FD0800E120A006E00
:101FA000800E6019005C02E15F510F0805E3120E1C
:101FB0005F27020E602340D0800E160A006E800E4E
:101FC0006019005C02E15F51E60805E3880E5F27B7
:101FD000020E602331D0800E1B0A006E800E601945
:101FE000005C02E15F51EA0805E3E70E5F27020E9D
:101FF000602322D0800E210A006E800E6019005CE2
:1020000002E15F51360805E3200E5F27030E6023CF
:1020100013D0800E290A006E800E6019005C02E168
:102020005F51040805E3480E5F27030E602304D0C8
:102030005C0E5F27030E60235FC300F060C301F0F6
:0220400012008C
:102042000201BC51010806E2AF0E03015F6FFEEC14
:1020520007F00ED0BC51010A0BE1010EBE6FBF6B3F
:102062000301706B1FEC03F00301706B1FEC03F0B4
:0220720012005A
:10207400040040EC0BF000C041F301C042F3000E39
:1020840001BEFF0E0301436F446F6BEC0BF000C005
:1020940045F301C046F3000E01BEFF0E0301476F76
:1020A400486F5050010A19E141C300F042C301F0E6
:1020B400030E046E000E056ED1DE00C05FF301C096
:1020C40060F3F4DEEBEC05F000C049F301C04AF321
:1020D40002C04BF303C04CF319D041C300F042C318
:1020E40001F043C302F044C303F0030E046E000E78
:1020F400056E066E076E81EC03F012DD00C049F335
:1021040001C04AF302C04BF303C04CF3800E4819DC
:10211400006E800E4419005C08E14351475D05E1FF
:102124004251465D02E14151455D08E3E70E416FCE
:10213400030E426F000E436F446F44D04551412556
:10214400006E46514221016E47514321026E4851AF
:102154004421036E640E046E000E056E066E076E57
:1021640081EC03F041C304F042C305F043C306F01D
:1021740044C307F04551045E4651055A4751065A77
:102184004851075AEFDC00C041F301C042F302C0DA
:1021940043F303C044F3800E046E800E0318045C02
:1021A40008E10250000805E10150030802E1005073
:1021B400E70808E2E70E0301416F030E426F000EC9
:1021C400436F446F4FC000F07CDD49C304F04AC341
:1021D40005F04BC306F04CC307F00BEC06F0000E01
:1021E400046E000E056E7A0E066E880E076E78DD9C
:1021F40000C049F301C04AF302C04BF303C04CF3DF
:10220400F40E046EFD0E056E340E066E7F0E076E20
:1022140067DD00C049F301C04AF302C04BF303C0B9
:102224004CF34E50010A24E149C300F04AC301F0C3
:102234004BC302F04CC303F049C304F04AC305F096
:102244004BC306F04CC307F00BEC06F0000E046E13
:10225400000E056E480E066E840E076E41DD00C04A
:1022640049F301C04AF302C04BF303C04CF323D03B
:1022740049C300F04AC301F04BC302F04CC303F05E
:1022840049C304F04AC305F04BC306F04CC307F03E
:102294000BEC06F0000E046E000E056E200E066EAA
:1022A400810E076E1DDD00C049F301C04AF302C070
:1022B4004BF303C04CF349C300F04AC301F04BC3D2
:1022C40002F04CC303F0000E046E000E056E000E07
:1022D400066E7E0E076E7FEC0BF000C049F301C062
:1022E4004AF302C04BF303C04CF39EEC06F000C06B
:1022F400D5F201C0D6F2800E0118026E800E025C87
:1023040002E10A0E005C06E2010E0201D86F000E23
:10231400D96F1AD0800E03014419006E800E005C40
:1023240008E1000E435D05E1000E425D02E1640E2A
:10233400415D06E2E70E0201D86F030ED96F04D0A7
:0A23440041C3D8F242C3D9F21200DF
:10234E0004000301425102018A1903E1895103017C
:10235E004119D8B4ABD0030141C389F242C38AF20A
:10236E00000E421902E1010E41193AE10201D75164
:10237E00040A010ED8A4000E016ED751050A010EF3
:10238E00D8A4000E006E015000120EE0020E0301E2
:10239E00666F400E676F1F0E686F010E696F040E39
:1023AE006A6F7FEC07F018D00201D751000A0EE0D9
:1023BE00010E0301666F040E676F1A0E686F010E31
:1023CE00696F040E6A6F7FEC07F006D00201D751D9
:1023DE00000A02E18A8C8A8E0201896B8A6B66D0B2
:1023EE0041C389F242C38AF241C366F342C367F323
:1023FE00E70E0301686F020E696F11EC07F0EAC277
:10240E00E0F22E0E0201E16FEBC2E2F2ECC2E3F259
:10241E00D751040A010ED8A4000E016ED751050A39
:10242E00010ED8A4000E006E015000120EE0020E36
:10243E000301666F400E676FE00E686F020E696FE4
:10244E00040E6A6F7FEC07F031D00201D751000AFB
:10245E000EE0010E0301666F040E676FE00E686FEB
:10246E00020E696F040E6A6F7FEC07F01FD0020137
:10247E00D751000A1BE1800E006E800E0301421937
:10248E00005C02E14151960803E38A9C8A8E0ED0CD
:10249E00800E006E800E4219005C02E14151FA0876
:1024AE0003E3819C819E02D0818C819E04001200E8
:1024BE00030141B102D08B9E01D08B8E41B302D06D
:1024CE008B9601D08B8641B502D08B9C01D08B8C24
:1024DE0041B702D08B9401D08B8441B902D08B9A34
:1024EE0001D08B8A41BB02D08B9201D08B8241BD31
:1024FE0002D08B9801D08B88000E0201731902E175
:10250E005A51721902E1898E01D0899ED1C25FF3B0
:0A251E00D2C260F379EC0AF012005B
:10252800810E03015F6F0F0E606F616B190E626F92
:10253800636B41EC0AF000C041F3810E5F6F0F0E30
:10254800606F010E616F190E626F636B41EC0AF0E8
:1025580000504113810E5F6F0F0E606F020E616FA6
:10256800190E626F636B41EC0AF04151001203E0EF
:08257800010E0001EC6F1200DE
:1025800004005C50000A010ED8A4000E016E020186
:102590005B51010A010ED8A4000E006E0050011616
:1025A000800E03014419006E800E005C02E1640E8F
:1025B000435D000ED8B0010E006E01500016D8B475
:1025C000ABD002017451000AD8A4A2D0D751040A9A
:1025D000010ED8A4000E016ED751050A010ED8A431
:1025E000000E006E015000122CE04E50010A0EE168
:1025F000040E0301666F100E676F3F0E686F000ECA
:10260000696F080E6A6F7FEC07F00DD0040E0301AE
:10261000666F100E676F360E686F000E696F080EDA
:102620006A6F7FEC07F0060E0301666F100E676F8E
:102630002D0E686F000E696F080E6A6F7FEC07F051
:1026400067D00201D751020A010ED8A4000E016E14
:10265000D751030A010ED8A4000E006E01500012DB
:102660002AE04E50010A0DE10301666B090E676F07
:102670005E0E686F000E696F080E6A6F7FEC07F0E0
:102680000CD00301666B090E676FA70E686F000E12
:10269000696F080E6A6F7FEC07F0010E0301666F29
:1026A000090E676F9E0E686F000E696F080E6A6FE5
:1026B0007FEC07F02DD00201D751010A29E14E50DD
:1026C000010A0DE10301666B090E676F960E686FD4
:1026D000000E696F070E6A6F7FEC07F00CD00301E4
:1026E000666B090E676FB00E686F000E696F070E9C
:1026F0006A6F7FEC07F0010E0301666F090E676FCA
:10270000BB0E686F000E696F070E6A6F7FEC07F0F3
:10271000010E0201746F08D002017451010A02E136
:1027200010EC08F00201746B040003014251020135
:102730008D1903E18C5103014119D8B498D341C3D9
:102740008CF242C38DF24E50000A49E10301800E23
:102750004219006E800E005C02E1640E415D1EE3D2
:10276000050E4125006E000E4221016E00C041F3AE
:1027700001C042F300C066F301C067F3E70E686F63
:10278000020E696F11EC07F0E9C2E0F2EAC2E1F271
:10279000EBC2E2F2570E0201E36F20D041C366F3B1
:1027A00042C367F3E70E0301686F020E696F11EC15
:1027B00007F00201EB51200A03E0EBC2E0F202D085
:1027C000300EE06F2E0EE16FEC51200A03E0ECC2F8
:1027D000E2F202D0300EE26F570EE36F32D0800E7D
:1027E00003014219006E800E030A005C02E1E70E4D
:1027F000415D14E241C366F342C367F3E70E686FBD
:10280000020E696F11EC07F0EAC2E0F2EBC2E1F2EE
:10281000ECC2E2F2570E0201E36F13D041C366F33C
:1028200042C367F3E70E0301686F020E696F11EC94
:1028300007F0E9C2E0F2EAC2E1F2EBC2E2F2ECC276
:10284000E3F20201D751040A010ED8A4000E016E72
:10285000D751050A010ED8A4000E006E01500012D7
:102860000DE00301666B400E676FE00E686F020EAD
:10287000696F040E6A6F7FEC07F010D00201D75128
:10288000000A0CE00301666B040E676FE00E686FD0
:10289000020E696F040E6A6F7FEC07F004000201FC
:1028A0007451010AD8A4E3D27551000A010ED8A4CC
:1028B000000E016E5D51000A010ED8A4000E006EDC
:1028C0000150001604E043C3D3F244C3D4F2D3C290
:1028D00000F0D4C201F0EBEC05F000C057F301C0EA
:1028E00058F302C059F303C05AF3000E046E000EF1
:1028F000056E480E066E850E076E57C300F058C36E
:1029000001F059C302F05AC303F072EC0EF000C09C
:1029100053F301C054F302C055F303C056F357C339
:1029200004F058C305F059C306F05AC307F0000E6F
:10293000006E000E016E480E026E850E036E72EC84
:102940000EF053C304F054C305F055C306F056C34C
:1029500007F07FEC0BF000C053F301C054F302C04A
:1029600055F303C056F3B9C200F063EC0EF053C345
:1029700004F054C305F055C306F056C307F00BEC42
:1029800006F0000E046E000E056E200E066E820E1E
:10299000076E72EC0EF01F0E046E850E056E6B0E48
:1029A000066E7B0E076E0BEC06F0000E046E000E3A
:1029B000056E000E066E7F0E076E7FEC0BF000C0FA
:1029C00004F001C005F002C006F003C007F0000EDD
:1029D000006E000E016E000E026E7F0E036E72EC32
:1029E0000EF000C05BF301C05CF302C05DF303C0F6
:1029F0005EF35BC345F35CC346F35DC347F35EC35D
:102A000048F343C300F044C301F0EBEC05F000C011
:102A100057F301C058F302C059F303C05AF3000E34
:102A2000046E000E056E480E066E850E076E57C3C7
:102A300000F058C301F059C302F05AC303F072EC1E
:102A40000EF0000E046E000E056E000E066E800E77
:102A5000076E7FEC0BF000C053F301C054F302C0CB
:102A600055F303C056F357C304F058C305F059C3D8
:102A700006F05AC307F0000E006E000E016E480EFD
:102A8000026E850E036E72EC0EF053C304F054C355
:102A900005F055C306F056C307F07FEC0BF000C0FD
:102AA00004F001C005F002C006F003C007F0000EFC
:102AB000006E000E016E000E026E810E036E72EC4F
:102AC0000EF000C049F301C04AF302C04BF303C04B
:102AD0004CF3000E046E000E056E000E066E7F0EA7
:102AE000076E5BC300F05CC301F05DC302F05EC320
:102AF00003F0D9EC0AF0000ED8B0010E006E0052BF
:102B000009E0000E0301456F000E466F000E476F8F
:102B10007F0E486F000E046E000E056E000E066EEE
:102B20007F0E076E49C300F04AC301F04BC302F0A9
:102B30004CC303F0D9EC0AF0000ED8B0010E006EC1
:102B4000005209E00301000E496F000E4A6F000EAB
:102B50004B6F7F0E4C6F41C300F042C301F0EBECB2
:102B600005F045C304F046C305F047C306F048C36B
:102B700007F00BEC06F049C304F04AC305F04BC361
:102B800006F04CC307F00BEC06F09EEC06F000C01C
:102B90004DF301C04EF345C300F046C301F047C3F7
:102BA00002F048C303F049C304F04AC305F04BC325
:102BB00006F04CC307F00BEC06F0000E046E000E9E
:102BC000056E480E066E850E076E0BEC06F000C013
:102BD0004FF301C050F302C051F303C052F3000E93
:102BE000046E000E056E480E066E850E076ED9EC5B
:102BF0000AF0000ED8B0010E006E005209E0030189
:102C0000000E4F6F000E506F460E516F850E526FC3
:102C10004E50000A49E10301800E4E19006E800EED
:102C2000005C02E1640E4D5D1EE3050E4D25006E55
:102C3000000E4E21016E00C04DF301C04EF300C0E6
:102C400066F301C067F3E70E686F020E696F11EC5F
:102C500007F0E9C2E0F2EAC2E1F2EBC2E2F2570E9B
:102C60000201E36F20D04DC366F34EC367F3E70E56
:102C70000301686F020E696F11EC07F00201EB515E
:102C8000200A03E0EBC2E0F202D0300EE06F2E0E1D
:102C9000E16FEC51200A03E0ECC2E2F202D0300E08
:102CA000E26F570EE36F32D0800E03014E19006EB3
:102CB000800E030A005C02E1E70E4D5D14E24DC395
:102CC00066F34EC367F3E70E686F020E696F11EC8F
:102CD00007F0EAC2E0F2EBC2E1F2ECC2E2F2570E18
:102CE0000201E36F13D04DC366F34EC367F3E70EE3
:102CF0000301686F020E696F11EC07F0E9C2E0F2A0
:102D0000EAC2E1F2EBC2E2F2ECC2E3F20201D75115
:102D1000040A010ED8A4000E016ED751050A010E57
:102D2000D8A4000E006E015000120EE0040E030144
:102D3000666F400E676FE00E686F020E696F040EDB
:102D40006A6F7FEC07F02DD00201D751020A010E05
:102D5000D8A4000E016ED751030A010ED8A4000EAC
:102D6000006E015000120DE00301666B0D0E676FDF
:102D7000E00E686F020E696F040E6A6F7FEC07F059
:102D800010D00201D751010A0CE10301666B0C0E51
:102D9000676FE00E686F020E696F040E6A6F7FEC5A
:102DA00007F04FC300F050C301F051C302F052C30B
:102DB00003F09EEC06F000C066F301C067F3E70E77
:102DC0000301686F020E696F11EC07F0EBC2E0F2CD
:102DD000ECC2E1F20201D751040A010ED8A4000EA0
:102DE000016ED751050A010ED8A4000E006E0150E5
:102DF00000120EE0060E0301666F4C0E676FE00EC8
:102E0000686F020E696F020E6A6F7FEC07F02FD0B9
:102E10000201D751020A010ED8A4000E016ED7514B
:102E2000030A010ED8A4000E006E015000120EE03D
:102E3000010E0301666F0E0E676FE00E686F020EE3
:102E4000696F020E6A6F7FEC07F011D00201D75153
:102E5000010A0DE1010E0301666F0D0E676FE00EB2
:102E6000686F020E696F020E6A6F7FEC07F0040054
:022E700012004E
:102E720002015C51000A25E1030141B102D08A96A8
:102E820001D08A8641B302D0899401D0898441B5A8
:102E920002D08A9801D08A8841B702D0899601D09F
:102EA200898641B902D08A9A01D08A8A41BB02D06E
:102EB200899A01D0898A41BD02D0899801D0898836
:102EC20024D0030141B102D08A8601D08A9641B34F
:102ED20002D0898401D0899441B502D08A8801D078
:102EE2008A9841B702D0898601D0899641B902D029
:102EF2008A8A01D08A9A41BB02D0898A01D0899AF2
:102F020041BD02D0898801D08998D1C25FF3D2C273
:082F120060F379EC0AF01200F3
:102F1A00A6A202D00000FCD7A69C39C3A9FF3AC3D7
:102F2A00A8FFA69EA684F2CF00F0F29E550EA76EC9
:102F3A00AA0EA76EA68200BE02D0F29E01D0F28E21
:0E2F4A00A694A1B802D00000FCD7A1981200F6
:102F5800030139B102D08B9001D08B80D1C25FF3CD
:0A2F6800D2C260F379EC0AF0120007
:102F72000201756B5D6B0301416B7ADF5DC241F348
:102F82005FEC12F0D1C25FF3D2C260F379EC0AF0C7
:022F920012002B
:102F940003013D6B3E6B010E3F6F000E406F640EEC
:102FA4000201BA5D03013A6F000E0201BB5903012D
:102FB4003B6F0201D56BD66B0400780E03013C6FA6
:102FC400396B3C51395D48E281B202D0068001D0B0
:102FD400069081B402D0D88001D0D89006B003D036
:102FE40002E2069001D0068081B002D0D88001D0E0
:102FF400D89006B003D002E2069001D0068006A065
:1030040008D094EC12F00001EC51010A02E1EC6BDF
:10301400D1D23AEC10F0800E03013E19006E800EFE
:103024000201D619005C03E1D55103013D5D08E2BC
:10303400D5C23DF3D6C23EF3D8C23FF3D9C240F362
:10304400100E0C6E940E0D6E03010D2EFDD70C2E7A
:10305400FBD70000392BB5D704003DC3EAF03EC3CB
:10306400EBF03FC341F340C342F3A7EC11F0800EF1
:1030740003014019006E800E005C02E1640E3F5DA6
:1030840016E321EC10F0C8C000F063EC0EF0C4C0ED
:1030940004F0C5C005F0C6C006F0C7C007F00BECCD
:1030A40006F09EEC06F000C0DDF001C0DEF0800EFC
:1030B40003014019006E800E0201BB19005C03E19C
:1030C400BA5103013F5D000ED8B0010E006E0050EE
:1030D4000001C315056E800E02015F19036E800E98
:1030E40003014019035C03E13F5102015E5D0201EB
:1030F400010ED8B0000E036E5E5103013F5D016EF8
:1031040002015F5103014059026E800E3B19006EAB
:10311400800E0218005C02E101503A5D010ED8B045
:10312400000E006E00500314046E800E4019036EEE
:10313400800E02015F19035C03E15E5103013F5DF0
:103144000301010ED8B0000E036E3F5102015E5D13
:10315400016E0301405102015F59026E800E0301AA
:103164003B19006E800E0218005C02E101503A5DCA
:10317400010ED8B0000E006E03500016005004106B
:10318400016E02015F51030A02E1E70E5E19010EAE
:10319400D8A4000E006E015000120550001603E082
:1031A400010E0001C96F81B202D0068001D00690E1
:1031B40081B402D0D88001D0D89006B003D002E206
:1031C400069001D0068081B002D0D88001D0D8907A
:1031D40006B003D002E2069001D0068006A008D013
:1031E40094EC12F00001EC51010A02E1EC6BE2D123
:1031F400EAC041F3EBC042F33FC343F340C344F39B
:10320400C0EC12F081B202D0068001D0069081B4E5
:1032140002D0D88001D0D89006B003D002E2069044
:1032240001D0068081B002D0D88001D0D89006B0F9
:1032340003D002E2069001D0068006A008D094ECE8
:1032440012F00001EC51010A02E1EC6BB3D1000170
:103254000400DC51010AD8A4ADD10201D751040AFB
:10326400010ED8A4000E016ED751050A010ED8A490
:10327400000E006E01500012D8B4CAD0020E030131
:10328400666F100E676FD30E686F000E696F080EBD
:103294006A6F7FEC07F0030E0B6E080E0C6E770E50
:1032A4000D6E0D2EFED70C2EFCD70B2EFAD7020E68
:1032B4000301666F100E676FCA0E686F000E696FA8
:1032C400080E6A6F7FEC07F00B0E0B6E260E0C6E69
:1032D4005D0E0D6E0D2EFED70C2EFCD70B2EFAD7DD
:1032E400000000000400020E0301666F100E676FF9
:1032F400ED0E686F000E696F080E6A6F7FEC07F0C1
:10330400070E0B6E170E0C6E6A0E0D6E0D2EFED789
:103314000C2EFCD70B2EFAD700000400020E03017A
:10332400666F100E676F480E686F010E696F080EA6
:103334006A6F7FEC07F00B0E0B6E260E0C6E5D0EA3
:103344000D6E0D2EFED70C2EFCD70B2EFAD70000D7
:1033540000000400020E0301666F100E676F3F0E3B
:10336400686F010E696F080E6A6F7FEC07F0070E35
:103374000B6E170E0C6E6A0E0D6E0D2EFED70C2EF4
:10338400FCD70B2EFAD700000400020E0301666F6F
:10339400100E676F360E686F010E696F080E6A6F44
:1033A4007FEC07F00B0E0B6E260E0C6E5D0E0D6E91
:1033B4000D2EFED70C2EFCD70B2EFAD700000000E2
:1033C4000400020E0301666F100E676F510E686FE2
:1033D400010E696F080E6A6F7FEC07F0030E0B6E27
:1033E400080E0C6E770E0D6E0D2EFED70C2EFCD72C
:1033F4000B2EFAD7020E0301666F100E676F6C0E68
:10340400686F010E696F080E6A6F7FEC07F0C6D013
:103414000201D751000AD8B4C1D0010E0301666F6E
:10342400676B630E686F010E696F080E6A6F7FEC3D
:1034340007F0030E0B6E080E0C6E770E0D6E0D2E3C
:10344400FED70C2EFCD70B2EFAD7010E0301666FA4
:10345400676B5A0E686F010E696F080E6A6F7FEC16
:1034640007F00B0E0B6E260E0C6E5D0E0D6E0D2E00
:10347400FED70C2EFCD70B2EFAD700000000040058
:10348400010E0301666F676B2D0E686F010E696F85
:10349400080E6A6F7FEC07F0070E0B6E170E0C6EAA
:1034A4006A0E0D6E0D2EFED70C2EFCD70B2EFAD7FE
:1034B40000000400010E0301666F676B080E686F5D
:1034C400010E696F080E6A6F7FEC07F00B0E0B6E2E
:1034D400260E0C6E5D0E0D6E0D2EFED70C2EFCD737
:1034E4000B2EFAD7000000000400010E0301666FE2
:1034F400676BFF0E686F000E696F080E6A6F7FECD2
:1035040007F0070E0B6E170E0C6E6A0E0D6E0D2E65
:10351400FED70C2EFCD70B2EFAD700000400010EA8
:103524000301666F676BF60E686F000E696F080E15
:103534006A6F7FEC07F00B0E0B6E260E0C6E5D0EA1
:103544000D6E0D2EFED70C2EFCD70B2EFAD70000D5
:1035540000000400010E0301666F676B110E686FB3
:10356400010E696F080E6A6F7FEC07F0030E0B6E95
:10357400080E0C6E770E0D6E0D2EFED70C2EFCD79A
:103584000B2EFAD7010E0301666F676B240E686F6A
:10359400010E696F080E6A6F7FEC07F00400100ECD
:1035A4000201896F270E8A6F3FC341F340C342F380
:0635B400A7EC11F012006B
:1035BA00DBDC010E0201736F010E0301396FC7DCF8
:1035CA00050E02017203F3CF00F00050FF08030159
:1035DA00396F3A6B9DDC050E02017203F3CF00F0DE
:1035EA000050FE080301396F3A6B92DC050E0201A6
:1035FA007203F3CF00F00050FD080301396F010E8A
:10360A003A6F86DC050E02017203F3CF00F0005018
:10361A00FC080301396F3A6B7BDC050E0201720369
:10362A00F3CF00F00050FB080301396F3A6B70DCEE
:10363A0010EC08F00201746B898CD86BD96BD56BCE
:10364A00D66B5E6B5F6BD751040A010ED8A4000ECD
:10365A00016ED751050A010ED8A4000E006E015062
:10366A0000122BE0020E0301666F100E676F690EDF
:10367A00686F020E696F080E6A6F7FEC07F004002C
:10368A000D0E0B6E2D0E0C6ED70E0D6E0D2EFED777
:10369A000C2EFCD70B2EFAD700000000020E0301F5
:1036AA00666F100E676F600E686F020E696F080E04
:1036BA006A6F7FEC07F004002FD00201D751000A8D
:1036CA0029E0010E0301666F676B800E686F020EB8
:1036DA00696F080E6A6F7FEC07F004000D0E0B6E1F
:1036EA002D0E0C6ED70E0D6E0D2EFED70C2EFCD79E
:1036FA000B2EFAD700000000010E0301666F676BFC
:10370A00770E686F020E696F080E6A6F7FEC07F01A
:10371A00040002D08A8C8A8E100E0201896F270E4D
:0E372A008A6F100E8C6F270E8D6F2FDC120031
:103738000134083609360450085E0550D8A0053C07
:10374800095E003601360F0E0C6E01340836093654
:10375800045000A006D0085E0550D8A0053C095EBC
:1037680005D008260550D8B0053C09260036013694
:103778000C2EEBD700B006D0045008260550D8B060
:08378800053C092600001200B7
:103790000450000A08E10550000A05E1FF0E006E22
:1037A0007F0E016E57D00D6A096A086A0150001039
:1037B000D8B4000C015005180A6E0ABE0D1E0B6A23
:1037C00005AE05D0041E051E042AD8B4052A01AE94
:1037D00005D0001E011E002AD8B4012A0150051090
:1037E0000A6E0ABE10D0A8DF0BB020D00DAE000CC0
:1037F000001E011E002AD8B4012A081E091E082A2C
:10380000D8B4092A000C05AE0DD001BE07D0015076
:10381000096E0050086E016A006AE8D7016A006A02
:10382000002A000C011E001E0B2ADDD7082AD8B47E
:10383000092A0450085CD8A4D9D70550095CD8A43B
:10384000D5D7096A086A002AD8B4012A01AECED7B2
:063850000000FF0C120055
:103856003AEC10F002018B51640A10E08B2B800EBB
:10386600DD19006E800ED619005C02E1D551DC5DD3
:1038760004E2D5C2DCF2D6C2DDF20ED08B6BDCC21E
:1038860041F3DDC242F3D8C243F3D9C244F3C0ECDC
:1038960012F00201DC6BDD6B0201800ED619026E9E
:1038A600800EDB19025C02E1DA51D55D010ED8B05B
:1038B600000E026E800EDF19016E800ED619015CB5
:1038C60002E1D551DE5D010ED8B0000E016E800E0C
:1038D600006E800EDF19005C02E1DE510008010E69
:1038E600D8B0000E006E015000160250001251E0D2
:1038F60004003AEC10F002018B51640A10E08B2BA5
:10390600800EDD19006E800ED619005C02E1D551DD
:10391600DC5D04E2D5C2DCF2D6C2DDF20ED08B6BE2
:10392600DCC241F3DDC242F3D8C243F3D9C244F349
:10393600C0EC12F00201DC6BDD6B810E03015F6FE0
:103946000F0E606F616B050E626F010E636F41ECC7
:103956000AF0005203E0010E0201766F0201765171
:10396600010A010ED8A4000E0301386F810E5F6FA5
:103976000F0E606F616B050E626F636B41EC0AF0B0
:103986003851001605E016DE0201D86BD96B01D05E
:0439960083D71200C1
:10399A00030E0301376F02015D6B0301416B5FEC9C
:1039AA0012F037C3A8F252DF000E0201D91902E160
:1039BA00000ED81901E190D0140E046E000E056EA7
:1039CA00D8C200F0D9C201F0DEDE00500201D825CB
:1039DA000301356F01500201D9210301366F37C344
:1039EA0034F3030134511F08D8A072D034510201B4
:1039FA00A703F3CF41F35FEC12F028DF000E0201B8
:103A0A00D91902E1000ED81901E166D0800ED91940
:103A1A00006E800E03013619005C03E13551020184
:103A2A00D85D54E2140E046E000E056ED8C200F082
:103A3A00D9C201F0A8DE00500201D8250301356F72
:103A4A0001500201D9210301366F34510201A70343
:103A5A00F3CF5DF237C3A8F2800ED919006E800E3B
:103A6A00005C02E1780ED85D01E232D003013751E1
:103A7A003425026E02C034F30201AE51000A010E6F
:103A8A00D8A4000E016E0250090A010ED8A4000E35
:103A9A00006E0150001604E0080E0301346F15D0C1
:103AAA000201AE51000A010ED8A4000E016E0301F4
:103ABA003451110A010ED8A4000E006E01500016EE
:103ACA0004E0100E346F040E376F01D001D089D78D
:0A3ADA005DC241F35FEC12F0120030
:103AE4000201B751B603F3CF00F000C02EF300502B
:103AF4007525046E04C030F3050E026EB6C200F0E4
:103B0400000E016E025005E0003600900136FF0FF2
:103B1400FAD7010E005C026E000E0158036E800E8F
:103B24000318006E800E005C02E10450025C0DE29A
:103B3400050E006EB6C230F3005005E003013037C5
:103B44003091FF0FFAD703013007020175510301C9
:103B54002E5D06E22E510201755D0301316F01D025
:103B6400316B31C375F231C341F339EC17F071DEB7
:103B7400000E0201D91902E1000ED81901E170D03A
:103B8400D8C232F3D9C233F3B651030131252F6FB2
:103B94002F51305D61E32FC341F339EC17F059DE47
:103BA400000E0201D91902E1000ED81901E158D022
:103BB400800ED919006E800E03013319005C03E1F5
:103BC40032510201D85D0BE3340E0C6EF10E0D6E12
:103BD4000D2EFED70C2EFCD7000000003ADE800E1E
:103BE4000201D919006E800E03013319005C03E150
:103BF40032510201D85D0BE3340E0C6EF10E0D6EE2
:103C04000D2EFED70C2EFCD70000000022DE800E05
:103C14000201D919006E800E03013319005C03E11F
:103C240032510201D85D12E20201D8C232F3D9C284
:103C340033F32FC375F2800ED919006E800E005C29
:103C440002E1780ED85D01E207D001D005D002016F
:103C5400B65103012F279CD775C241F339EC17F0F5
:023C640012004C
:103C6600030E0301336F2F6B33C3B7F2030E306FAE
:103C7600140E046E000E056ED8C200F0D9C201F013
:103C860084DD00500201D8250301316F0150020185
:103C9600D9210301326F2E6B03012E511F08D8A0C4
:103CA60077D02E510201B603F3CF41F339EC17F06A
:103CB60071DECEDD000E0201D91902E1000ED8191F
:103CC60001E17CD0800ED919006E800E03013219F5
:103CD600005C03E131510201D85D58E2140E046E16
:103CE600000E056ED8C200F0D9C201F04EDD0050BC
:103CF6000201D8250301316F01500201D9210301C8
:103D0600326F2E510201B603F3CF75F25DC22FF367
:103D160033C3B7F2A8C230F3800ED919006E800EF5
:103D2600005C02E1780ED85D01E232D00301335126
:103D36002E25026E02C02EF30201B851000A010EB2
:103D4600D8A4000E016E0250090A010ED8A4000E76
:103D5600006E0150001604E0080E03012E6F15D008
:103D66000201B851000A010ED8A4000E016E03012B
:103D76002E51110A010ED8A4000E006E0150001635
:103D860004E0100E2E6F040E336F01D001D084D7DD
:103D96002FC35DF275C241F339EC17F05DC241F3F2
:103DA6005FEC12F030C3A8F2340E0C6EF10E0D6EFD
:0E3DB6000D2EFED70C2EFCD7000000001200D0
:103DC4000201A851A703F3CF00F000C02EF3005066
:103DD4005D25046E04C030F3050E026EA7C200F028
:103DE400000E016E025005E0003600900136FF0F10
:103DF400FAD7010E005C026E000E0158036E800EAD
:103E04000318006E800E005C02E10450025C0DE2B7
:103E1400050E006EA7C230F3005005E003013037F1
:103E24003091FF0FFAD70301300702015D510301FE
:103E34002E5D06E22E5102015D5D0301316F01D05A
:103E4400316B31C35DF231C341F35FEC12F001DD3C
:103E5400000E0201D91902E1000ED81901E170D057
:103E6400D8C232F3D9C233F3A751030131252F6FDE
:103E74002F51305D61E32FC341F35FEC12F0E9DCB5
:103E8400000E0201D91902E1000ED81901E158D03F
:103E9400800ED919006E800E03013319005C03E112
:103EA40032510201D85D0BE3340E0C6EF10E0D6E2F
:103EB4000D2EFED70C2EFCD700000000CADC800EAD
:103EC4000201D919006E800E03013319005C03E16D
:103ED40032510201D85D0BE3340E0C6EF10E0D6EFF
:103EE4000D2EFED70C2EFCD700000000B2DC800E95
:103EF4000201D919006E800E03013319005C03E13D
:103F040032510201D85D12E20201D8C232F3D9C2A1
:103F140033F32FC35DF2800ED919006E800E005C5E
:103F240002E1780ED85D01E207D001D005D002018C
:103F3400A75103012F279CD75DC241F35FEC12F018
:023F4400120069
:103F4600D8C228F3D9C229F38BDE000E0201D91993
:103F560002E1000ED81903E1B9EC17F018D178DCAC
:103F6600800E0201D919006E800E005C02E1780E07
:103F7600D85D01E20CD1B3DD000E0201D91902E1D0
:103F8600000ED81903E1B9EC17F001D161DC800EFF
:103F96000201D919006E800E005C02E1780ED85D30
:103FA60001E2F5D00CDF000E0201D91902E1000E84
:103FB600D81903E1B9EC17F0EAD04ADC800E020109
:103FC600D919006E800E005C02E1780ED85D01E220
:103FD600DED0800ED919016E800E015C02E1C80E9A
:103FE600D85D010ED8B0000E016E800ED919006E94
:103FF600800E03012919005C03E128510201D85DF6
:104006000201010ED8B0000E006E00500114036EBE
:10401600D8510301285D016E0201D95103012959C6
:10402600026E800E006E800E0218005C02E10150E6
:104036006408010ED8B0000E006E0350001601E0B1
:10404600A6D0D8C228F3D9C229F375C22AF3000E26
:104056002B6F5DC22CF3000E2D6F02017351010A06
:1040660002E1736B02D0010E736FB9EC17F073C2E5
:1040760039F3ACEC17F0020E0B6E040E0C6EBA0E92
:104086000D6E0D2EFED70C2EFCD70B2EFAD7000088
:104096002BEC1CF0800E0201D919006E800E005C1C
:1040A60002E1780ED85D01E272D0DADD000E02017F
:1040B600D91902E1000ED81903E1B9EC17F067D05F
:1040C6002BEC1CF0800E0201D919006E800E005CEC
:1040D60002E1780ED85D01E25AD001DD000E020140
:1040E600D91902E1000ED81903E1B9EC17F04FD047
:1040F6002BEC1CF0800E0201D919006E800E005CBC
:1041060002E1780ED85D01E242D059DE000E0201CE
:10411600D91902E1000ED81903E1B9EC17F037D02E
:104126002BEC1CF0800E0201D919006E800E005C8B
:1041360002E1780ED85D01E22AD0800E030129192A
:10414600006E800E0201D919005C03E1D85103010B
:10415600285D1CE202017351010A02E1736B02D071
:10416600010E736F73C239F3ACEC17F02AC375F204
:104176002CC35DF22AC341F339EC17F05DC241F35B
:104186005FEC12F028C3D8F229C3D9F2040012005A
:10419600040002018B6BDC6BDD6B766B2BEC1CF089
:1041A600800E0201D919006E800E005C02E16E0ECF
:1041B600D85D01E2ABD0B9EC17F002015B51000A01
:1041C60002E110EC08F0020E0B6E040E0C6EBA0E35
:1041D6000D6E0D2EFED70C2EFCD70B2EFAD7000037
:1041E6002BEC1CF0D8C2D3F2D9C2D4F2800E020155
:1041F600D919006E800E005C02E16E0ED85D01E2F8
:1042060085D0800E016E800E03010E19015C02E15D
:104216000D516E08010ED8B0000E016E800E0E19FB
:10422600006E800E0201D919005C03E1D85103012A
:104236000D5D010ED8B0000E006E0150001601E0B3
:1042460065D07EDE000E0201D91902E1000ED819F2
:1042560003E1B9EC17F05AD0800E0201D919006EAD
:10426600800E005C02E1780ED85D01E24FD0B451B9
:10427600050A010ED8A4000E016EB551050A010EFD
:10428600D8A4000E006E0150001601E03FD0B551D3
:10429600050805E2B6C2B7F2010EB66F20DC800E45
:1042A6000201D919006E800E005C02E1780ED85D1D
:1042B60001E22CD0B451050805E2A7C2A8F2010E0E
:1042C600A76F7DDD0201B551050A03E1010EB66F48
:1042D6000BD0B551060A03E1020EB66F05D0B551F3
:1042E600070A02E1040EB66FB451050A03E1010E96
:1042F600A76F0BD0B451060A03E1020EA76F05D0D3
:0E430600B451070A02E1040EA76F0400120072
:1043140045EC00F0CCC27FF30EEC00F003017F6BA0
:104324000EEC00F0AE0E03017F6F0EEC00F0020104
:10433400BC51020A010ED8A4000E016EBC51030A3E
:10434400010ED8A4000E006E01500012D8B497D00C
:10435400D50E03017F6F0EEC00F0800E03017F6F1A
:104364000EEC00F0A80E03017F6F0EEC00F03F0E80
:1043740003017F6F0EEC00F0D30E03017F6F0EEC90
:1043840000F00201BC51020A05E1CAC27FF30EEC3F
:1043940000F007D00201CA511F0F03017F6F0EEC1A
:1043A40000F0400E03017F6F0EEC00F08D0E030150
:1043B4007F6F0EEC00F0140E03017F6F0EEC00F023
:1043C400810E03017F6F0EEC00F0B40E03017F6FCA
:1043D4000EEC00F0D90E03017F6F0EEC00F0220EFC
:1043E40003017F6F0EEC00F0200E03017F6F0EECD3
:1043F40000F0020E03017F6F0EEC00F0210E0301AA
:104404007F6F0EEC00F003017F6B0EEC00F07F0E6B
:1044140003017F6F0EEC00F02E0E03017F6F0EEC94
:1044240000F00201BC51020A0BE1A00E03017F6FF0
:104434000EEC00F0C00E03017F6F0EEC00F00AD00A
:10444400A10E03017F6F0EEC00F0C80E03017F6F15
:104454000EEC00F0DA0E03017F6F0EEC00F0020E9A
:1044640003017F6F0EEC00F0DB0E03017F6F0EEC97
:1044740000F0400E03017F6F0EEC00F08AD0D50EE1
:1044840003017F6F0EEC00F0800E03017F6F0EECD2
:1044940000F0A80E03017F6F0EEC00F03F0E030145
:1044A4007F6F0EEC00F0D30E03017F6F0EEC00F073
:1044B400CAC27FF30EEC00F0400E03017F6F0EECD6
:1044C40000F08D0E03017F6F0EEC00F0140E03015B
:1044D4007F6F0EEC00F0810E03017F6F0EEC00F095
:1044E400FF0E03017F6F0EEC00F0D90E03017F6F06
:1044F4000EEC00F0F10E03017F6F0EEC00F0200EC5
:1045040003017F6F0EEC00F0020E03017F6F0EECCF
:1045140000F0210E03017F6F0EEC00F003017F6BAE
:104524000EEC00F07F0E03017F6F0EEC00F02E0EF8
:1045340003017F6F0EEC00F00201BC51040A0BE191
:10454400A00E03017F6F0EEC00F0C00E03017F6F1D
:104554000EEC00F00AD0A10E03017F6F0EEC00F008
:10456400C80E03017F6F0EEC00F0DA0E03017F6FBB
:104574000EEC00F0120E03017F6F0EEC00F0DB0E68
:1045840003017F6F0EEC00F0400E03017F6F0EEC11
:1045940000F0A40E03017F6F0EEC00F0A60E0301E1
:1045A4007F6F0EEC00F069EC00F0030E0B6E080E4A
:1045B4000C6E770E0D6E0D2EFED70C2EFCD70B2E27
:1045C400FAD745EC00F0CCC27FF30EEC00F0400EBD
:1045D40003017F6F0EEC00F00201BC51020A010ED0
:1045E400D8A4000E016EBC51030A010ED8A4000E1B
:1045F400006E0150001219E00301276B27510308D4
:1046040013E327C37AF37B6B80EC00F00301266B82
:104614000301800E265D05E2262B7F6B0EEC00F075
:10462400F7D70301272BEAD718D00301276B2751AB
:10463400070813E327C37AF37B6B80EC00F00301D4
:10464400266B0301800E265D05E2262B7F6B0EECA4
:1046540000F0F7D70301272BEAD769EC00F0AF0E7F
:0A46640003015F6FFEEC07F0120087
:10466E00086A080E0C6E003408360450085ED8B086
:0E467E0002D00826D89000360C2EF5D7120078
:10468C000301266B0201BC51000A31E0938E016AD2
:10469C00015007081AE3030126372691FE0E261750
:1046AC00060E0D6E0D2EFED70000938C060E0D6EB1
:1046BC000D2EFED7000081BE262B939C060E0D6E90
:1046CC000D2EFED70000012AE3D7938E060E0D6E39
:1046DC000D2EFED70000938C060E0D6E0D2EFED700
:1046EC000000939C060E0D6E0D2EFED7000026C307
:0446FC0000F01200B8
:10470000800E006E3E0E016E000E026E036E1200F1
:10471000A69C26C3A9FFA69EA680A8CF00F01200E3
:10472000A80E0201CD6F0B0ECE6F660ECF6F030E7B
:10473000D06FC26A0101C51D006E0050C116070E80
:08474000C012C08EC2801200FD
:1047480026C300F00032009E0032009E0032009E18
:104758000032009E0A0E0002F3CF01F00F0E030193
:0A4768002615006E01500026120015
:1047720004000201D751040A010ED8A4000E016EF2
:10478200D751050A010ED8A4000E006E0150001286
:10479200D8B4D0D02C50000AD8A485D00301666BBF
:1047A200160E676F260E686F020E696F070E6A6F2C
:1047B2007FEC07F0020E0301666F060E676F320E82
:1047C200686F020E696F090E6A6F7FEC07F0040EC4
:1047D2000301666F100E676F510E686F020E696FEC
:1047E200080E6A6F7FEC07F0060E0301666F040E77
:1047F200676F450E686F020E696F0B0E6A6F7FEC72
:1048020007F004000D0E0B6E2D0E0C6ED70E0D6E02
:104812000D2EFED70C2EFCD70B2EFAD7000000006F
:1048220004000B0E0B6E260E0C6E5D0E0D6E0D2E21
:10483200FED70C2EFCD70B2EFAD700000000040086
:104842000301666B100E676F3C0E686F020E696F94
:10485200080E6A6F7FEC07F0020E0301666F040E0A
:10486200676F1B0E686F020E696F0A0E6A6F7FEC2C
:1048720007F0040E0301666F100E676FF60E686F85
:10488200010E696F080E6A6F7FEC07F0060E0301D6
:10489200666F040E676FEB0E686F010E696F0B0E89
:1048A2006A6F7FEC07F0040E0B6E0C0E0C6E330E6B
:1048B2000D6E0D2EFED70C2EFCD70B2EFAD7000054
:1048C20000004E50010A0DE10301666B100E676F86
:1048D200E20E686F010E696F080E6A6F7FEC07F0D7
:1048E2000CD00301666B100E676FFF0E686F010E2E
:1048F200696F080E6A6F7FEC07F0020E0301666FA4
:10490200100E676F120E686F020E696F080E6A6FE3
:104912007FEC07F00001C3530CE00301666B700EDD
:10492200676F100E686F020E696F010E6A6F7FEC7F
:1049320007F0D3D00201D751000AD8B4CED02C5000
:10494200000AD8A487D00301666B040E676F080EB5
:10495200686F020E696F070E6A6F7FEC07F0010E37
:104962000301666F030E676F950E686F010E696F24
:10497200090E6A6F7FEC07F004000F0E0B6E350E06
:104982000C6E510E0D6E0D2EFED70C2EFCD70B2E7B
:10499200FAD704000B0E0B6E260E0C6E5D0E0D6E1A
:1049A2000D2EFED70C2EFCD70B2EFAD700000000DE
:1049B20004000301666B040E676F8C0E686F010EB4
:1049C200696F080E6A6F7FEC07F0010E0301666FD4
:1049D200030E676F800E686F010E696F0B0E6A6FB0
:1049E2007FEC07F004000D0E0B6E2D0E0C6ED70E31
:1049F2000D6E0D2EFED70C2EFCD70B2EFAD7000013
:104A0200000004000B0E0B6E260E0C6E5D0E0D6E7A
:104A12000D2EFED70C2EFCD70B2EFAD7000000006D
:104A220004000301666B040E676F9F0E686F010E30
:104A3200696F080E6A6F7FEC07F0010E0301666F63
:104A4200030E676FBA0E686F010E696F0B0E6A6F05
:104A52007FEC07F0040E0B6E0C0E0C6E330E0D6E17
:104A62000D2EFED70C2EFCD70B2EFAD7000000001D
:104A72004E50010A0CE10301666B676BB10E686F61
:104A8200010E696F080E6A6F7FEC07F00BD003010D
:104A9200666B676BA80E686F010E696F080E6A6F0E
:104AA2007FEC07F0010E0301666F676B770E686F8C
:104AB200010E696F080E6A6F7FEC07F00001C353A5
:104AC2000CE00301666B080E676F750E686F010ECE
:104AD200696F010E6A6F7FEC07F0040010EC08F0BA
:024AE2001200C0
:104AE40004000201D751040A010ED8A4000E016E7D
:104AF400D751050A010ED8A4000E006E0150001211
:104B04000EE0020E0301666F400E676FA90E686F18
:104B1400020E696F040E6A6F7FEC07F014D0020175
:104B2400D751000A0EE0010E0301666F040E676F91
:104B3400AF0E686F020E696F040E6A6F7FEC07F0A8
:104B440002D08A8C8A8ECBEC20F00201D751000A65
:104B54001BE1800E006E800ED919005C02E1D85171
:104B6400960803E38A9C8A8E0ED0800E006E800E17
:104B7400D919005C02E1D851FA0803E3819C819EB3
:104B840002D0818C819E11D07451000A010ED8A4E8
:104B9400000E016E5B51000A010ED8A4000E006ED7
:104BA4000150001202E010EC08F0050E020172033D
:104BB400F3CF00F00050FF080301396F5DC23AF3F0
:104BC4008DEC17F0050E02017203F3CF00F00050D4
:104BD400FE080301396F75C23AF38DEC17F0050E28
:104BE40002017203F3CF00F00050FD080301396F96
:104BF40073C23AF38DEC17F0050E02017203F3CF82
:104C040000F00050FC080301396F000E046E010E21
:104C1400056ED3C200F0D4C201F0C8EC1BF000C092
:104C24003AF38DEC17F0050E02017203F3CF00F096
:104C34000050FB080301396F000E046E010E056E6F
:104C4400D3C200F0D4C201F0C8EC1BF008C000F0DD
:104C540009C001F000C03AF38DEC17F0100E020108
:104C6400896F270E8A6F100E8C6F270E8D6FCAEC1A
:104C740017F0D8C25EF2D9C25FF2898C0400120028
:104C8400810E03015F6F0F0E606F616B320E626FF6
:104C9400636B41EC0AF00052D8B497D0060E0B6E49
:104CA400130E0C6EAD0E0D6E0D2EFED70C2EFCD712
:104CB4000B2EFAD700000000040081A00FD00201DF
:104CC4007351000A03E1010E736F01D0736B73C259
:104CD40039F3ACEC17F010EC08F066D00001BA51CF
:104CE400010A02E1BA6B02D0010EBA6FBA51010A8D
:104CF4002EE10201D751040A010ED8A4000E016E60
:104D0400D751050A010ED8A4000E006E01500012FE
:104D14000DE00301666B700E676FB80E686F000ECE
:104D2400696F010E6A6F7FEC07F010D00201D75152
:104D3400000A0CE00301666B080E676F940E686F3F
:104D4400000E696F010E6A6F7FEC07F02DD002012F
:104D5400D751040A010ED8A4000E016ED751050ADA
:104D6400010ED8A4000E006E015000120DE00301E4
:104D7400666B700E676F6A0E686F000E696F010EC6
:104D84006A6F7FEC07F010D00201D751000A0CE0E3
:104D94000301666B080E676F680E686F000E696F1B
:104DA400010E6A6F7FEC07F0810E03015F6F0F0E37
:104DB400606F616B320E626F636B41EC0AF00052FC
:104DC40004E0CAEC17F00400EFD7810E03015F6F13
:104DD4000F0E606F020E616F320E626F636B41ECF7
:104DE4000AF000526BE0040081B468D0050E026E34
:104DF400B6C200F0000E016E025005E000360090CD
:104E04000136FF0FFAD7010E005C026E000E015846
:104E1400036E800E006E800E0318005C03E10250E6
:104E24000201755D010ED8B0000E006E0001BA518A
:104E3400001607E00201752B75C241F339EC17F037
:104E44002FD00001BA53010ED8A4000E046E050E33
:104E5400026EB6C200F0000E016E025005E000368C
:104E640000900136FF0FFAD7010E005C026E000EAF
:104E74000158036E800E006E800E0318005C03E17F
:104E8400025002015D5D010ED8B0000E006E0450A8
:104E9400001606E002015D2B5DC241F35FEC12F0E7
:104EA40010EC08F0CAEC17F09C0E0C6ED70E0D6EC9
:104EB4000D2EFED70C2EFCD7040096D7810E0301CD
:104EC4005F6F0F0E606F010E616F320E626F636B66
:104ED40041EC0AF06750000A010ED8A4000E016EDE
:104EE4000150001638E0040081B235D0020175513A
:104EF4000008010ED8B0000E006E0001BA51001671
:104F040007E00201750775C241F339EC17F015D0BB
:104F14000001BA53010ED8A4000E016E02015D51C6
:104F24000008010ED8B0000E006E0150001605E016
:104F34005D075DC241F35FEC12F010EC08F0CAECBF
:104F440017F09C0E0C6ED70E0D6E0D2EFED70C2E88
:084F5400FCD70400C9D71200CC
:104F5C000301266B88EC23F000C0CCF2010E266F07
:104F6C0088EC23F000C0BCF20050000A05E1939CD1
:104F7C00939E8A8C8A8E04D0938C938E8A9C8A9E64
:024F8C00120011
:104F8E00070EB46E600ED36E9B8C806A816A826A45
:104F9E00400E896E8A6A8B6A030E926E070E936EAE
:104FAE00946A90EC23F00D0EC16EF19EF29E1200EB
:104FBE000900F5CFE6FF0006FBE10106F9E112005C
:104FCE000400010E0301266F88EC23F000C0D7F217
:104FDE00020E266F88EC23F00050010A03E1010E49
:104FEE000001C36F030E0301266F88EC23F000C08F
:104FFE0026F3A4EC23F000C0D1F2000E0201D26F12
:10500E00040E0301266F88EC23F000C026F3A4ECF7
:10501E0023F00A0E0002F3CFBAF2F4CFBBF2050E64
:10502E00266F88EC23F000C026F3A4EC23F00A0EC2
:10503E000002F3CFDAF2F4CFDBF2060E266F88EC25
:10504E0023F000C026F3A4EC23F00A0E0002F3CFE7
:10505E00DEF2F4CFDFF2090E266F88EC23F000C0EB
:10506E0026F3A4EC23F00A0E0002F3CF0DF3F4CFD7
:10507E000EF30A0E266F88EC23F000C0B5F20B0E6D
:10508E00266F88EC23F000C0B8F20C0E266F88EC69
:10509E0023F000C0B4F20D0E266F88EC23F000C092
:1050AE00AEF20E0E266F88EC23F000C050F00F0EFD
:1050BE00266F88EC23F000C05CF20400100E266F01
:1050CE0088EC23F000C026F3A4EC23F0640E00025B
:1050DE00F3CF0FF3F4CF10F3110E266F88EC23F0FD
:1050EE0000C026F3A4EC23F000500F250201F46F4C
:1050FE00000E030110210201F56F120E0301266F3F
:10510E0088EC23F000C026F3A4EC23F0640E00021A
:10511E00F3CF0FF3F4CF10F3130E266F88EC23F0BA
:10512E0000C026F3A4EC23F000500F250201F26F0D
:10513E00000E030110210201F36F140E0301266FFE
:10514E0088EC23F000C026F3A4EC23F0640E0002DA
:10515E00F3CF0FF3F4CF10F3150E266F88EC23F078
:10516E0000C026F3A4EC23F000500F250201FC6FC3
:10517E00000E030110210201FD6F160E0301266FB2
:10518E0088EC23F000C026F3A4EC23F0640E00029A
:10519E00F3CF0FF3F4CF10F3170E266F88EC23F036
:1051AE0000C026F3A4EC23F000500F250201FA6F85
:1051BE00000E030110210201FB6F180E0301266F72
:1051CE0088EC23F000C026F3A4EC23F0640E00025A
:1051DE00F3CF0FF3F4CF10F3190E266F88EC23F0F4
:1051EE0000C026F3A4EC23F000500F250201F86F47
:1051FE00000E030110210201F96F1A0E0301266F32
:10520E0088EC23F000C026F3A4EC23F0640E000219
:10521E00F3CF0FF3F4CF10F31B0E266F88EC23F0B1
:10522E0000C026F3A4EC23F000500F250201F06F0E
:10523E00000E030110210201F16F1C0E0301266FF7
:10524E0088EC23F000C026F3A4EC23F0640E0002D9
:10525E00F3CF0FF3F4CF10F31D0E266F88EC23F06F
:10526E0000C026F3A4EC23F000500F250201EE6FD0
:10527E00000E030110210201EF6F200E0301266FB5
:10528E0088EC23F000C026F3A4EC23F0640E000299
:10529E00F3CF0FF3F4CF10F3210E266F88EC23F02B
:1052AE0000C026F3A4EC23F000500F250B6F000E68
:1052BE0010210C6F220E266F88EC23F000C026F30F
:1052CE00A4EC23F0640E0002F3CF0FF3F4CF10F32F
:1052DE00230E266F88EC23F000C026F3A4EC23F0F7
:1052EE0000500F25096F000E10210A6F240E266F35
:1052FE0088EC23F000C026F3A4EC23F0640E000229
:10530E00F3CF0FF3F4CF10F3250E266F88EC23F0B6
:10531E0000C026F3A4EC23F000500F25076F000EFB
:10532E001021086F260E266F88EC23F000C026F39E
:10533E00A4EC23F0640E0002F3CF0FF3F4CF10F3BE
:10534E00270E266F88EC23F000C026F3A4EC23F082
:10535E0000500F25056F000E1021066F280E266FC8
:10536E0088EC23F000C026F3A4EC23F0640E0002B8
:10537E00F3CF0FF3F4CF10F3290E266F88EC23F042
:10538E0000C026F3A4EC23F000500F25036F000E8F
:10539E001021046F2A0E266F88EC23F000C026F32E
:1053AE00A4EC23F0640E0002F3CF0FF3F4CF10F34E
:1053BE002B0E266F88EC23F000C026F3A4EC23F00E
:1053CE0000500F25016F000E1021026F2C0E266F5C
:1053DE0088EC23F000C026F3A4EC23F0640E000248
:1053EE00F3CF0FF3F4CF10F32D0E266F88EC23F0CE
:1053FE0000C026F3A4EC23F000500F250201FE6F2F
:10540E00000E030110210201FF6F300E0301266F03
:10541E0088EC23F000C04EF0310E266F88EC23F09E
:10542E0000C026F3A4EC23F000C04FF0320E266F1E
:10543E0088EC23F000C026F3A4EC23F000C0C8F0E3
:10544E00330E266F88EC23F000C05BF2340E266F0D
:10545E0088EC23F000C026F3A4EC23F000C0B9F2D0
:04546E000400120024
:105472000201BC51010806E2AE0E03015F6FFEECB1
:1054820007F00DD0BC51010A0AE1BE6BBF6B0301EC
:10549200706B1FEC03F00301706B1FEC03F0120042
:1054A2000FC3C8F210C3C9F211C300F0010E026E9D
:1054B200005004E002360290FF0FFBD702C0C3F295
:1054C200021C0201C26F12C301F0010E006E0150F4
:1054D20004E000360090FF0FFBD700C0C1F2001EAF
:1054E20000C0C4F2120E03010F25E96E000E102156
:1054F200EA6E0250EF120050EF160201C76B030171
:10550200175302E00201C71F0201120EE95EC751E2
:10551200000A03E0C451EF1602D0C151EF1280EC31
:1055220023F0E80E046E030E056E000E066E076E83
:1055320081EC03F000C022F301C023F302C024F384
:1055420003C025F322C318F323C319F324C31AF3A8
:1055520025C31BF313C300F014C301F015C302F0FB
:1055620016C303F0003600900136023603360036C9
:1055720000900136023603360A0E046E000E056EE6
:10558200066E076E81EC03F000C01CF301C01DF330
:1055920002C01EF303C01FF300C004F001C005F0F7
:1055A20002C006F003C007F022C300F023C301F0DB
:1055B20024C302F025C303F0B4EC0DF000C020F3C5
:1055C20001C021F301C004F0056A0450051003E094
:1055D200020E006E52D020C3C6F21CC304F01DC3DB
:1055E20005F01EC306F01FC307F018C300F019C36D
:1055F20001F01AC302F01BC303F0B4EC0DF008C0B3
:1056020000F009C001F00AC002F00BC003F000C0B4
:1056120018F301C019F302C01AF303C01BF31CC331
:1056220005F01DC306F01EC307F01FC308F00832C1
:10563200073206320532089E08BC088E800E081812
:10564200046E800E0318045C08E10250075C05E159
:105652000150065C02E10050055C02E20201C62B29
:10566200C6C201F00132019E01C0C5F2070E015C03
:0C56720003E2010E006E01D0006A12007D
:10567E000201D751040A010ED8A4000E016ED751B3
:10568E00050A010ED8A4000E006E015000120DE0A6
:10569E000301666B0A0E676F6C0E686F000E696F02
:1056AE00090E6A6F7FEC07F010D00201D751000A85
:1056BE000CE00301666B030E676F8A0E686F000EB7
:1056CE00696F090E6A6F7FEC07F004000B0E0B6E0C
:1056DE00260E0C6E5D0E0D6E0D2EFED70C2EFCD70B
:1056EE000B2EFAD70000000004000B0E0B6E260ED8
:1056FE000C6E5D0E0D6E0D2EFED70C2EFCD70B2EE6
:10570E00FAD70000000004000B0E0B6E260E0C6E76
:10571E005D0E0D6E0D2EFED70C2EFCD70B2EFAD76E
:10572E000000000004000B0E0B6E260E0C6E5D0EBC
:10573E000D6E0D2EFED70C2EFCD70B2EFAD70000B9
:10574E00000004000201D751040A010ED8A4000E75
:10575E00016ED751050A010ED8A4000E006E01503D
:10576E0000120DE00301666B0A0E676F800E686F04
:10577E00000E696F090E6A6F7FEC07F010D0020100
:10578E00D751000A0CE00301666B030E676F760EAD
:10579E00686F000E696F090E6A6F7FEC07F0B9EC47
:1057AE0017F0010E0201736F010E0301396FACEC9D
:1057BE0017F0050E02017203F3CF00F00050FF0840
:1057CE000301396F5DC23AF38DEC17F0050E02013D
:1057DE007203F3CF00F00050FE080301396F75C25B
:1057EE003AF38DEC17F0050E02017203F3CF00F0C1
:1057FE000050FD080301396F73C23AF38DEC17F0B8
:10580E000201D751040A010ED8A4000E016ED75121
:10581E00050A010ED8A4000E006E015000120DE014
:10582E000301666B700E676FD90E686F010E696F9C
:10583E00010E6A6F7FEC07F010D00201D751000AFB
:10584E000CE00301666B080E676FD70E686F010ED2
:10585E00696F010E6A6F7FEC07F0010E2C6EB9ECCA
:04586E0023F0120011
:105872000201721D03010F6FF00E0F13850E0D6EE4
:105882000D2EFED7040045EC00F0400E03017F6FA1
:105892000EEC00F00FC37FF30EEC00F069EC00F0A9
:1058A2000400850E0D6E0D2EFED7040045EC00F0AF
:1058B200410E03017F6F0EEC00F046EC23F000C0B6
:1058C2000FF369EC00F0040003010F1D0201726F77
:1058D2007233729F7233729F7233729F7233729FEE
:0658E2000F0E7217120008
:1058E800050E02017203F3CF00F00050FF08030118
:1058F800266F88EC23F000C05DF2050E02017203EA
:10590800F3CF00F00050FE080301266F88EC23F067
:1059180000C075F2050E02017203F3CF00F00050CB
:10592800FD080301266F88EC23F000C073F2050E12
:1059380002017203F3CF00F00050FC080301266F48
:1059480088EC23F000C0D4F20201D36B050E720379
:10595800F3CF00F00050FB080301266F88EC23F01A
:1059680000500201D327000ED42375C241F339EC4D
:1059780017F05DC241F35FEC12F073C239F3ACEC7F
:0459880017F0120002
:10598C000301106B0F5109081DE20A0E046E0FC3C0
:10599C0000F037EC23F000C010F300C010F3103708
:1059AC0010911037109110371091103710910A0E7A
:1059BC00046E0FC300F037EC23F008C000F0005069
:0E59CC00101302D00FC310F310C300F012002E
:1059DA00810E03015F6F0F0E606F616B320E626F93
:1059EA00636B41EC0AF00001C951001260E021EC3E
:1059FA0010F0C8C000F063EC0EF0C4C004F0C5C0DB
:105A0A0005F0C6C006F0C7C007F00BEC06F09EEC26
:105A1A0006F000C0DDF001C0DEF0060E0B6E130EBC
:105A2A000C6EAD0E0D6E0D2EFED70C2EFCD70B2E66
:105A3A00FAD70000000004000001C951000A010E53
